{
  "_format": "hh-sol-artifact-1",
  "contractName": "LockZap",
  "sourceName": "contracts/radiant/zap/LockZap.sol",
  "abi": [
    {
      "inputs": [],
      "name": "AddressZero",
      "type": "error"
    },
    {
      "inputs": [],
      "name": "AmountZero",
      "type": "error"
    },
    {
      "inputs": [],
      "name": "ETHTransferFailed",
      "type": "error"
    },
    {
      "inputs": [],
      "name": "EthTransferFailed",
      "type": "error"
    },
    {
      "inputs": [],
      "name": "InsufficientETH",
      "type": "error"
    },
    {
      "inputs": [],
      "name": "InvalidLockLength",
      "type": "error"
    },
    {
      "inputs": [],
      "name": "InvalidRatio",
      "type": "error"
    },
    {
      "inputs": [],
      "name": "InvalidZapETHSource",
      "type": "error"
    },
    {
      "inputs": [],
      "name": "ReceivedETHOnAlternativeAssetZap",
      "type": "error"
    },
    {
      "inputs": [],
      "name": "SlippageTooHigh",
      "type": "error"
    },
    {
      "inputs": [],
      "name": "SpecifiedSlippageExceedLimit",
      "type": "error"
    },
    {
      "anonymous": false,
      "inputs": [
        {
          "indexed": true,
          "internalType": "address",
          "name": "_mfdAddr",
          "type": "address"
        }
      ],
      "name": "MfdUpdated",
      "type": "event"
    },
    {
      "anonymous": false,
      "inputs": [
        {
          "indexed": true,
          "internalType": "address",
          "name": "previousOwner",
          "type": "address"
        },
        {
          "indexed": true,
          "internalType": "address",
          "name": "newOwner",
          "type": "address"
        }
      ],
      "name": "OwnershipTransferred",
      "type": "event"
    },
    {
      "anonymous": false,
      "inputs": [
        {
          "indexed": false,
          "internalType": "address",
          "name": "account",
          "type": "address"
        }
      ],
      "name": "Paused",
      "type": "event"
    },
    {
      "anonymous": false,
      "inputs": [
        {
          "indexed": true,
          "internalType": "address",
          "name": "_poolHelper",
          "type": "address"
        }
      ],
      "name": "PoolHelperUpdated",
      "type": "event"
    },
    {
      "anonymous": false,
      "inputs": [
        {
          "indexed": true,
          "internalType": "address",
          "name": "_provider",
          "type": "address"
        }
      ],
      "name": "PriceProviderUpdated",
      "type": "event"
    },
    {
      "anonymous": false,
      "inputs": [
        {
          "indexed": true,
          "internalType": "address",
          "name": "_uniRouter",
          "type": "address"
        }
      ],
      "name": "UniRouterUpdated",
      "type": "event"
    },
    {
      "anonymous": false,
      "inputs": [
        {
          "indexed": false,
          "internalType": "address",
          "name": "account",
          "type": "address"
        }
      ],
      "name": "Unpaused",
      "type": "event"
    },
    {
      "anonymous": false,
      "inputs": [
        {
          "indexed": false,
          "internalType": "bool",
          "name": "_borrow",
          "type": "bool"
        },
        {
          "indexed": false,
          "internalType": "uint256",
          "name": "_ethAmt",
          "type": "uint256"
        },
        {
          "indexed": false,
          "internalType": "uint256",
          "name": "_rdntAmt",
          "type": "uint256"
        },
        {
          "indexed": true,
          "internalType": "address",
          "name": "_from",
          "type": "address"
        },
        {
          "indexed": true,
          "internalType": "address",
          "name": "_onBehalf",
          "type": "address"
        },
        {
          "indexed": false,
          "internalType": "uint256",
          "name": "_lockTypeIndex",
          "type": "uint256"
        }
      ],
      "name": "Zapped",
      "type": "event"
    },
    {
      "inputs": [],
      "name": "ACCEPTABLE_RATIO",
      "outputs": [
        {
          "internalType": "uint256",
          "name": "",
          "type": "uint256"
        }
      ],
      "stateMutability": "view",
      "type": "function"
    },
    {
      "inputs": [],
      "name": "BASE_PERCENT",
      "outputs": [
        {
          "internalType": "uint256",
          "name": "",
          "type": "uint256"
        }
      ],
      "stateMutability": "view",
      "type": "function"
    },
    {
      "inputs": [],
      "name": "MAX_SLIPPAGE",
      "outputs": [
        {
          "internalType": "uint256",
          "name": "",
          "type": "uint256"
        }
      ],
      "stateMutability": "view",
      "type": "function"
    },
    {
      "inputs": [],
      "name": "RATIO_DIVISOR",
      "outputs": [
        {
          "internalType": "uint256",
          "name": "",
          "type": "uint256"
        }
      ],
      "stateMutability": "view",
      "type": "function"
    },
    {
      "inputs": [],
      "name": "REFERRAL_CODE",
      "outputs": [
        {
          "internalType": "uint16",
          "name": "",
          "type": "uint16"
        }
      ],
      "stateMutability": "view",
      "type": "function"
    },
    {
      "inputs": [],
      "name": "VARIABLE_INTEREST_RATE_MODE",
      "outputs": [
        {
          "internalType": "uint256",
          "name": "",
          "type": "uint256"
        }
      ],
      "stateMutability": "view",
      "type": "function"
    },
    {
      "inputs": [],
      "name": "aaveOracle",
      "outputs": [
        {
          "internalType": "contract IAaveOracle",
          "name": "",
          "type": "address"
        }
      ],
      "stateMutability": "view",
      "type": "function"
    },
    {
      "inputs": [],
      "name": "ethLPRatio",
      "outputs": [
        {
          "internalType": "uint256",
          "name": "",
          "type": "uint256"
        }
      ],
      "stateMutability": "view",
      "type": "function"
    },
    {
      "inputs": [],
      "name": "getPoolHelper",
      "outputs": [
        {
          "internalType": "address",
          "name": "",
          "type": "address"
        }
      ],
      "stateMutability": "view",
      "type": "function"
    },
    {
      "inputs": [],
      "name": "getUniRouter",
      "outputs": [
        {
          "internalType": "address",
          "name": "",
          "type": "address"
        }
      ],
      "stateMutability": "view",
      "type": "function"
    },
    {
      "inputs": [
        {
          "internalType": "address",
          "name": "_asset",
          "type": "address"
        }
      ],
      "name": "getVDebtToken",
      "outputs": [
        {
          "internalType": "address",
          "name": "",
          "type": "address"
        }
      ],
      "stateMutability": "view",
      "type": "function"
    },
    {
      "inputs": [
        {
          "internalType": "contract IPoolHelper",
          "name": "_rndtPoolHelper",
          "type": "address"
        },
        {
          "internalType": "address",
          "name": "_uniRouter",
          "type": "address"
        },
        {
          "internalType": "contract ILendingPool",
          "name": "_lendingPool",
          "type": "address"
        },
        {
          "internalType": "contract IWETH",
          "name": "_weth",
          "type": "address"
        },
        {
          "internalType": "address",
          "name": "_rdntAddr",
          "type": "address"
        },
        {
          "internalType": "uint256",
          "name": "_ethLPRatio",
          "type": "uint256"
        },
        {
          "internalType": "contract IAaveOracle",
          "name": "_aaveOracle",
          "type": "address"
        }
      ],
      "name": "initialize",
      "outputs": [],
      "stateMutability": "nonpayable",
      "type": "function"
    },
    {
      "inputs": [],
      "name": "lendingPool",
      "outputs": [
        {
          "internalType": "contract ILendingPool",
          "name": "",
          "type": "address"
        }
      ],
      "stateMutability": "view",
      "type": "function"
    },
    {
      "inputs": [],
      "name": "mfd",
      "outputs": [
        {
          "internalType": "contract IMultiFeeDistribution",
          "name": "",
          "type": "address"
        }
      ],
      "stateMutability": "view",
      "type": "function"
    },
    {
      "inputs": [],
      "name": "owner",
      "outputs": [
        {
          "internalType": "address",
          "name": "",
          "type": "address"
        }
      ],
      "stateMutability": "view",
      "type": "function"
    },
    {
      "inputs": [],
      "name": "pause",
      "outputs": [],
      "stateMutability": "nonpayable",
      "type": "function"
    },
    {
      "inputs": [],
      "name": "paused",
      "outputs": [
        {
          "internalType": "bool",
          "name": "",
          "type": "bool"
        }
      ],
      "stateMutability": "view",
      "type": "function"
    },
    {
      "inputs": [],
      "name": "poolHelper",
      "outputs": [
        {
          "internalType": "contract IPoolHelper",
          "name": "",
          "type": "address"
        }
      ],
      "stateMutability": "view",
      "type": "function"
    },
    {
      "inputs": [],
      "name": "priceProvider",
      "outputs": [
        {
          "internalType": "contract IPriceProvider",
          "name": "",
          "type": "address"
        }
      ],
      "stateMutability": "view",
      "type": "function"
    },
    {
      "inputs": [
        {
          "internalType": "address",
          "name": "_token",
          "type": "address"
        },
        {
          "internalType": "uint256",
          "name": "_amount",
          "type": "uint256"
        }
      ],
      "name": "quoteFromToken",
      "outputs": [
        {
          "internalType": "uint256",
          "name": "",
          "type": "uint256"
        }
      ],
      "stateMutability": "view",
      "type": "function"
    },
    {
      "inputs": [],
      "name": "rdntAddr",
      "outputs": [
        {
          "internalType": "address",
          "name": "",
          "type": "address"
        }
      ],
      "stateMutability": "view",
      "type": "function"
    },
    {
      "inputs": [],
      "name": "renounceOwnership",
      "outputs": [],
      "stateMutability": "nonpayable",
      "type": "function"
    },
    {
      "inputs": [
        {
          "internalType": "address",
          "name": "_aaveOracle",
          "type": "address"
        }
      ],
      "name": "setAaveOracle",
      "outputs": [],
      "stateMutability": "nonpayable",
      "type": "function"
    },
    {
      "inputs": [
        {
          "internalType": "address",
          "name": "_mfdAddr",
          "type": "address"
        }
      ],
      "name": "setMfd",
      "outputs": [],
      "stateMutability": "nonpayable",
      "type": "function"
    },
    {
      "inputs": [
        {
          "internalType": "address",
          "name": "_poolHelper",
          "type": "address"
        }
      ],
      "name": "setPoolHelper",
      "outputs": [],
      "stateMutability": "nonpayable",
      "type": "function"
    },
    {
      "inputs": [
        {
          "internalType": "address",
          "name": "_provider",
          "type": "address"
        }
      ],
      "name": "setPriceProvider",
      "outputs": [],
      "stateMutability": "nonpayable",
      "type": "function"
    },
    {
      "inputs": [
        {
          "internalType": "address",
          "name": "_uniRouter",
          "type": "address"
        }
      ],
      "name": "setUniRouter",
      "outputs": [],
      "stateMutability": "nonpayable",
      "type": "function"
    },
    {
      "inputs": [
        {
          "internalType": "address",
          "name": "newOwner",
          "type": "address"
        }
      ],
      "name": "transferOwnership",
      "outputs": [],
      "stateMutability": "nonpayable",
      "type": "function"
    },
    {
      "inputs": [],
      "name": "uniRouter",
      "outputs": [
        {
          "internalType": "address",
          "name": "",
          "type": "address"
        }
      ],
      "stateMutability": "view",
      "type": "function"
    },
    {
      "inputs": [],
      "name": "unpause",
      "outputs": [],
      "stateMutability": "nonpayable",
      "type": "function"
    },
    {
      "inputs": [],
      "name": "weth",
      "outputs": [
        {
          "internalType": "contract IWETH",
          "name": "",
          "type": "address"
        }
      ],
      "stateMutability": "view",
      "type": "function"
    },
    {
      "inputs": [
        {
          "internalType": "address",
          "name": "to",
          "type": "address"
        },
        {
          "internalType": "uint256",
          "name": "value",
          "type": "uint256"
        }
      ],
      "name": "withdrawLockedETH",
      "outputs": [],
      "stateMutability": "nonpayable",
      "type": "function"
    },
    {
      "inputs": [
        {
          "internalType": "bool",
          "name": "_borrow",
          "type": "bool"
        },
        {
          "internalType": "address",
          "name": "_asset",
          "type": "address"
        },
        {
          "internalType": "uint256",
          "name": "_assetAmt",
          "type": "uint256"
        },
        {
          "internalType": "uint256",
          "name": "_rdntAmt",
          "type": "uint256"
        },
        {
          "internalType": "uint256",
          "name": "_lockTypeIndex",
          "type": "uint256"
        },
        {
          "internalType": "uint256",
          "name": "_slippage",
          "type": "uint256"
        }
      ],
      "name": "zap",
      "outputs": [
        {
          "internalType": "uint256",
          "name": "",
          "type": "uint256"
        }
      ],
      "stateMutability": "payable",
      "type": "function"
    },
    {
      "inputs": [
        {
          "internalType": "bool",
          "name": "_borrow",
          "type": "bool"
        },
        {
          "internalType": "address",
          "name": "_asset",
          "type": "address"
        },
        {
          "internalType": "uint256",
          "name": "_assetAmt",
          "type": "uint256"
        },
        {
          "internalType": "uint256",
          "name": "_lockTypeIndex",
          "type": "uint256"
        },
        {
          "internalType": "uint256",
          "name": "_slippage",
          "type": "uint256"
        }
      ],
      "name": "zapFromVesting",
      "outputs": [
        {
          "internalType": "uint256",
          "name": "",
          "type": "uint256"
        }
      ],
      "stateMutability": "payable",
      "type": "function"
    },
    {
      "inputs": [
        {
          "internalType": "bool",
          "name": "_borrow",
          "type": "bool"
        },
        {
          "internalType": "address",
          "name": "_asset",
          "type": "address"
        },
        {
          "internalType": "uint256",
          "name": "_assetAmt",
          "type": "uint256"
        },
        {
          "internalType": "uint256",
          "name": "_rdntAmt",
          "type": "uint256"
        },
        {
          "internalType": "address",
          "name": "_onBehalf",
          "type": "address"
        },
        {
          "internalType": "uint256",
          "name": "_slippage",
          "type": "uint256"
        }
      ],
      "name": "zapOnBehalf",
      "outputs": [
        {
          "internalType": "uint256",
          "name": "",
          "type": "uint256"
        }
      ],
      "stateMutability": "payable",
      "type": "function"
    },
    {
      "stateMutability": "payable",
      "type": "receive"
    }
  ],
  "bytecode": "0x608060405234801561001057600080fd5b50613bb5806100206000396000f3fe6080604052600436106102385760003560e01c80637380962511610138578063b559777a116100b0578063eabcca101161007f578063f2fde38b11610064578063f2fde38b1461069d578063f9759518146106bd578063f9dc1f87146106d357600080fd5b8063eabcca101461065d578063ee4e26871461067d57600080fd5b8063b559777a146105e7578063b888879e146105fa578063bf2d2aa714610627578063c7d398d21461063d57600080fd5b80639506f05f11610107578063a59a9973116100ec578063a59a997314610562578063b0c634ee1461058f578063b50bf85c146105bc57600080fd5b80639506f05f14610522578063a0e47bf61461053557600080fd5b806373809625146104a25780638456cb59146104b55780638da5cb5b146104ca578063914237da146104f557600080fd5b80635c975abb116101cb578063667f37451161019a5780636a7e9f331161017f5780636a7e9f33146104615780636ac3ac8f14610477578063715018a61461048d57600080fd5b8063667f37451461042157806367dbf15d1461044157600080fd5b80635c975abb1461038e578063625045ad146103b157806362f3765e146103d15780636372b281146103f457600080fd5b80633f4ba83a116102075780633f4ba83a146102ff5780633fc8cef314610314578063408e6fb81461034157806355ac8d301461036157600080fd5b8063228a1c67146102445780632cd35475146102955780633583849a146102b7578063372aa224146102df57600080fd5b3661023f57005b600080fd5b34801561025057600080fd5b5060d25473ffffffffffffffffffffffffffffffffffffffff165b60405173ffffffffffffffffffffffffffffffffffffffff90911681526020015b60405180910390f35b3480156102a157600080fd5b506102b56102b03660046132fd565b6106e8565b005b3480156102c357600080fd5b506102cc600081565b60405161ffff909116815260200161028c565b3480156102eb57600080fd5b506102b56102fa3660046132fd565b61082a565b34801561030b57600080fd5b506102b5610967565b34801561032057600080fd5b5060ca5461026b9073ffffffffffffffffffffffffffffffffffffffff1681565b34801561034d57600080fd5b506102b561035c366004613321565b6109f2565b34801561036d57600080fd5b5060ce5461026b9073ffffffffffffffffffffffffffffffffffffffff1681565b34801561039a57600080fd5b5060975460ff16604051901515815260200161028c565b3480156103bd57600080fd5b506102b56103cc3660046132fd565b610a81565b3480156103dd57600080fd5b506103e6606481565b60405190815260200161028c565b34801561040057600080fd5b5060d05461026b9073ffffffffffffffffffffffffffffffffffffffff1681565b34801561042d57600080fd5b5061026b61043c3660046132fd565b610b96565b34801561044d57600080fd5b506102b561045c3660046132fd565b610c3b565b34801561046d57600080fd5b506103e661271081565b34801561048357600080fd5b506103e660d15481565b34801561049957600080fd5b506102b5610d78565b6103e66104b036600461335b565b610e03565b3480156104c157600080fd5b506102b5610e29565b3480156104d657600080fd5b5060655473ffffffffffffffffffffffffffffffffffffffff1661026b565b34801561050157600080fd5b5060cb5461026b9073ffffffffffffffffffffffffffffffffffffffff1681565b6103e66105303660046133b4565b610eb2565b34801561054157600080fd5b5060d25461026b9073ffffffffffffffffffffffffffffffffffffffff1681565b34801561056e57600080fd5b5060cd5461026b9073ffffffffffffffffffffffffffffffffffffffff1681565b34801561059b57600080fd5b5060cc5461026b9073ffffffffffffffffffffffffffffffffffffffff1681565b3480156105c857600080fd5b5060ce5473ffffffffffffffffffffffffffffffffffffffff1661026b565b6103e66105f536600461341b565b610f70565b34801561060657600080fd5b5060cf5461026b9073ffffffffffffffffffffffffffffffffffffffff1681565b34801561063357600080fd5b506103e660c95481565b34801561064957600080fd5b506103e6610658366004613321565b611059565b34801561066957600080fd5b506102b561067836600461346c565b6111e2565b34801561068957600080fd5b506102b56106983660046132fd565b6115b9565b3480156106a957600080fd5b506102b56106b83660046132fd565b6116f6565b3480156106c957600080fd5b506103e661251c81565b3480156106df57600080fd5b506103e6600281565b60655473ffffffffffffffffffffffffffffffffffffffff16331461076e576040517f08c379a000000000000000000000000000000000000000000000000000000000815260206004820181905260248201527f4f776e61626c653a2063616c6c6572206973206e6f7420746865206f776e657260448201526064015b60405180910390fd5b73ffffffffffffffffffffffffffffffffffffffff81166107bb576040517f9fabe1c100000000000000000000000000000000000000000000000000000000815260040160405180910390fd5b60ce80547fffffffffffffffffffffffff00000000000000000000000000000000000000001673ffffffffffffffffffffffffffffffffffffffff83169081179091556040517fce3a680d01747abb9461a3d05f1da77c9cfb9a5b7a6cc1828c733dc52b15479790600090a250565b60655473ffffffffffffffffffffffffffffffffffffffff1633146108ab576040517f08c379a000000000000000000000000000000000000000000000000000000000815260206004820181905260248201527f4f776e61626c653a2063616c6c6572206973206e6f7420746865206f776e65726044820152606401610765565b73ffffffffffffffffffffffffffffffffffffffff81166108f8576040517f9fabe1c100000000000000000000000000000000000000000000000000000000815260040160405180910390fd5b60cf80547fffffffffffffffffffffffff00000000000000000000000000000000000000001673ffffffffffffffffffffffffffffffffffffffff83169081179091556040517fb266add5f3044b17d27db796af992cecbe413921b4e8aaaee03c719e16b9806a90600090a250565b60655473ffffffffffffffffffffffffffffffffffffffff1633146109e8576040517f08c379a000000000000000000000000000000000000000000000000000000000815260206004820181905260248201527f4f776e61626c653a2063616c6c6572206973206e6f7420746865206f776e65726044820152606401610765565b6109f0611826565b565b60655473ffffffffffffffffffffffffffffffffffffffff163314610a73576040517f08c379a000000000000000000000000000000000000000000000000000000000815260206004820181905260248201527f4f776e61626c653a2063616c6c6572206973206e6f7420746865206f776e65726044820152606401610765565b610a7d82826118a3565b5050565b60655473ffffffffffffffffffffffffffffffffffffffff163314610b02576040517f08c379a000000000000000000000000000000000000000000000000000000000815260206004820181905260248201527f4f776e61626c653a2063616c6c6572206973206e6f7420746865206f776e65726044820152606401610765565b73ffffffffffffffffffffffffffffffffffffffff8116610b4f576040517f9fabe1c100000000000000000000000000000000000000000000000000000000815260040160405180910390fd5b60d080547fffffffffffffffffffffffff00000000000000000000000000000000000000001673ffffffffffffffffffffffffffffffffffffffff92909216919091179055565b60cd546040517f35ea6a7500000000000000000000000000000000000000000000000000000000815273ffffffffffffffffffffffffffffffffffffffff838116600483015260009283929116906335ea6a759060240161018060405180830381865afa158015610c0b573d6000803e3d6000fd5b505050506040513d601f19601f82011682018060405250810190610c2f9190613639565b61012001519392505050565b60655473ffffffffffffffffffffffffffffffffffffffff163314610cbc576040517f08c379a000000000000000000000000000000000000000000000000000000000815260206004820181905260248201527f4f776e61626c653a2063616c6c6572206973206e6f7420746865206f776e65726044820152606401610765565b73ffffffffffffffffffffffffffffffffffffffff8116610d09576040517f9fabe1c100000000000000000000000000000000000000000000000000000000815260040160405180910390fd5b60cc80547fffffffffffffffffffffffff00000000000000000000000000000000000000001673ffffffffffffffffffffffffffffffffffffffff83169081179091556040517fdee3317c3fa3792a879d5a8f63b6fcfa425fae71a9cccaba4ebaa7d279c99ce690600090a250565b60655473ffffffffffffffffffffffffffffffffffffffff163314610df9576040517f08c379a000000000000000000000000000000000000000000000000000000000815260206004820181905260248201527f4f776e61626c653a2063616c6c6572206973206e6f7420746865206f776e65726044820152606401610765565b6109f0600061195c565b6000610e0d6119d3565b610e1e87878787333389338a611a40565b979650505050505050565b60655473ffffffffffffffffffffffffffffffffffffffff163314610eaa576040517f08c379a000000000000000000000000000000000000000000000000000000000815260206004820181905260248201527f4f776e61626c653a2063616c6c6572206973206e6f7420746865206f776e65726044820152606401610765565b6109f06123da565b6000610ebc6119d3565b60cc546040517f2e88caa100000000000000000000000000000000000000000000000000000000815273ffffffffffffffffffffffffffffffffffffffff85811660048301526000921690632e88caa190602401602060405180830381865afa158015610f2d573d6000803e3d6000fd5b505050506040513d601f19601f82011682018060405250810190610f519190613726565b9050610f64888888883389878b8b611a40565b98975050505050505050565b6000610f7a6119d3565b82610fb1576040517f1d18e2c100000000000000000000000000000000000000000000000000000000815260040160405180910390fd5b60cc546040517f2843b01900000000000000000000000000000000000000000000000000000000815233600482015260009173ffffffffffffffffffffffffffffffffffffffff1690632843b019906024016020604051808303816000875af1158015611022573d6000803e3d6000fd5b505050506040513d601f19601f820116820180604052508101906110469190613726565b9050610e1e8787878430338a338b611a40565b60ca5460009073ffffffffffffffffffffffffffffffffffffffff90811690841681146111455760ce546040517ffd7060620000000000000000000000000000000000000000000000000000000081526004810185905260009173ffffffffffffffffffffffffffffffffffffffff169063fd70606290602401602060405180830381865afa1580156110f0573d6000803e3d6000fd5b505050506040513d601f19601f820116820180604052508101906111149190613726565b60d25490915061113c9073ffffffffffffffffffffffffffffffffffffffff16868484612435565b925050506111dc565b60ce546040517ffd7060620000000000000000000000000000000000000000000000000000000081526004810185905273ffffffffffffffffffffffffffffffffffffffff9091169063fd70606290602401602060405180830381865afa1580156111b4573d6000803e3d6000fd5b505050506040513d601f19601f820116820180604052508101906111d89190613726565b9150505b92915050565b600054610100900460ff16806111f75750303b155b80611205575060005460ff16155b611291576040517f08c379a000000000000000000000000000000000000000000000000000000000815260206004820152602e60248201527f436f6e747261637420696e7374616e63652068617320616c726561647920626560448201527f656e20696e697469616c697a65640000000000000000000000000000000000006064820152608401610765565b600054610100900460ff161580156112d057600080547fffffffffffffffffffffffffffffffffffffffffffffffffffffffffffff0000166101011790555b73ffffffffffffffffffffffffffffffffffffffff881661131d576040517f9fabe1c100000000000000000000000000000000000000000000000000000000815260040160405180910390fd5b73ffffffffffffffffffffffffffffffffffffffff871661136a576040517f9fabe1c100000000000000000000000000000000000000000000000000000000815260040160405180910390fd5b73ffffffffffffffffffffffffffffffffffffffff86166113b7576040517f9fabe1c100000000000000000000000000000000000000000000000000000000815260040160405180910390fd5b73ffffffffffffffffffffffffffffffffffffffff8516611404576040517f9fabe1c100000000000000000000000000000000000000000000000000000000815260040160405180910390fd5b73ffffffffffffffffffffffffffffffffffffffff8416611451576040517f9fabe1c100000000000000000000000000000000000000000000000000000000815260040160405180910390fd5b82158061146057506127108310155b15611497576040517f648564d300000000000000000000000000000000000000000000000000000000815260040160405180910390fd5b73ffffffffffffffffffffffffffffffffffffffff82166114e4576040517f9fabe1c100000000000000000000000000000000000000000000000000000000815260040160405180910390fd5b6114ec6125a8565b6114f4612647565b60cd80547fffffffffffffffffffffffff000000000000000000000000000000000000000090811673ffffffffffffffffffffffffffffffffffffffff8981169190911790925560ce805482168b841617905560d2805482168a841617905560ca8054821688841617905560cb8054821687841617905560d185905560d0805490911691841691909117905580156115af57600080547fffffffffffffffffffffffffffffffffffffffffffffffffffffffffffff00ff1690555b5050505050505050565b60655473ffffffffffffffffffffffffffffffffffffffff16331461163a576040517f08c379a000000000000000000000000000000000000000000000000000000000815260206004820181905260248201527f4f776e61626c653a2063616c6c6572206973206e6f7420746865206f776e65726044820152606401610765565b73ffffffffffffffffffffffffffffffffffffffff8116611687576040517f9fabe1c100000000000000000000000000000000000000000000000000000000815260040160405180910390fd5b60d280547fffffffffffffffffffffffff00000000000000000000000000000000000000001673ffffffffffffffffffffffffffffffffffffffff83169081179091556040517f7189a0ba279a96a44871ae8306133ff5ccdb353b75897c09c47e34610cac5fc290600090a250565b60655473ffffffffffffffffffffffffffffffffffffffff163314611777576040517f08c379a000000000000000000000000000000000000000000000000000000000815260206004820181905260248201527f4f776e61626c653a2063616c6c6572206973206e6f7420746865206f776e65726044820152606401610765565b73ffffffffffffffffffffffffffffffffffffffff811661181a576040517f08c379a000000000000000000000000000000000000000000000000000000000815260206004820152602660248201527f4f776e61626c653a206e6577206f776e657220697320746865207a65726f206160448201527f64647265737300000000000000000000000000000000000000000000000000006064820152608401610765565b6118238161195c565b50565b61182e6126e6565b609780547fffffffffffffffffffffffffffffffffffffffffffffffffffffffffffffff001690557f5db9ee0a495bf2e6ff9c91a7834c1ba4fdd244a5e8aa4e537bd38aeae4b073aa335b60405173ffffffffffffffffffffffffffffffffffffffff909116815260200160405180910390a1565b6040805160008082526020820190925273ffffffffffffffffffffffffffffffffffffffff84169083906040516118da919061376b565b60006040518083038185875af1925050503d8060008114611917576040519150601f19603f3d011682016040523d82523d6000602084013e61191c565b606091505b5050905080611957576040517fb12d13eb00000000000000000000000000000000000000000000000000000000815260040160405180910390fd5b505050565b6065805473ffffffffffffffffffffffffffffffffffffffff8381167fffffffffffffffffffffffff0000000000000000000000000000000000000000831681179093556040519116919082907f8be0079c531659141344cd1fd0a4f28419497f9722a3daafe3b4186f6b6457e090600090a35050565b60975460ff16156109f0576040517f08c379a000000000000000000000000000000000000000000000000000000000815260206004820152601060248201527f5061757361626c653a20706175736564000000000000000000000000000000006044820152606401610765565b60ca5460009073ffffffffffffffffffffffffffffffffffffffff908116908a16611a69578099505b82611a785761251c9250611ac0565b8261251c1180611a89575061271083115b15611ac0576040517fc82bafc900000000000000000000000000000000000000000000000000000000815260040160405180910390fd5b73ffffffffffffffffffffffffffffffffffffffff8a8116908216143415611bb65780611b19576040517f7fef56e900000000000000000000000000000000000000000000000000000000815260040160405180910390fd5b8b15611b51576040517fd3555def00000000000000000000000000000000000000000000000000000000815260040160405180910390fd5b3499508173ffffffffffffffffffffffffffffffffffffffff1663d0e30db08b6040518263ffffffff1660e01b81526004016000604051808303818588803b158015611b9c57600080fd5b505af1158015611bb0573d6000803e3d6000fd5b50505050505b89611bed576040517fcbca5aa200000000000000000000000000000000000000000000000000000000815260040160405180910390fd5b60008b73ffffffffffffffffffffffffffffffffffffffff1663313ce5676040518163ffffffff1660e01b8152600401602060405180830381865afa158015611c3a573d6000803e3d6000fd5b505050506040513d601f19601f82011682018060405250810190611c5e9190613787565b611c6990600a6138f1565b60d0546040517fb3596f0700000000000000000000000000000000000000000000000000000000815273ffffffffffffffffffffffffffffffffffffffff8f811660048301529091169063b3596f0790602401602060405180830381865afa158015611cd9573d6000803e3d6000fd5b505050506040513d601f19601f82011682018060405250810190611cfd9190613726565b611d07908d613900565b611d11919061393d565b90508c15611deb5760cd546040517fa415bcad00000000000000000000000000000000000000000000000000000000815273ffffffffffffffffffffffffffffffffffffffff8e81166004830152602482018e905260026044830152600060648301523360848301529091169063a415bcad9060a401600060405180830381600087803b158015611da157600080fd5b505af1158015611db5573d6000803e3d6000fd5b5050505081611de65760d254611de39073ffffffffffffffffffffffffffffffffffffffff168d858e612752565b9a505b611e3f565b34611e3f57611e1273ffffffffffffffffffffffffffffffffffffffff8d1633308e6128db565b81611e3f5760d254611e3c9073ffffffffffffffffffffffffffffffffffffffff168d858e612752565b9a505b60ce546040517f095ea7b300000000000000000000000000000000000000000000000000000000815273ffffffffffffffffffffffffffffffffffffffff9182166004820152602481018d90529084169063095ea7b3906044016020604051808303816000875af1158015611eb8573d6000803e3d6000fd5b505050506040513d601f19601f82011682018060405250810190611edc9190613978565b5089156120da5760ce546040517ffd706062000000000000000000000000000000000000000000000000000000008152600481018c905273ffffffffffffffffffffffffffffffffffffffff9091169063fd70606290602401602060405180830381865afa158015611f52573d6000803e3d6000fd5b505050506040513d601f19601f82011682018060405250810190611f769190613726565b8b1015611faf576040517f6a12f10400000000000000000000000000000000000000000000000000000000815260040160405180910390fd5b73ffffffffffffffffffffffffffffffffffffffff89163014611ff15760cb54611ff19073ffffffffffffffffffffffffffffffffffffffff1633308d6128db565b60ce5460cb5461201b9173ffffffffffffffffffffffffffffffffffffffff91821691168c6129bd565b60ce546040517f753983d6000000000000000000000000000000000000000000000000000000008152600481018d9052602481018c905273ffffffffffffffffffffffffffffffffffffffff9091169063753983d6906044016020604051808303816000875af1158015612093573d6000803e3d6000fd5b505050506040513d601f19601f820116820180604052508101906120b79190613726565b60d1549094506120c961271083613900565b6120d3919061393d565b9050612172565b60ce546040517fc829bfda000000000000000000000000000000000000000000000000000000008152600481018d905273ffffffffffffffffffffffffffffffffffffffff9091169063c829bfda906024016020604051808303816000875af115801561214b573d6000803e3d6000fd5b505050506040513d601f19601f8201168201806040525081019061216f9190613726565b93505b60cf5473ffffffffffffffffffffffffffffffffffffffff16156121d3578461219b8286612aad565b10156121d3576040517f850c6f7600000000000000000000000000000000000000000000000000000000815260040160405180910390fd5b60cc5460ce54604080517f439e501600000000000000000000000000000000000000000000000000000000815290516122909373ffffffffffffffffffffffffffffffffffffffff90811693899391169163439e5016916004808201926020929091908290030181865afa15801561224f573d6000803e3d6000fd5b505050506040513d601f19601f820116820180604052508101906122739190613995565b73ffffffffffffffffffffffffffffffffffffffff1691906129bd565b60cc546040517f6e9c931c0000000000000000000000000000000000000000000000000000000081526004810186905273ffffffffffffffffffffffffffffffffffffffff8a81166024830152604482018a905290911690636e9c931c90606401600060405180830381600087803b15801561230b57600080fd5b505af115801561231f573d6000803e3d6000fd5b505050508773ffffffffffffffffffffffffffffffffffffffff168973ffffffffffffffffffffffffffffffffffffffff167f185f471aee8e22c0f6772d9076b984cb8394859d474a9799c1421f440262d5818f8e8e8c60405161239e9493929190931515845260208401929092526040830152606082015260800190565b60405180910390a360cb546123ca9073ffffffffffffffffffffffffffffffffffffffff168d88612bf9565b5050509998505050505050505050565b6123e26119d3565b609780547fffffffffffffffffffffffffffffffffffffffffffffffffffffffffffffff001660011790557f62e78cea01bee320cd4e420270b5ea74000d11b0c9f74754ebdbfc544b05a2586118793390565b60408051600280825260608201835260009283929190602083019080368337019050509050848160008151811061246e5761246e6139b2565b602002602001019073ffffffffffffffffffffffffffffffffffffffff16908173ffffffffffffffffffffffffffffffffffffffff168152505083816001815181106124bc576124bc6139b2565b73ffffffffffffffffffffffffffffffffffffffff92831660209182029290920101526040517f1f00ca7400000000000000000000000000000000000000000000000000000000815290871690631f00ca749061251f9086908590600401613a32565b600060405180830381865afa15801561253c573d6000803e3d6000fd5b505050506040513d6000823e601f3d9081017fffffffffffffffffffffffffffffffffffffffffffffffffffffffffffffffe01682016040526125829190810190613a4b565b600081518110612594576125946139b2565b60200260200101519150505b949350505050565b600054610100900460ff1661263f576040517f08c379a000000000000000000000000000000000000000000000000000000000815260206004820152602b60248201527f496e697469616c697a61626c653a20636f6e7472616374206973206e6f74206960448201527f6e697469616c697a696e670000000000000000000000000000000000000000006064820152608401610765565b6109f0612df6565b600054610100900460ff166126de576040517f08c379a000000000000000000000000000000000000000000000000000000000815260206004820152602b60248201527f496e697469616c697a61626c653a20636f6e7472616374206973206e6f74206960448201527f6e697469616c697a696e670000000000000000000000000000000000000000006064820152608401610765565b6109f0612e96565b60975460ff166109f0576040517f08c379a000000000000000000000000000000000000000000000000000000000815260206004820152601460248201527f5061757361626c653a206e6f74207061757365640000000000000000000000006044820152606401610765565b60408051600280825260608201835260009283929190602083019080368337019050509050848160008151811061278b5761278b6139b2565b602002602001019073ffffffffffffffffffffffffffffffffffffffff16908173ffffffffffffffffffffffffffffffffffffffff168152505083816001815181106127d9576127d96139b2565b73ffffffffffffffffffffffffffffffffffffffff928316602091820292909201015261280990861687856129bd565b6040517f38ed173900000000000000000000000000000000000000000000000000000000815273ffffffffffffffffffffffffffffffffffffffff8716906338ed173990612864908690600090869030904290600401613ae5565b6000604051808303816000875af1158015612883573d6000803e3d6000fd5b505050506040513d6000823e601f3d9081017fffffffffffffffffffffffffffffffffffffffffffffffffffffffffffffffe01682016040526128c99190810190613a4b565b600181518110612594576125946139b2565b60405173ffffffffffffffffffffffffffffffffffffffff808516602483015283166044820152606481018290526129b79085907f23b872dd00000000000000000000000000000000000000000000000000000000906084015b604080517fffffffffffffffffffffffffffffffffffffffffffffffffffffffffffffffe08184030181529190526020810180517bffffffffffffffffffffffffffffffffffffffffffffffffffffffff167fffffffff0000000000000000000000000000000000000000000000000000000090931692909217909152612f57565b50505050565b6040805173ffffffffffffffffffffffffffffffffffffffff8416602482015260448082018490528251808303909101815260649091019091526020810180517bffffffffffffffffffffffffffffffffffffffffffffffffffffffff167f095ea7b300000000000000000000000000000000000000000000000000000000179052612a498482613066565b6129b75760405173ffffffffffffffffffffffffffffffffffffffff8416602482015260006044820152612aa39085907f095ea7b30000000000000000000000000000000000000000000000000000000090606401612935565b6129b78482612f57565b60cf54604080517fa2e62045000000000000000000000000000000000000000000000000000000008152905160009273ffffffffffffffffffffffffffffffffffffffff169163a2e62045916004808301928692919082900301818387803b158015612b1857600080fd5b505af1158015612b2c573d6000803e3d6000fd5b505050506000670de0b6b3a764000060cf60009054906101000a900473ffffffffffffffffffffffffffffffffffffffff1673ffffffffffffffffffffffffffffffffffffffff16636e9a05c56040518163ffffffff1660e01b8152600401602060405180830381865afa158015612ba8573d6000803e3d6000fd5b505050506040513d601f19601f82011682018060405250810190612bcc9190613726565b612bd69085613900565b612be0919061393d565b905083612bef61271083613900565b6111d8919061393d565b6040517f70a082310000000000000000000000000000000000000000000000000000000081523060048201528390839060009073ffffffffffffffffffffffffffffffffffffffff8316906370a08231906024016020604051808303816000875af1158015612c6c573d6000803e3d6000fd5b505050506040513d601f19601f82011682018060405250810190612c909190613726565b90508015612d33576040517fa9059cbb00000000000000000000000000000000000000000000000000000000815273ffffffffffffffffffffffffffffffffffffffff85811660048301526024820183905283169063a9059cbb906044016020604051808303816000875af1158015612d0d573d6000803e3d6000fd5b505050506040513d601f19601f82011682018060405250810190612d319190613978565b505b6040517f70a0823100000000000000000000000000000000000000000000000000000000815230600482015260009073ffffffffffffffffffffffffffffffffffffffff8516906370a0823190602401602060405180830381865afa158015612da0573d6000803e3d6000fd5b505050506040513d601f19601f82011682018060405250810190612dc49190613726565b90508015612ded57612ded73ffffffffffffffffffffffffffffffffffffffff85168683613127565b50505050505050565b600054610100900460ff16612e8d576040517f08c379a000000000000000000000000000000000000000000000000000000000815260206004820152602b60248201527f496e697469616c697a61626c653a20636f6e7472616374206973206e6f74206960448201527f6e697469616c697a696e670000000000000000000000000000000000000000006064820152608401610765565b6109f03361195c565b600054610100900460ff16612f2d576040517f08c379a000000000000000000000000000000000000000000000000000000000815260206004820152602b60248201527f496e697469616c697a61626c653a20636f6e7472616374206973206e6f74206960448201527f6e697469616c697a696e670000000000000000000000000000000000000000006064820152608401610765565b609780547fffffffffffffffffffffffffffffffffffffffffffffffffffffffffffffff00169055565b6000612fb9826040518060400160405280602081526020017f5361666545524332303a206c6f772d6c6576656c2063616c6c206661696c65648152508573ffffffffffffffffffffffffffffffffffffffff1661317d9092919063ffffffff16565b9050805160001480612fda575080806020019051810190612fda9190613978565b611957576040517f08c379a000000000000000000000000000000000000000000000000000000000815260206004820152602a60248201527f5361666545524332303a204552433230206f7065726174696f6e20646964206e60448201527f6f742073756363656564000000000000000000000000000000000000000000006064820152608401610765565b60008060008473ffffffffffffffffffffffffffffffffffffffff1684604051613090919061376b565b6000604051808303816000865af19150503d80600081146130cd576040519150601f19603f3d011682016040523d82523d6000602084013e6130d2565b606091505b50915091508180156130fc5750805115806130fc5750808060200190518101906130fc9190613978565b801561311e575073ffffffffffffffffffffffffffffffffffffffff85163b15155b95945050505050565b60405173ffffffffffffffffffffffffffffffffffffffff83166024820152604481018290526119579084907fa9059cbb0000000000000000000000000000000000000000000000000000000090606401612935565b60606125a08484600085856000808673ffffffffffffffffffffffffffffffffffffffff1685876040516131b1919061376b565b60006040518083038185875af1925050503d80600081146131ee576040519150601f19603f3d011682016040523d82523d6000602084013e6131f3565b606091505b5091509150610e1e878383876060831561329257825161328b5773ffffffffffffffffffffffffffffffffffffffff85163b61328b576040517f08c379a000000000000000000000000000000000000000000000000000000000815260206004820152601d60248201527f416464726573733a2063616c6c20746f206e6f6e2d636f6e74726163740000006044820152606401610765565b50816125a0565b6125a083838151156132a75781518083602001fd5b806040517f08c379a00000000000000000000000000000000000000000000000000000000081526004016107659190613b2e565b73ffffffffffffffffffffffffffffffffffffffff8116811461182357600080fd5b60006020828403121561330f57600080fd5b813561331a816132db565b9392505050565b6000806040838503121561333457600080fd5b823561333f816132db565b946020939093013593505050565b801515811461182357600080fd5b60008060008060008060c0878903121561337457600080fd5b863561337f8161334d565b9550602087013561338f816132db565b95989597505050506040840135936060810135936080820135935060a0909101359150565b60008060008060008060c087890312156133cd57600080fd5b86356133d88161334d565b955060208701356133e8816132db565b945060408701359350606087013592506080870135613406816132db565b8092505060a087013590509295509295509295565b600080600080600060a0868803121561343357600080fd5b853561343e8161334d565b9450602086013561344e816132db565b94979496505050506040830135926060810135926080909101359150565b600080600080600080600060e0888a03121561348757600080fd5b8735613492816132db565b965060208801356134a2816132db565b955060408801356134b2816132db565b945060608801356134c2816132db565b935060808801356134d2816132db565b925060a0880135915060c08801356134e9816132db565b8091505092959891949750929550565b7f4e487b7100000000000000000000000000000000000000000000000000000000600052604160045260246000fd5b604051610180810167ffffffffffffffff8111828210171561354c5761354c6134f9565b60405290565b604051601f82017fffffffffffffffffffffffffffffffffffffffffffffffffffffffffffffffe016810167ffffffffffffffff81118282101715613599576135996134f9565b604052919050565b6000602082840312156135b357600080fd5b6040516020810181811067ffffffffffffffff821117156135d6576135d66134f9565b6040529151825250919050565b80516fffffffffffffffffffffffffffffffff8116811461360357600080fd5b919050565b805164ffffffffff8116811461360357600080fd5b8051613603816132db565b805160ff8116811461360357600080fd5b6000610180828403121561364c57600080fd5b613654613528565b61365e84846135a1565b815261366c602084016135e3565b602082015261367d604084016135e3565b604082015261368e606084016135e3565b606082015261369f608084016135e3565b60808201526136b060a084016135e3565b60a08201526136c160c08401613608565b60c08201526136d260e0840161361d565b60e08201526101006136e581850161361d565b908201526101206136f784820161361d565b9082015261014061370984820161361d565b9082015261016061371b848201613628565b908201529392505050565b60006020828403121561373857600080fd5b5051919050565b60005b8381101561375a578181015183820152602001613742565b838111156129b75750506000910152565b6000825161377d81846020870161373f565b9190910192915050565b60006020828403121561379957600080fd5b61331a82613628565b7f4e487b7100000000000000000000000000000000000000000000000000000000600052601160045260246000fd5b600181815b8085111561382a57817fffffffffffffffffffffffffffffffffffffffffffffffffffffffffffffffff04821115613810576138106137a2565b8085161561381d57918102915b93841c93908002906137d6565b509250929050565b600082613841575060016111dc565b8161384e575060006111dc565b8160018114613864576002811461386e5761388a565b60019150506111dc565b60ff84111561387f5761387f6137a2565b50506001821b6111dc565b5060208310610133831016604e8410600b84101617156138ad575081810a6111dc565b6138b783836137d1565b807fffffffffffffffffffffffffffffffffffffffffffffffffffffffffffffffff048211156138e9576138e96137a2565b029392505050565b600061331a60ff841683613832565b6000817fffffffffffffffffffffffffffffffffffffffffffffffffffffffffffffffff0483118215151615613938576139386137a2565b500290565b600082613973577f4e487b7100000000000000000000000000000000000000000000000000000000600052601260045260246000fd5b500490565b60006020828403121561398a57600080fd5b815161331a8161334d565b6000602082840312156139a757600080fd5b815161331a816132db565b7f4e487b7100000000000000000000000000000000000000000000000000000000600052603260045260246000fd5b600081518084526020808501945080840160005b83811015613a2757815173ffffffffffffffffffffffffffffffffffffffff16875295820195908201906001016139f5565b509495945050505050565b8281526040602082015260006125a060408301846139e1565b60006020808385031215613a5e57600080fd5b825167ffffffffffffffff80821115613a7657600080fd5b818501915085601f830112613a8a57600080fd5b815181811115613a9c57613a9c6134f9565b8060051b9150613aad848301613552565b8181529183018401918481019088841115613ac757600080fd5b938501935b83851015610f6457845182529385019390850190613acc565b85815284602082015260a060408201526000613b0460a08301866139e1565b73ffffffffffffffffffffffffffffffffffffffff94909416606083015250608001529392505050565b6020815260008251806020840152613b4d81604085016020870161373f565b601f017fffffffffffffffffffffffffffffffffffffffffffffffffffffffffffffffe016919091016040019291505056fea26469706673582212203df814bc54bb7743ead450bb008fc5a850bc4ec49381cf012415b0e147b7096864736f6c634300080c0033",
  "linkReferences": {},
  "deployedLinkReferences": {}
}