{
  "_format": "hh-sol-artifact-1",
  "contractName": "LockZap",
  "sourceName": "contracts/radiant/zap/LockZap.sol",
  "abi": [
    {
      "inputs": [],
      "name": "AddressZero",
      "type": "error"
    },
    {
      "inputs": [],
      "name": "AmountZero",
      "type": "error"
    },
    {
      "inputs": [],
      "name": "ETHTransferFailed",
      "type": "error"
    },
    {
      "inputs": [],
      "name": "EthTransferFailed",
      "type": "error"
    },
    {
      "inputs": [],
      "name": "InsufficientETH",
      "type": "error"
    },
    {
      "inputs": [],
      "name": "InvalidLockLength",
      "type": "error"
    },
    {
      "inputs": [],
      "name": "InvalidRatio",
      "type": "error"
    },
    {
      "inputs": [],
      "name": "InvalidZapETHSource",
      "type": "error"
    },
    {
      "inputs": [],
      "name": "ReceivedETHOnAlternativeAssetZap",
      "type": "error"
    },
    {
      "inputs": [],
      "name": "SlippageTooHigh",
      "type": "error"
    },
    {
      "inputs": [],
      "name": "SpecifiedSlippageExceedLimit",
      "type": "error"
    },
    {
      "anonymous": false,
      "inputs": [
        {
          "indexed": true,
          "internalType": "address",
          "name": "_mfdAddr",
          "type": "address"
        }
      ],
      "name": "MfdUpdated",
      "type": "event"
    },
    {
      "anonymous": false,
      "inputs": [
        {
          "indexed": true,
          "internalType": "address",
          "name": "previousOwner",
          "type": "address"
        },
        {
          "indexed": true,
          "internalType": "address",
          "name": "newOwner",
          "type": "address"
        }
      ],
      "name": "OwnershipTransferred",
      "type": "event"
    },
    {
      "anonymous": false,
      "inputs": [
        {
          "indexed": false,
          "internalType": "address",
          "name": "account",
          "type": "address"
        }
      ],
      "name": "Paused",
      "type": "event"
    },
    {
      "anonymous": false,
      "inputs": [
        {
          "indexed": true,
          "internalType": "address",
          "name": "_poolHelper",
          "type": "address"
        }
      ],
      "name": "PoolHelperUpdated",
      "type": "event"
    },
    {
      "anonymous": false,
      "inputs": [
        {
          "indexed": true,
          "internalType": "address",
          "name": "_provider",
          "type": "address"
        }
      ],
      "name": "PriceProviderUpdated",
      "type": "event"
    },
    {
      "anonymous": false,
      "inputs": [
        {
          "indexed": true,
          "internalType": "address",
          "name": "_uniRouter",
          "type": "address"
        }
      ],
      "name": "UniRouterUpdated",
      "type": "event"
    },
    {
      "anonymous": false,
      "inputs": [
        {
          "indexed": false,
          "internalType": "address",
          "name": "account",
          "type": "address"
        }
      ],
      "name": "Unpaused",
      "type": "event"
    },
    {
      "anonymous": false,
      "inputs": [
        {
          "indexed": false,
          "internalType": "bool",
          "name": "_borrow",
          "type": "bool"
        },
        {
          "indexed": false,
          "internalType": "uint256",
          "name": "_ethAmt",
          "type": "uint256"
        },
        {
          "indexed": false,
          "internalType": "uint256",
          "name": "_rdntAmt",
          "type": "uint256"
        },
        {
          "indexed": true,
          "internalType": "address",
          "name": "_from",
          "type": "address"
        },
        {
          "indexed": true,
          "internalType": "address",
          "name": "_onBehalf",
          "type": "address"
        },
        {
          "indexed": false,
          "internalType": "uint256",
          "name": "_lockTypeIndex",
          "type": "uint256"
        }
      ],
      "name": "Zapped",
      "type": "event"
    },
    {
      "inputs": [],
      "name": "BASE_PERCENT",
      "outputs": [
        {
          "internalType": "uint256",
          "name": "",
          "type": "uint256"
        }
      ],
      "stateMutability": "view",
      "type": "function"
    },
    {
      "inputs": [],
      "name": "MAX_SLIPPAGE",
      "outputs": [
        {
          "internalType": "uint256",
          "name": "",
          "type": "uint256"
        }
      ],
      "stateMutability": "view",
      "type": "function"
    },
    {
      "inputs": [],
      "name": "RATIO_DIVISOR",
      "outputs": [
        {
          "internalType": "uint256",
          "name": "",
          "type": "uint256"
        }
      ],
      "stateMutability": "view",
      "type": "function"
    },
    {
      "inputs": [],
      "name": "REFERRAL_CODE",
      "outputs": [
        {
          "internalType": "uint16",
          "name": "",
          "type": "uint16"
        }
      ],
      "stateMutability": "view",
      "type": "function"
    },
    {
      "inputs": [],
      "name": "VARIABLE_INTEREST_RATE_MODE",
      "outputs": [
        {
          "internalType": "uint256",
          "name": "",
          "type": "uint256"
        }
      ],
      "stateMutability": "view",
      "type": "function"
    },
    {
      "inputs": [],
      "name": "aaveOracle",
      "outputs": [
        {
          "internalType": "contract IAaveOracle",
          "name": "",
          "type": "address"
        }
      ],
      "stateMutability": "view",
      "type": "function"
    },
    {
      "inputs": [],
      "name": "ethLPRatio",
      "outputs": [
        {
          "internalType": "uint256",
          "name": "",
          "type": "uint256"
        }
      ],
      "stateMutability": "view",
      "type": "function"
    },
    {
      "inputs": [],
      "name": "getPoolHelper",
      "outputs": [
        {
          "internalType": "address",
          "name": "",
          "type": "address"
        }
      ],
      "stateMutability": "view",
      "type": "function"
    },
    {
      "inputs": [],
      "name": "getUniRouter",
      "outputs": [
        {
          "internalType": "address",
          "name": "",
          "type": "address"
        }
      ],
      "stateMutability": "view",
      "type": "function"
    },
    {
      "inputs": [
        {
          "internalType": "address",
          "name": "_asset",
          "type": "address"
        }
      ],
      "name": "getVDebtToken",
      "outputs": [
        {
          "internalType": "address",
          "name": "",
          "type": "address"
        }
      ],
      "stateMutability": "view",
      "type": "function"
    },
    {
      "inputs": [
        {
          "internalType": "contract IPoolHelper",
          "name": "_rndtPoolHelper",
          "type": "address"
        },
        {
          "internalType": "address",
          "name": "_uniRouter",
          "type": "address"
        },
        {
          "internalType": "contract ILendingPool",
          "name": "_lendingPool",
          "type": "address"
        },
        {
          "internalType": "contract IWETH",
          "name": "_weth",
          "type": "address"
        },
        {
          "internalType": "address",
          "name": "_rdntAddr",
          "type": "address"
        },
        {
          "internalType": "uint256",
          "name": "_ethLPRatio",
          "type": "uint256"
        },
        {
          "internalType": "contract IAaveOracle",
          "name": "_aaveOracle",
          "type": "address"
        }
      ],
      "name": "initialize",
      "outputs": [],
      "stateMutability": "nonpayable",
      "type": "function"
    },
    {
      "inputs": [],
      "name": "lendingPool",
      "outputs": [
        {
          "internalType": "contract ILendingPool",
          "name": "",
          "type": "address"
        }
      ],
      "stateMutability": "view",
      "type": "function"
    },
    {
      "inputs": [],
      "name": "mfd",
      "outputs": [
        {
          "internalType": "contract IMultiFeeDistribution",
          "name": "",
          "type": "address"
        }
      ],
      "stateMutability": "view",
      "type": "function"
    },
    {
      "inputs": [],
      "name": "owner",
      "outputs": [
        {
          "internalType": "address",
          "name": "",
          "type": "address"
        }
      ],
      "stateMutability": "view",
      "type": "function"
    },
    {
      "inputs": [],
      "name": "pause",
      "outputs": [],
      "stateMutability": "nonpayable",
      "type": "function"
    },
    {
      "inputs": [],
      "name": "paused",
      "outputs": [
        {
          "internalType": "bool",
          "name": "",
          "type": "bool"
        }
      ],
      "stateMutability": "view",
      "type": "function"
    },
    {
      "inputs": [],
      "name": "poolHelper",
      "outputs": [
        {
          "internalType": "contract IPoolHelper",
          "name": "",
          "type": "address"
        }
      ],
      "stateMutability": "view",
      "type": "function"
    },
    {
      "inputs": [],
      "name": "priceProvider",
      "outputs": [
        {
          "internalType": "contract IPriceProvider",
          "name": "",
          "type": "address"
        }
      ],
      "stateMutability": "view",
      "type": "function"
    },
    {
      "inputs": [
        {
          "internalType": "address",
          "name": "_token",
          "type": "address"
        },
        {
          "internalType": "uint256",
          "name": "_amount",
          "type": "uint256"
        }
      ],
      "name": "quoteFromToken",
      "outputs": [
        {
          "internalType": "uint256",
          "name": "",
          "type": "uint256"
        }
      ],
      "stateMutability": "view",
      "type": "function"
    },
    {
      "inputs": [],
      "name": "rdntAddr",
      "outputs": [
        {
          "internalType": "address",
          "name": "",
          "type": "address"
        }
      ],
      "stateMutability": "view",
      "type": "function"
    },
    {
      "inputs": [],
      "name": "renounceOwnership",
      "outputs": [],
      "stateMutability": "nonpayable",
      "type": "function"
    },
    {
      "inputs": [
        {
          "internalType": "address",
          "name": "_aaveOracle",
          "type": "address"
        }
      ],
      "name": "setAaveOracle",
      "outputs": [],
      "stateMutability": "nonpayable",
      "type": "function"
    },
    {
      "inputs": [
        {
          "internalType": "address",
          "name": "_mfdAddr",
          "type": "address"
        }
      ],
      "name": "setMfd",
      "outputs": [],
      "stateMutability": "nonpayable",
      "type": "function"
    },
    {
      "inputs": [
        {
          "internalType": "address",
          "name": "_poolHelper",
          "type": "address"
        }
      ],
      "name": "setPoolHelper",
      "outputs": [],
      "stateMutability": "nonpayable",
      "type": "function"
    },
    {
      "inputs": [
        {
          "internalType": "address",
          "name": "_provider",
          "type": "address"
        }
      ],
      "name": "setPriceProvider",
      "outputs": [],
      "stateMutability": "nonpayable",
      "type": "function"
    },
    {
      "inputs": [
        {
          "internalType": "address",
          "name": "_uniRouter",
          "type": "address"
        }
      ],
      "name": "setUniRouter",
      "outputs": [],
      "stateMutability": "nonpayable",
      "type": "function"
    },
    {
      "inputs": [
        {
          "internalType": "address",
          "name": "newOwner",
          "type": "address"
        }
      ],
      "name": "transferOwnership",
      "outputs": [],
      "stateMutability": "nonpayable",
      "type": "function"
    },
    {
      "inputs": [],
      "name": "uniRouter",
      "outputs": [
        {
          "internalType": "address",
          "name": "",
          "type": "address"
        }
      ],
      "stateMutability": "view",
      "type": "function"
    },
    {
      "inputs": [],
      "name": "unpause",
      "outputs": [],
      "stateMutability": "nonpayable",
      "type": "function"
    },
    {
      "inputs": [],
      "name": "weth",
      "outputs": [
        {
          "internalType": "contract IWETH",
          "name": "",
          "type": "address"
        }
      ],
      "stateMutability": "view",
      "type": "function"
    },
    {
      "inputs": [
        {
          "internalType": "address",
          "name": "to",
          "type": "address"
        },
        {
          "internalType": "uint256",
          "name": "value",
          "type": "uint256"
        }
      ],
      "name": "withdrawLockedETH",
      "outputs": [],
      "stateMutability": "nonpayable",
      "type": "function"
    },
    {
      "inputs": [
        {
          "internalType": "bool",
          "name": "_borrow",
          "type": "bool"
        },
        {
          "internalType": "address",
          "name": "_asset",
          "type": "address"
        },
        {
          "internalType": "uint256",
          "name": "_assetAmt",
          "type": "uint256"
        },
        {
          "internalType": "uint256",
          "name": "_rdntAmt",
          "type": "uint256"
        },
        {
          "internalType": "uint256",
          "name": "_lockTypeIndex",
          "type": "uint256"
        },
        {
          "internalType": "uint256",
          "name": "_slippage",
          "type": "uint256"
        }
      ],
      "name": "zap",
      "outputs": [
        {
          "internalType": "uint256",
          "name": "",
          "type": "uint256"
        }
      ],
      "stateMutability": "payable",
      "type": "function"
    },
    {
      "inputs": [
        {
          "internalType": "bool",
          "name": "_borrow",
          "type": "bool"
        },
        {
          "internalType": "address",
          "name": "_asset",
          "type": "address"
        },
        {
          "internalType": "uint256",
          "name": "_assetAmt",
          "type": "uint256"
        },
        {
          "internalType": "uint256",
          "name": "_lockTypeIndex",
          "type": "uint256"
        },
        {
          "internalType": "uint256",
          "name": "_slippage",
          "type": "uint256"
        }
      ],
      "name": "zapFromVesting",
      "outputs": [
        {
          "internalType": "uint256",
          "name": "",
          "type": "uint256"
        }
      ],
      "stateMutability": "payable",
      "type": "function"
    },
    {
      "inputs": [
        {
          "internalType": "bool",
          "name": "_borrow",
          "type": "bool"
        },
        {
          "internalType": "address",
          "name": "_asset",
          "type": "address"
        },
        {
          "internalType": "uint256",
          "name": "_assetAmt",
          "type": "uint256"
        },
        {
          "internalType": "uint256",
          "name": "_rdntAmt",
          "type": "uint256"
        },
        {
          "internalType": "address",
          "name": "_onBehalf",
          "type": "address"
        },
        {
          "internalType": "uint256",
          "name": "_slippage",
          "type": "uint256"
        }
      ],
      "name": "zapOnBehalf",
      "outputs": [
        {
          "internalType": "uint256",
          "name": "",
          "type": "uint256"
        }
      ],
      "stateMutability": "payable",
      "type": "function"
    },
    {
      "stateMutability": "payable",
      "type": "receive"
    }
  ],
  "bytecode": "0x608060405234801561001057600080fd5b50613a60806100206000396000f3fe60806040526004361061021d5760003560e01c8063738096251161011d578063b50bf85c116100b0578063eabcca101161007f578063f2fde38b11610064578063f2fde38b1461066c578063f97595181461068c578063f9dc1f87146106a257600080fd5b8063eabcca101461062c578063ee4e26871461064c57600080fd5b8063b50bf85c146105a1578063b559777a146105cc578063b888879e146105df578063c7d398d21461060c57600080fd5b80639506f05f116100ec5780639506f05f14610507578063a0e47bf61461051a578063a59a997314610547578063b0c634ee1461057457600080fd5b806373809625146104875780638456cb591461049a5780638da5cb5b146104af578063914237da146104da57600080fd5b80635c975abb116101b0578063667f37451161017f5780636a7e9f33116101645780636a7e9f33146104465780636ac3ac8f1461045c578063715018a61461047257600080fd5b8063667f37451461040657806367dbf15d1461042657600080fd5b80635c975abb14610373578063625045ad1461039657806362f3765e146103b65780636372b281146103d957600080fd5b80633f4ba83a116101ec5780633f4ba83a146102e45780633fc8cef3146102f9578063408e6fb81461032657806355ac8d301461034657600080fd5b8063228a1c67146102295780632cd354751461027a5780633583849a1461029c578063372aa224146102c457600080fd5b3661022457005b600080fd5b34801561023557600080fd5b5060d15473ffffffffffffffffffffffffffffffffffffffff165b60405173ffffffffffffffffffffffffffffffffffffffff90911681526020015b60405180910390f35b34801561028657600080fd5b5061029a6102953660046131a8565b6106b7565b005b3480156102a857600080fd5b506102b1600081565b60405161ffff9091168152602001610271565b3480156102d057600080fd5b5061029a6102df3660046131a8565b6107f9565b3480156102f057600080fd5b5061029a610936565b34801561030557600080fd5b5060c9546102509073ffffffffffffffffffffffffffffffffffffffff1681565b34801561033257600080fd5b5061029a6103413660046131cc565b6109c1565b34801561035257600080fd5b5060cd546102509073ffffffffffffffffffffffffffffffffffffffff1681565b34801561037f57600080fd5b5060975460ff166040519015158152602001610271565b3480156103a257600080fd5b5061029a6103b13660046131a8565b610a50565b3480156103c257600080fd5b506103cb606481565b604051908152602001610271565b3480156103e557600080fd5b5060cf546102509073ffffffffffffffffffffffffffffffffffffffff1681565b34801561041257600080fd5b506102506104213660046131a8565b610b65565b34801561043257600080fd5b5061029a6104413660046131a8565b610c0a565b34801561045257600080fd5b506103cb61271081565b34801561046857600080fd5b506103cb60d05481565b34801561047e57600080fd5b5061029a610d47565b6103cb610495366004613206565b610dd2565b3480156104a657600080fd5b5061029a610df8565b3480156104bb57600080fd5b5060655473ffffffffffffffffffffffffffffffffffffffff16610250565b3480156104e657600080fd5b5060ca546102509073ffffffffffffffffffffffffffffffffffffffff1681565b6103cb61051536600461325f565b610e81565b34801561052657600080fd5b5060d1546102509073ffffffffffffffffffffffffffffffffffffffff1681565b34801561055357600080fd5b5060cc546102509073ffffffffffffffffffffffffffffffffffffffff1681565b34801561058057600080fd5b5060cb546102509073ffffffffffffffffffffffffffffffffffffffff1681565b3480156105ad57600080fd5b5060cd5473ffffffffffffffffffffffffffffffffffffffff16610250565b6103cb6105da3660046132c6565b610f3f565b3480156105eb57600080fd5b5060ce546102509073ffffffffffffffffffffffffffffffffffffffff1681565b34801561061857600080fd5b506103cb6106273660046131cc565b611028565b34801561063857600080fd5b5061029a610647366004613317565b6111b1565b34801561065857600080fd5b5061029a6106673660046131a8565b611588565b34801561067857600080fd5b5061029a6106873660046131a8565b6116c5565b34801561069857600080fd5b506103cb61251c81565b3480156106ae57600080fd5b506103cb600281565b60655473ffffffffffffffffffffffffffffffffffffffff16331461073d576040517f08c379a000000000000000000000000000000000000000000000000000000000815260206004820181905260248201527f4f776e61626c653a2063616c6c6572206973206e6f7420746865206f776e657260448201526064015b60405180910390fd5b73ffffffffffffffffffffffffffffffffffffffff811661078a576040517f9fabe1c100000000000000000000000000000000000000000000000000000000815260040160405180910390fd5b60cd80547fffffffffffffffffffffffff00000000000000000000000000000000000000001673ffffffffffffffffffffffffffffffffffffffff83169081179091556040517fce3a680d01747abb9461a3d05f1da77c9cfb9a5b7a6cc1828c733dc52b15479790600090a250565b60655473ffffffffffffffffffffffffffffffffffffffff16331461087a576040517f08c379a000000000000000000000000000000000000000000000000000000000815260206004820181905260248201527f4f776e61626c653a2063616c6c6572206973206e6f7420746865206f776e65726044820152606401610734565b73ffffffffffffffffffffffffffffffffffffffff81166108c7576040517f9fabe1c100000000000000000000000000000000000000000000000000000000815260040160405180910390fd5b60ce80547fffffffffffffffffffffffff00000000000000000000000000000000000000001673ffffffffffffffffffffffffffffffffffffffff83169081179091556040517fb266add5f3044b17d27db796af992cecbe413921b4e8aaaee03c719e16b9806a90600090a250565b60655473ffffffffffffffffffffffffffffffffffffffff1633146109b7576040517f08c379a000000000000000000000000000000000000000000000000000000000815260206004820181905260248201527f4f776e61626c653a2063616c6c6572206973206e6f7420746865206f776e65726044820152606401610734565b6109bf6117f5565b565b60655473ffffffffffffffffffffffffffffffffffffffff163314610a42576040517f08c379a000000000000000000000000000000000000000000000000000000000815260206004820181905260248201527f4f776e61626c653a2063616c6c6572206973206e6f7420746865206f776e65726044820152606401610734565b610a4c8282611872565b5050565b60655473ffffffffffffffffffffffffffffffffffffffff163314610ad1576040517f08c379a000000000000000000000000000000000000000000000000000000000815260206004820181905260248201527f4f776e61626c653a2063616c6c6572206973206e6f7420746865206f776e65726044820152606401610734565b73ffffffffffffffffffffffffffffffffffffffff8116610b1e576040517f9fabe1c100000000000000000000000000000000000000000000000000000000815260040160405180910390fd5b60cf80547fffffffffffffffffffffffff00000000000000000000000000000000000000001673ffffffffffffffffffffffffffffffffffffffff92909216919091179055565b60cc546040517f35ea6a7500000000000000000000000000000000000000000000000000000000815273ffffffffffffffffffffffffffffffffffffffff838116600483015260009283929116906335ea6a759060240161018060405180830381865afa158015610bda573d6000803e3d6000fd5b505050506040513d601f19601f82011682018060405250810190610bfe91906134e4565b61012001519392505050565b60655473ffffffffffffffffffffffffffffffffffffffff163314610c8b576040517f08c379a000000000000000000000000000000000000000000000000000000000815260206004820181905260248201527f4f776e61626c653a2063616c6c6572206973206e6f7420746865206f776e65726044820152606401610734565b73ffffffffffffffffffffffffffffffffffffffff8116610cd8576040517f9fabe1c100000000000000000000000000000000000000000000000000000000815260040160405180910390fd5b60cb80547fffffffffffffffffffffffff00000000000000000000000000000000000000001673ffffffffffffffffffffffffffffffffffffffff83169081179091556040517fdee3317c3fa3792a879d5a8f63b6fcfa425fae71a9cccaba4ebaa7d279c99ce690600090a250565b60655473ffffffffffffffffffffffffffffffffffffffff163314610dc8576040517f08c379a000000000000000000000000000000000000000000000000000000000815260206004820181905260248201527f4f776e61626c653a2063616c6c6572206973206e6f7420746865206f776e65726044820152606401610734565b6109bf600061192b565b6000610ddc6119a2565b610ded87878787333389338a611a0f565b979650505050505050565b60655473ffffffffffffffffffffffffffffffffffffffff163314610e79576040517f08c379a000000000000000000000000000000000000000000000000000000000815260206004820181905260248201527f4f776e61626c653a2063616c6c6572206973206e6f7420746865206f776e65726044820152606401610734565b6109bf6122dd565b6000610e8b6119a2565b60cb546040517f2e88caa100000000000000000000000000000000000000000000000000000000815273ffffffffffffffffffffffffffffffffffffffff85811660048301526000921690632e88caa190602401602060405180830381865afa158015610efc573d6000803e3d6000fd5b505050506040513d601f19601f82011682018060405250810190610f2091906135d1565b9050610f33888888883389878b8b611a0f565b98975050505050505050565b6000610f496119a2565b82610f80576040517f1d18e2c100000000000000000000000000000000000000000000000000000000815260040160405180910390fd5b60cb546040517f2843b01900000000000000000000000000000000000000000000000000000000815233600482015260009173ffffffffffffffffffffffffffffffffffffffff1690632843b019906024016020604051808303816000875af1158015610ff1573d6000803e3d6000fd5b505050506040513d601f19601f8201168201806040525081019061101591906135d1565b9050610ded8787878430338a338b611a0f565b60c95460009073ffffffffffffffffffffffffffffffffffffffff90811690841681146111145760cd546040517ffd7060620000000000000000000000000000000000000000000000000000000081526004810185905260009173ffffffffffffffffffffffffffffffffffffffff169063fd70606290602401602060405180830381865afa1580156110bf573d6000803e3d6000fd5b505050506040513d601f19601f820116820180604052508101906110e391906135d1565b60d15490915061110b9073ffffffffffffffffffffffffffffffffffffffff16838784612338565b925050506111ab565b60cd546040517ffd7060620000000000000000000000000000000000000000000000000000000081526004810185905273ffffffffffffffffffffffffffffffffffffffff9091169063fd70606290602401602060405180830381865afa158015611183573d6000803e3d6000fd5b505050506040513d601f19601f820116820180604052508101906111a791906135d1565b9150505b92915050565b600054610100900460ff16806111c65750303b155b806111d4575060005460ff16155b611260576040517f08c379a000000000000000000000000000000000000000000000000000000000815260206004820152602e60248201527f436f6e747261637420696e7374616e63652068617320616c726561647920626560448201527f656e20696e697469616c697a65640000000000000000000000000000000000006064820152608401610734565b600054610100900460ff1615801561129f57600080547fffffffffffffffffffffffffffffffffffffffffffffffffffffffffffff0000166101011790555b73ffffffffffffffffffffffffffffffffffffffff88166112ec576040517f9fabe1c100000000000000000000000000000000000000000000000000000000815260040160405180910390fd5b73ffffffffffffffffffffffffffffffffffffffff8716611339576040517f9fabe1c100000000000000000000000000000000000000000000000000000000815260040160405180910390fd5b73ffffffffffffffffffffffffffffffffffffffff8616611386576040517f9fabe1c100000000000000000000000000000000000000000000000000000000815260040160405180910390fd5b73ffffffffffffffffffffffffffffffffffffffff85166113d3576040517f9fabe1c100000000000000000000000000000000000000000000000000000000815260040160405180910390fd5b73ffffffffffffffffffffffffffffffffffffffff8416611420576040517f9fabe1c100000000000000000000000000000000000000000000000000000000815260040160405180910390fd5b82158061142f57506127108310155b15611466576040517f648564d300000000000000000000000000000000000000000000000000000000815260040160405180910390fd5b73ffffffffffffffffffffffffffffffffffffffff82166114b3576040517f9fabe1c100000000000000000000000000000000000000000000000000000000815260040160405180910390fd5b6114bb6124ab565b6114c361254a565b60cc80547fffffffffffffffffffffffff000000000000000000000000000000000000000090811673ffffffffffffffffffffffffffffffffffffffff8981169190911790925560cd805482168b841617905560d1805482168a841617905560c98054821688841617905560ca8054821687841617905560d085905560cf8054909116918416919091179055801561157e57600080547fffffffffffffffffffffffffffffffffffffffffffffffffffffffffffff00ff1690555b5050505050505050565b60655473ffffffffffffffffffffffffffffffffffffffff163314611609576040517f08c379a000000000000000000000000000000000000000000000000000000000815260206004820181905260248201527f4f776e61626c653a2063616c6c6572206973206e6f7420746865206f776e65726044820152606401610734565b73ffffffffffffffffffffffffffffffffffffffff8116611656576040517f9fabe1c100000000000000000000000000000000000000000000000000000000815260040160405180910390fd5b60d180547fffffffffffffffffffffffff00000000000000000000000000000000000000001673ffffffffffffffffffffffffffffffffffffffff83169081179091556040517f7189a0ba279a96a44871ae8306133ff5ccdb353b75897c09c47e34610cac5fc290600090a250565b60655473ffffffffffffffffffffffffffffffffffffffff163314611746576040517f08c379a000000000000000000000000000000000000000000000000000000000815260206004820181905260248201527f4f776e61626c653a2063616c6c6572206973206e6f7420746865206f776e65726044820152606401610734565b73ffffffffffffffffffffffffffffffffffffffff81166117e9576040517f08c379a000000000000000000000000000000000000000000000000000000000815260206004820152602660248201527f4f776e61626c653a206e6577206f776e657220697320746865207a65726f206160448201527f64647265737300000000000000000000000000000000000000000000000000006064820152608401610734565b6117f28161192b565b50565b6117fd6125e9565b609780547fffffffffffffffffffffffffffffffffffffffffffffffffffffffffffffff001690557f5db9ee0a495bf2e6ff9c91a7834c1ba4fdd244a5e8aa4e537bd38aeae4b073aa335b60405173ffffffffffffffffffffffffffffffffffffffff909116815260200160405180910390a1565b6040805160008082526020820190925273ffffffffffffffffffffffffffffffffffffffff84169083906040516118a99190613616565b60006040518083038185875af1925050503d80600081146118e6576040519150601f19603f3d011682016040523d82523d6000602084013e6118eb565b606091505b5050905080611926576040517fb12d13eb00000000000000000000000000000000000000000000000000000000815260040160405180910390fd5b505050565b6065805473ffffffffffffffffffffffffffffffffffffffff8381167fffffffffffffffffffffffff0000000000000000000000000000000000000000831681179093556040519116919082907f8be0079c531659141344cd1fd0a4f28419497f9722a3daafe3b4186f6b6457e090600090a35050565b60975460ff16156109bf576040517f08c379a000000000000000000000000000000000000000000000000000000000815260206004820152601060248201527f5061757361626c653a20706175736564000000000000000000000000000000006044820152606401610734565b60c95460009073ffffffffffffffffffffffffffffffffffffffff908116908a16611a38578099505b82611a475761251c9250611a8f565b8261251c1180611a58575061271083115b15611a8f576040517fc82bafc900000000000000000000000000000000000000000000000000000000815260040160405180910390fd5b73ffffffffffffffffffffffffffffffffffffffff8a8116908216143415611b855780611ae8576040517f7fef56e900000000000000000000000000000000000000000000000000000000815260040160405180910390fd5b8b15611b20576040517fd3555def00000000000000000000000000000000000000000000000000000000815260040160405180910390fd5b3499508173ffffffffffffffffffffffffffffffffffffffff1663d0e30db08b6040518263ffffffff1660e01b81526004016000604051808303818588803b158015611b6b57600080fd5b505af1158015611b7f573d6000803e3d6000fd5b50505050505b89611bbc576040517fcbca5aa200000000000000000000000000000000000000000000000000000000815260040160405180910390fd5b60008b73ffffffffffffffffffffffffffffffffffffffff1663313ce5676040518163ffffffff1660e01b8152600401602060405180830381865afa158015611c09573d6000803e3d6000fd5b505050506040513d601f19601f82011682018060405250810190611c2d9190613632565b611c3890600a61379c565b60cf546040517fb3596f0700000000000000000000000000000000000000000000000000000000815273ffffffffffffffffffffffffffffffffffffffff8f811660048301529091169063b3596f0790602401602060405180830381865afa158015611ca8573d6000803e3d6000fd5b505050506040513d601f19601f82011682018060405250810190611ccc91906135d1565b611cd6908d6137ab565b611ce091906137e8565b90508c15611dba5760cc546040517fa415bcad00000000000000000000000000000000000000000000000000000000815273ffffffffffffffffffffffffffffffffffffffff8e81166004830152602482018e905260026044830152600060648301523360848301529091169063a415bcad9060a401600060405180830381600087803b158015611d7057600080fd5b505af1158015611d84573d6000803e3d6000fd5b5050505081611db55760d154611db29073ffffffffffffffffffffffffffffffffffffffff168d858e612655565b9a505b611e0e565b34611e0e57611de173ffffffffffffffffffffffffffffffffffffffff8d1633308e612786565b81611e0e5760d154611e0b9073ffffffffffffffffffffffffffffffffffffffff168d858e612655565b9a505b60cd546040517f095ea7b300000000000000000000000000000000000000000000000000000000815273ffffffffffffffffffffffffffffffffffffffff9182166004820152602481018d90529084169063095ea7b3906044016020604051808303816000875af1158015611e87573d6000803e3d6000fd5b505050506040513d601f19601f82011682018060405250810190611eab9190613823565b508915611fdd5773ffffffffffffffffffffffffffffffffffffffff89163014611ef45760ca54611ef49073ffffffffffffffffffffffffffffffffffffffff1633308d612786565b60cd5460ca54611f1e9173ffffffffffffffffffffffffffffffffffffffff91821691168c612868565b60cd546040517f753983d6000000000000000000000000000000000000000000000000000000008152600481018d9052602481018c905273ffffffffffffffffffffffffffffffffffffffff9091169063753983d6906044016020604051808303816000875af1158015611f96573d6000803e3d6000fd5b505050506040513d601f19601f82011682018060405250810190611fba91906135d1565b60d054909450611fcc612710836137ab565b611fd691906137e8565b9050612075565b60cd546040517fc829bfda000000000000000000000000000000000000000000000000000000008152600481018d905273ffffffffffffffffffffffffffffffffffffffff9091169063c829bfda906024016020604051808303816000875af115801561204e573d6000803e3d6000fd5b505050506040513d601f19601f8201168201806040525081019061207291906135d1565b93505b60ce5473ffffffffffffffffffffffffffffffffffffffff16156120d6578461209e8286612958565b10156120d6576040517f850c6f7600000000000000000000000000000000000000000000000000000000815260040160405180910390fd5b60cb5460cd54604080517f439e501600000000000000000000000000000000000000000000000000000000815290516121939373ffffffffffffffffffffffffffffffffffffffff90811693899391169163439e5016916004808201926020929091908290030181865afa158015612152573d6000803e3d6000fd5b505050506040513d601f19601f820116820180604052508101906121769190613840565b73ffffffffffffffffffffffffffffffffffffffff169190612868565b60cb546040517f6e9c931c0000000000000000000000000000000000000000000000000000000081526004810186905273ffffffffffffffffffffffffffffffffffffffff8a81166024830152604482018a905290911690636e9c931c90606401600060405180830381600087803b15801561220e57600080fd5b505af1158015612222573d6000803e3d6000fd5b505050508773ffffffffffffffffffffffffffffffffffffffff168973ffffffffffffffffffffffffffffffffffffffff167f185f471aee8e22c0f6772d9076b984cb8394859d474a9799c1421f440262d5818f8e8e8c6040516122a19493929190931515845260208401929092526040830152606082015260800190565b60405180910390a360ca546122cd9073ffffffffffffffffffffffffffffffffffffffff168d88612aa4565b5050509998505050505050505050565b6122e56119a2565b609780547fffffffffffffffffffffffffffffffffffffffffffffffffffffffffffffff001660011790557f62e78cea01bee320cd4e420270b5ea74000d11b0c9f74754ebdbfc544b05a2586118483390565b6040805160028082526060820183526000928392919060208301908036833701905050905084816000815181106123715761237161385d565b602002602001019073ffffffffffffffffffffffffffffffffffffffff16908173ffffffffffffffffffffffffffffffffffffffff168152505083816001815181106123bf576123bf61385d565b73ffffffffffffffffffffffffffffffffffffffff92831660209182029290920101526040517fd06ca61f0000000000000000000000000000000000000000000000000000000081529087169063d06ca61f9061242290869085906004016138dd565b600060405180830381865afa15801561243f573d6000803e3d6000fd5b505050506040513d6000823e601f3d9081017fffffffffffffffffffffffffffffffffffffffffffffffffffffffffffffffe016820160405261248591908101906138f6565b6001815181106124975761249761385d565b60200260200101519150505b949350505050565b600054610100900460ff16612542576040517f08c379a000000000000000000000000000000000000000000000000000000000815260206004820152602b60248201527f496e697469616c697a61626c653a20636f6e7472616374206973206e6f74206960448201527f6e697469616c697a696e670000000000000000000000000000000000000000006064820152608401610734565b6109bf612ca1565b600054610100900460ff166125e1576040517f08c379a000000000000000000000000000000000000000000000000000000000815260206004820152602b60248201527f496e697469616c697a61626c653a20636f6e7472616374206973206e6f74206960448201527f6e697469616c697a696e670000000000000000000000000000000000000000006064820152608401610734565b6109bf612d41565b60975460ff166109bf576040517f08c379a000000000000000000000000000000000000000000000000000000000815260206004820152601460248201527f5061757361626c653a206e6f74207061757365640000000000000000000000006044820152606401610734565b60408051600280825260608201835260009283929190602083019080368337019050509050848160008151811061268e5761268e61385d565b602002602001019073ffffffffffffffffffffffffffffffffffffffff16908173ffffffffffffffffffffffffffffffffffffffff168152505083816001815181106126dc576126dc61385d565b73ffffffffffffffffffffffffffffffffffffffff928316602091820292909201015261270c9086168785612868565b6040517f38ed173900000000000000000000000000000000000000000000000000000000815273ffffffffffffffffffffffffffffffffffffffff8716906338ed173990612767908690600090869030904290600401613990565b6000604051808303816000875af115801561243f573d6000803e3d6000fd5b60405173ffffffffffffffffffffffffffffffffffffffff808516602483015283166044820152606481018290526128629085907f23b872dd00000000000000000000000000000000000000000000000000000000906084015b604080517fffffffffffffffffffffffffffffffffffffffffffffffffffffffffffffffe08184030181529190526020810180517bffffffffffffffffffffffffffffffffffffffffffffffffffffffff167fffffffff0000000000000000000000000000000000000000000000000000000090931692909217909152612e02565b50505050565b6040805173ffffffffffffffffffffffffffffffffffffffff8416602482015260448082018490528251808303909101815260649091019091526020810180517bffffffffffffffffffffffffffffffffffffffffffffffffffffffff167f095ea7b3000000000000000000000000000000000000000000000000000000001790526128f48482612f11565b6128625760405173ffffffffffffffffffffffffffffffffffffffff841660248201526000604482015261294e9085907f095ea7b300000000000000000000000000000000000000000000000000000000906064016127e0565b6128628482612e02565b60ce54604080517fa2e62045000000000000000000000000000000000000000000000000000000008152905160009273ffffffffffffffffffffffffffffffffffffffff169163a2e62045916004808301928692919082900301818387803b1580156129c357600080fd5b505af11580156129d7573d6000803e3d6000fd5b505050506000670de0b6b3a764000060ce60009054906101000a900473ffffffffffffffffffffffffffffffffffffffff1673ffffffffffffffffffffffffffffffffffffffff16636e9a05c56040518163ffffffff1660e01b8152600401602060405180830381865afa158015612a53573d6000803e3d6000fd5b505050506040513d601f19601f82011682018060405250810190612a7791906135d1565b612a8190856137ab565b612a8b91906137e8565b905083612a9a612710836137ab565b6111a791906137e8565b6040517f70a082310000000000000000000000000000000000000000000000000000000081523060048201528390839060009073ffffffffffffffffffffffffffffffffffffffff8316906370a08231906024016020604051808303816000875af1158015612b17573d6000803e3d6000fd5b505050506040513d601f19601f82011682018060405250810190612b3b91906135d1565b90508015612bde576040517fa9059cbb00000000000000000000000000000000000000000000000000000000815273ffffffffffffffffffffffffffffffffffffffff85811660048301526024820183905283169063a9059cbb906044016020604051808303816000875af1158015612bb8573d6000803e3d6000fd5b505050506040513d601f19601f82011682018060405250810190612bdc9190613823565b505b6040517f70a0823100000000000000000000000000000000000000000000000000000000815230600482015260009073ffffffffffffffffffffffffffffffffffffffff8516906370a0823190602401602060405180830381865afa158015612c4b573d6000803e3d6000fd5b505050506040513d601f19601f82011682018060405250810190612c6f91906135d1565b90508015612c9857612c9873ffffffffffffffffffffffffffffffffffffffff85168683612fd2565b50505050505050565b600054610100900460ff16612d38576040517f08c379a000000000000000000000000000000000000000000000000000000000815260206004820152602b60248201527f496e697469616c697a61626c653a20636f6e7472616374206973206e6f74206960448201527f6e697469616c697a696e670000000000000000000000000000000000000000006064820152608401610734565b6109bf3361192b565b600054610100900460ff16612dd8576040517f08c379a000000000000000000000000000000000000000000000000000000000815260206004820152602b60248201527f496e697469616c697a61626c653a20636f6e7472616374206973206e6f74206960448201527f6e697469616c697a696e670000000000000000000000000000000000000000006064820152608401610734565b609780547fffffffffffffffffffffffffffffffffffffffffffffffffffffffffffffff00169055565b6000612e64826040518060400160405280602081526020017f5361666545524332303a206c6f772d6c6576656c2063616c6c206661696c65648152508573ffffffffffffffffffffffffffffffffffffffff166130289092919063ffffffff16565b9050805160001480612e85575080806020019051810190612e859190613823565b611926576040517f08c379a000000000000000000000000000000000000000000000000000000000815260206004820152602a60248201527f5361666545524332303a204552433230206f7065726174696f6e20646964206e60448201527f6f742073756363656564000000000000000000000000000000000000000000006064820152608401610734565b60008060008473ffffffffffffffffffffffffffffffffffffffff1684604051612f3b9190613616565b6000604051808303816000865af19150503d8060008114612f78576040519150601f19603f3d011682016040523d82523d6000602084013e612f7d565b606091505b5091509150818015612fa7575080511580612fa7575080806020019051810190612fa79190613823565b8015612fc9575073ffffffffffffffffffffffffffffffffffffffff85163b15155b95945050505050565b60405173ffffffffffffffffffffffffffffffffffffffff83166024820152604481018290526119269084907fa9059cbb00000000000000000000000000000000000000000000000000000000906064016127e0565b60606124a38484600085856000808673ffffffffffffffffffffffffffffffffffffffff16858760405161305c9190613616565b60006040518083038185875af1925050503d8060008114613099576040519150601f19603f3d011682016040523d82523d6000602084013e61309e565b606091505b5091509150610ded878383876060831561313d5782516131365773ffffffffffffffffffffffffffffffffffffffff85163b613136576040517f08c379a000000000000000000000000000000000000000000000000000000000815260206004820152601d60248201527f416464726573733a2063616c6c20746f206e6f6e2d636f6e74726163740000006044820152606401610734565b50816124a3565b6124a383838151156131525781518083602001fd5b806040517f08c379a000000000000000000000000000000000000000000000000000000000815260040161073491906139d9565b73ffffffffffffffffffffffffffffffffffffffff811681146117f257600080fd5b6000602082840312156131ba57600080fd5b81356131c581613186565b9392505050565b600080604083850312156131df57600080fd5b82356131ea81613186565b946020939093013593505050565b80151581146117f257600080fd5b60008060008060008060c0878903121561321f57600080fd5b863561322a816131f8565b9550602087013561323a81613186565b95989597505050506040840135936060810135936080820135935060a0909101359150565b60008060008060008060c0878903121561327857600080fd5b8635613283816131f8565b9550602087013561329381613186565b9450604087013593506060870135925060808701356132b181613186565b8092505060a087013590509295509295509295565b600080600080600060a086880312156132de57600080fd5b85356132e9816131f8565b945060208601356132f981613186565b94979496505050506040830135926060810135926080909101359150565b600080600080600080600060e0888a03121561333257600080fd5b873561333d81613186565b9650602088013561334d81613186565b9550604088013561335d81613186565b9450606088013561336d81613186565b9350608088013561337d81613186565b925060a0880135915060c088013561339481613186565b8091505092959891949750929550565b7f4e487b7100000000000000000000000000000000000000000000000000000000600052604160045260246000fd5b604051610180810167ffffffffffffffff811182821017156133f7576133f76133a4565b60405290565b604051601f82017fffffffffffffffffffffffffffffffffffffffffffffffffffffffffffffffe016810167ffffffffffffffff81118282101715613444576134446133a4565b604052919050565b60006020828403121561345e57600080fd5b6040516020810181811067ffffffffffffffff82111715613481576134816133a4565b6040529151825250919050565b80516fffffffffffffffffffffffffffffffff811681146134ae57600080fd5b919050565b805164ffffffffff811681146134ae57600080fd5b80516134ae81613186565b805160ff811681146134ae57600080fd5b600061018082840312156134f757600080fd5b6134ff6133d3565b613509848461344c565b81526135176020840161348e565b60208201526135286040840161348e565b60408201526135396060840161348e565b606082015261354a6080840161348e565b608082015261355b60a0840161348e565b60a082015261356c60c084016134b3565b60c082015261357d60e084016134c8565b60e08201526101006135908185016134c8565b908201526101206135a28482016134c8565b908201526101406135b48482016134c8565b908201526101606135c68482016134d3565b908201529392505050565b6000602082840312156135e357600080fd5b5051919050565b60005b838110156136055781810151838201526020016135ed565b838111156128625750506000910152565b600082516136288184602087016135ea565b9190910192915050565b60006020828403121561364457600080fd5b6131c5826134d3565b7f4e487b7100000000000000000000000000000000000000000000000000000000600052601160045260246000fd5b600181815b808511156136d557817fffffffffffffffffffffffffffffffffffffffffffffffffffffffffffffffff048211156136bb576136bb61364d565b808516156136c857918102915b93841c9390800290613681565b509250929050565b6000826136ec575060016111ab565b816136f9575060006111ab565b816001811461370f576002811461371957613735565b60019150506111ab565b60ff84111561372a5761372a61364d565b50506001821b6111ab565b5060208310610133831016604e8410600b8410161715613758575081810a6111ab565b613762838361367c565b807fffffffffffffffffffffffffffffffffffffffffffffffffffffffffffffffff048211156137945761379461364d565b029392505050565b60006131c560ff8416836136dd565b6000817fffffffffffffffffffffffffffffffffffffffffffffffffffffffffffffffff04831182151516156137e3576137e361364d565b500290565b60008261381e577f4e487b7100000000000000000000000000000000000000000000000000000000600052601260045260246000fd5b500490565b60006020828403121561383557600080fd5b81516131c5816131f8565b60006020828403121561385257600080fd5b81516131c581613186565b7f4e487b7100000000000000000000000000000000000000000000000000000000600052603260045260246000fd5b600081518084526020808501945080840160005b838110156138d257815173ffffffffffffffffffffffffffffffffffffffff16875295820195908201906001016138a0565b509495945050505050565b8281526040602082015260006124a3604083018461388c565b6000602080838503121561390957600080fd5b825167ffffffffffffffff8082111561392157600080fd5b818501915085601f83011261393557600080fd5b815181811115613947576139476133a4565b8060051b91506139588483016133fd565b818152918301840191848101908884111561397257600080fd5b938501935b83851015610f3357845182529385019390850190613977565b85815284602082015260a0604082015260006139af60a083018661388c565b73ffffffffffffffffffffffffffffffffffffffff94909416606083015250608001529392505050565b60208152600082518060208401526139f88160408501602087016135ea565b601f017fffffffffffffffffffffffffffffffffffffffffffffffffffffffffffffffe016919091016040019291505056fea2646970667358221220256e0c1a27b9c58084bab35674de41bb4bbd1f0ef2daba47a1e587ece993d8f164736f6c634300080c0033",
  "linkReferences": {},
  "deployedLinkReferences": {}
}