{
  "_format": "hh-sol-artifact-1",
  "contractName": "LockZap",
  "sourceName": "contracts/radiant/zap/LockZap.sol",
  "abi": [
    {
      "inputs": [],
      "stateMutability": "nonpayable",
      "type": "constructor"
    },
    {
      "inputs": [],
      "name": "AddressZero",
      "type": "error"
    },
    {
      "inputs": [],
      "name": "AmountZero",
      "type": "error"
    },
    {
      "inputs": [],
      "name": "ETHTransferFailed",
      "type": "error"
    },
    {
      "inputs": [],
      "name": "EthTransferFailed",
      "type": "error"
    },
    {
      "inputs": [],
      "name": "InsufficientETH",
      "type": "error"
    },
    {
      "inputs": [],
      "name": "InvalidLockLength",
      "type": "error"
    },
    {
      "inputs": [],
      "name": "InvalidRatio",
      "type": "error"
    },
    {
      "inputs": [],
      "name": "InvalidZapETHSource",
      "type": "error"
    },
    {
      "inputs": [],
      "name": "ReceivedETHOnAlternativeAssetZap",
      "type": "error"
    },
    {
      "inputs": [],
      "name": "SlippageTooHigh",
      "type": "error"
    },
    {
      "inputs": [],
      "name": "SpecifiedSlippageExceedLimit",
      "type": "error"
    },
    {
      "anonymous": false,
      "inputs": [
        {
          "indexed": false,
          "internalType": "uint8",
          "name": "version",
          "type": "uint8"
        }
      ],
      "name": "Initialized",
      "type": "event"
    },
    {
      "anonymous": false,
      "inputs": [
        {
          "indexed": true,
          "internalType": "address",
          "name": "_mfdAddr",
          "type": "address"
        }
      ],
      "name": "MfdUpdated",
      "type": "event"
    },
    {
      "anonymous": false,
      "inputs": [
        {
          "indexed": true,
          "internalType": "address",
          "name": "previousOwner",
          "type": "address"
        },
        {
          "indexed": true,
          "internalType": "address",
          "name": "newOwner",
          "type": "address"
        }
      ],
      "name": "OwnershipTransferred",
      "type": "event"
    },
    {
      "anonymous": false,
      "inputs": [
        {
          "indexed": false,
          "internalType": "address",
          "name": "account",
          "type": "address"
        }
      ],
      "name": "Paused",
      "type": "event"
    },
    {
      "anonymous": false,
      "inputs": [
        {
          "indexed": true,
          "internalType": "address",
          "name": "_poolHelper",
          "type": "address"
        }
      ],
      "name": "PoolHelperUpdated",
      "type": "event"
    },
    {
      "anonymous": false,
      "inputs": [
        {
          "indexed": true,
          "internalType": "address",
          "name": "_provider",
          "type": "address"
        }
      ],
      "name": "PriceProviderUpdated",
      "type": "event"
    },
    {
      "anonymous": false,
      "inputs": [
        {
          "indexed": true,
          "internalType": "address",
          "name": "_uniRouter",
          "type": "address"
        }
      ],
      "name": "UniRouterUpdated",
      "type": "event"
    },
    {
      "anonymous": false,
      "inputs": [
        {
          "indexed": false,
          "internalType": "address",
          "name": "account",
          "type": "address"
        }
      ],
      "name": "Unpaused",
      "type": "event"
    },
    {
      "anonymous": false,
      "inputs": [
        {
          "indexed": false,
          "internalType": "bool",
          "name": "_borrow",
          "type": "bool"
        },
        {
          "indexed": false,
          "internalType": "uint256",
          "name": "_ethAmt",
          "type": "uint256"
        },
        {
          "indexed": false,
          "internalType": "uint256",
          "name": "_rdntAmt",
          "type": "uint256"
        },
        {
          "indexed": true,
          "internalType": "address",
          "name": "_from",
          "type": "address"
        },
        {
          "indexed": true,
          "internalType": "address",
          "name": "_onBehalf",
          "type": "address"
        },
        {
          "indexed": false,
          "internalType": "uint256",
          "name": "_lockTypeIndex",
          "type": "uint256"
        }
      ],
      "name": "Zapped",
      "type": "event"
    },
    {
      "inputs": [],
      "name": "BASE_PERCENT",
      "outputs": [
        {
          "internalType": "uint256",
          "name": "",
          "type": "uint256"
        }
      ],
      "stateMutability": "view",
      "type": "function"
    },
    {
      "inputs": [],
      "name": "MAX_SLIPPAGE",
      "outputs": [
        {
          "internalType": "uint256",
          "name": "",
          "type": "uint256"
        }
      ],
      "stateMutability": "view",
      "type": "function"
    },
    {
      "inputs": [],
      "name": "RATIO_DIVISOR",
      "outputs": [
        {
          "internalType": "uint256",
          "name": "",
          "type": "uint256"
        }
      ],
      "stateMutability": "view",
      "type": "function"
    },
    {
      "inputs": [],
      "name": "REFERRAL_CODE",
      "outputs": [
        {
          "internalType": "uint16",
          "name": "",
          "type": "uint16"
        }
      ],
      "stateMutability": "view",
      "type": "function"
    },
    {
      "inputs": [],
      "name": "VARIABLE_INTEREST_RATE_MODE",
      "outputs": [
        {
          "internalType": "uint256",
          "name": "",
          "type": "uint256"
        }
      ],
      "stateMutability": "view",
      "type": "function"
    },
    {
      "inputs": [],
      "name": "aaveOracle",
      "outputs": [
        {
          "internalType": "contract IAaveOracle",
          "name": "",
          "type": "address"
        }
      ],
      "stateMutability": "view",
      "type": "function"
    },
    {
      "inputs": [],
      "name": "ethLPRatio",
      "outputs": [
        {
          "internalType": "uint256",
          "name": "",
          "type": "uint256"
        }
      ],
      "stateMutability": "view",
      "type": "function"
    },
    {
      "inputs": [],
      "name": "getPoolHelper",
      "outputs": [
        {
          "internalType": "address",
          "name": "",
          "type": "address"
        }
      ],
      "stateMutability": "view",
      "type": "function"
    },
    {
      "inputs": [],
      "name": "getUniRouter",
      "outputs": [
        {
          "internalType": "address",
          "name": "",
          "type": "address"
        }
      ],
      "stateMutability": "view",
      "type": "function"
    },
    {
      "inputs": [
        {
          "internalType": "address",
          "name": "_asset",
          "type": "address"
        }
      ],
      "name": "getVDebtToken",
      "outputs": [
        {
          "internalType": "address",
          "name": "",
          "type": "address"
        }
      ],
      "stateMutability": "view",
      "type": "function"
    },
    {
      "inputs": [
        {
          "internalType": "contract IPoolHelper",
          "name": "_rndtPoolHelper",
          "type": "address"
        },
        {
          "internalType": "address",
          "name": "_uniRouter",
          "type": "address"
        },
        {
          "internalType": "contract ILendingPool",
          "name": "_lendingPool",
          "type": "address"
        },
        {
          "internalType": "contract IWETH",
          "name": "_weth",
          "type": "address"
        },
        {
          "internalType": "address",
          "name": "_rdntAddr",
          "type": "address"
        },
        {
          "internalType": "uint256",
          "name": "_ethLPRatio",
          "type": "uint256"
        },
        {
          "internalType": "contract IAaveOracle",
          "name": "_aaveOracle",
          "type": "address"
        }
      ],
      "name": "initialize",
      "outputs": [],
      "stateMutability": "nonpayable",
      "type": "function"
    },
    {
      "inputs": [],
      "name": "lendingPool",
      "outputs": [
        {
          "internalType": "contract ILendingPool",
          "name": "",
          "type": "address"
        }
      ],
      "stateMutability": "view",
      "type": "function"
    },
    {
      "inputs": [],
      "name": "mfd",
      "outputs": [
        {
          "internalType": "contract IMultiFeeDistribution",
          "name": "",
          "type": "address"
        }
      ],
      "stateMutability": "view",
      "type": "function"
    },
    {
      "inputs": [],
      "name": "owner",
      "outputs": [
        {
          "internalType": "address",
          "name": "",
          "type": "address"
        }
      ],
      "stateMutability": "view",
      "type": "function"
    },
    {
      "inputs": [],
      "name": "pause",
      "outputs": [],
      "stateMutability": "nonpayable",
      "type": "function"
    },
    {
      "inputs": [],
      "name": "paused",
      "outputs": [
        {
          "internalType": "bool",
          "name": "",
          "type": "bool"
        }
      ],
      "stateMutability": "view",
      "type": "function"
    },
    {
      "inputs": [],
      "name": "poolHelper",
      "outputs": [
        {
          "internalType": "contract IPoolHelper",
          "name": "",
          "type": "address"
        }
      ],
      "stateMutability": "view",
      "type": "function"
    },
    {
      "inputs": [],
      "name": "priceProvider",
      "outputs": [
        {
          "internalType": "contract IPriceProvider",
          "name": "",
          "type": "address"
        }
      ],
      "stateMutability": "view",
      "type": "function"
    },
    {
      "inputs": [
        {
          "internalType": "address",
          "name": "_token",
          "type": "address"
        },
        {
          "internalType": "uint256",
          "name": "_amount",
          "type": "uint256"
        }
      ],
      "name": "quoteFromToken",
      "outputs": [
        {
          "internalType": "uint256",
          "name": "",
          "type": "uint256"
        }
      ],
      "stateMutability": "view",
      "type": "function"
    },
    {
      "inputs": [],
      "name": "rdntAddr",
      "outputs": [
        {
          "internalType": "address",
          "name": "",
          "type": "address"
        }
      ],
      "stateMutability": "view",
      "type": "function"
    },
    {
      "inputs": [],
      "name": "renounceOwnership",
      "outputs": [],
      "stateMutability": "nonpayable",
      "type": "function"
    },
    {
      "inputs": [
        {
          "internalType": "address",
          "name": "_aaveOracle",
          "type": "address"
        }
      ],
      "name": "setAaveOracle",
      "outputs": [],
      "stateMutability": "nonpayable",
      "type": "function"
    },
    {
      "inputs": [
        {
          "internalType": "address",
          "name": "_mfdAddr",
          "type": "address"
        }
      ],
      "name": "setMfd",
      "outputs": [],
      "stateMutability": "nonpayable",
      "type": "function"
    },
    {
      "inputs": [
        {
          "internalType": "address",
          "name": "_poolHelper",
          "type": "address"
        }
      ],
      "name": "setPoolHelper",
      "outputs": [],
      "stateMutability": "nonpayable",
      "type": "function"
    },
    {
      "inputs": [
        {
          "internalType": "address",
          "name": "_provider",
          "type": "address"
        }
      ],
      "name": "setPriceProvider",
      "outputs": [],
      "stateMutability": "nonpayable",
      "type": "function"
    },
    {
      "inputs": [
        {
          "internalType": "address",
          "name": "_uniRouter",
          "type": "address"
        }
      ],
      "name": "setUniRouter",
      "outputs": [],
      "stateMutability": "nonpayable",
      "type": "function"
    },
    {
      "inputs": [
        {
          "internalType": "address",
          "name": "newOwner",
          "type": "address"
        }
      ],
      "name": "transferOwnership",
      "outputs": [],
      "stateMutability": "nonpayable",
      "type": "function"
    },
    {
      "inputs": [],
      "name": "uniRouter",
      "outputs": [
        {
          "internalType": "address",
          "name": "",
          "type": "address"
        }
      ],
      "stateMutability": "view",
      "type": "function"
    },
    {
      "inputs": [],
      "name": "unpause",
      "outputs": [],
      "stateMutability": "nonpayable",
      "type": "function"
    },
    {
      "inputs": [],
      "name": "weth",
      "outputs": [
        {
          "internalType": "contract IWETH",
          "name": "",
          "type": "address"
        }
      ],
      "stateMutability": "view",
      "type": "function"
    },
    {
      "inputs": [
        {
          "internalType": "address",
          "name": "to",
          "type": "address"
        },
        {
          "internalType": "uint256",
          "name": "value",
          "type": "uint256"
        }
      ],
      "name": "withdrawLockedETH",
      "outputs": [],
      "stateMutability": "nonpayable",
      "type": "function"
    },
    {
      "inputs": [
        {
          "internalType": "bool",
          "name": "_borrow",
          "type": "bool"
        },
        {
          "internalType": "address",
          "name": "_asset",
          "type": "address"
        },
        {
          "internalType": "uint256",
          "name": "_assetAmt",
          "type": "uint256"
        },
        {
          "internalType": "uint256",
          "name": "_rdntAmt",
          "type": "uint256"
        },
        {
          "internalType": "uint256",
          "name": "_lockTypeIndex",
          "type": "uint256"
        },
        {
          "internalType": "uint256",
          "name": "_slippage",
          "type": "uint256"
        }
      ],
      "name": "zap",
      "outputs": [
        {
          "internalType": "uint256",
          "name": "",
          "type": "uint256"
        }
      ],
      "stateMutability": "payable",
      "type": "function"
    },
    {
      "inputs": [
        {
          "internalType": "bool",
          "name": "_borrow",
          "type": "bool"
        },
        {
          "internalType": "address",
          "name": "_asset",
          "type": "address"
        },
        {
          "internalType": "uint256",
          "name": "_assetAmt",
          "type": "uint256"
        },
        {
          "internalType": "uint256",
          "name": "_lockTypeIndex",
          "type": "uint256"
        },
        {
          "internalType": "uint256",
          "name": "_slippage",
          "type": "uint256"
        }
      ],
      "name": "zapFromVesting",
      "outputs": [
        {
          "internalType": "uint256",
          "name": "",
          "type": "uint256"
        }
      ],
      "stateMutability": "payable",
      "type": "function"
    },
    {
      "inputs": [
        {
          "internalType": "bool",
          "name": "_borrow",
          "type": "bool"
        },
        {
          "internalType": "address",
          "name": "_asset",
          "type": "address"
        },
        {
          "internalType": "uint256",
          "name": "_assetAmt",
          "type": "uint256"
        },
        {
          "internalType": "uint256",
          "name": "_rdntAmt",
          "type": "uint256"
        },
        {
          "internalType": "address",
          "name": "_onBehalf",
          "type": "address"
        },
        {
          "internalType": "uint256",
          "name": "_slippage",
          "type": "uint256"
        }
      ],
      "name": "zapOnBehalf",
      "outputs": [
        {
          "internalType": "uint256",
          "name": "",
          "type": "uint256"
        }
      ],
      "stateMutability": "payable",
      "type": "function"
    },
    {
      "stateMutability": "payable",
      "type": "receive"
    }
  ],
  "bytecode": "0x60806040523480156200001157600080fd5b506200001c62000022565b620000e3565b600054610100900460ff16156200008f5760405162461bcd60e51b815260206004820152602760248201527f496e697469616c697a61626c653a20636f6e747261637420697320696e697469604482015266616c697a696e6760c81b606482015260840160405180910390fd5b60005460ff90811614620000e1576000805460ff191660ff9081179091556040519081527f7f26b83ff96e1f2b6a682f133852f6798a09c465da95921460cefb38474024989060200160405180910390a15b565b6137b580620000f36000396000f3fe60806040526004361061021d5760003560e01c8063738096251161011d578063b50bf85c116100b0578063eabcca101161007f578063f2fde38b11610064578063f2fde38b1461066c578063f97595181461068c578063f9dc1f87146106a257600080fd5b8063eabcca101461062c578063ee4e26871461064c57600080fd5b8063b50bf85c146105a1578063b559777a146105cc578063b888879e146105df578063c7d398d21461060c57600080fd5b80639506f05f116100ec5780639506f05f14610507578063a0e47bf61461051a578063a59a997314610547578063b0c634ee1461057457600080fd5b806373809625146104875780638456cb591461049a5780638da5cb5b146104af578063914237da146104da57600080fd5b80635c975abb116101b0578063667f37451161017f5780636a7e9f33116101645780636a7e9f33146104465780636ac3ac8f1461045c578063715018a61461047257600080fd5b8063667f37451461040657806367dbf15d1461042657600080fd5b80635c975abb14610373578063625045ad1461039657806362f3765e146103b65780636372b281146103d957600080fd5b80633f4ba83a116101ec5780633f4ba83a146102e45780633fc8cef3146102f9578063408e6fb81461032657806355ac8d301461034657600080fd5b8063228a1c67146102295780632cd354751461027a5780633583849a1461029c578063372aa224146102c457600080fd5b3661022457005b600080fd5b34801561023557600080fd5b50609f5473ffffffffffffffffffffffffffffffffffffffff165b60405173ffffffffffffffffffffffffffffffffffffffff90911681526020015b60405180910390f35b34801561028657600080fd5b5061029a610295366004612efd565b6106b7565b005b3480156102a857600080fd5b506102b1600081565b60405161ffff9091168152602001610271565b3480156102d057600080fd5b5061029a6102df366004612efd565b61077b565b3480156102f057600080fd5b5061029a61083f565b34801561030557600080fd5b506097546102509073ffffffffffffffffffffffffffffffffffffffff1681565b34801561033257600080fd5b5061029a610341366004612f21565b610851565b34801561035257600080fd5b50609b546102509073ffffffffffffffffffffffffffffffffffffffff1681565b34801561037f57600080fd5b5060655460ff166040519015158152602001610271565b3480156103a257600080fd5b5061029a6103b1366004612efd565b610867565b3480156103c257600080fd5b506103cb606481565b604051908152602001610271565b3480156103e557600080fd5b50609d546102509073ffffffffffffffffffffffffffffffffffffffff1681565b34801561041257600080fd5b50610250610421366004612efd565b610903565b34801561043257600080fd5b5061029a610441366004612efd565b6109a8565b34801561045257600080fd5b506103cb61271081565b34801561046857600080fd5b506103cb609e5481565b34801561047e57600080fd5b5061029a610a6c565b6103cb610495366004612f5b565b610a7e565b3480156104a657600080fd5b5061029a610aa4565b3480156104bb57600080fd5b5060335473ffffffffffffffffffffffffffffffffffffffff16610250565b3480156104e657600080fd5b506098546102509073ffffffffffffffffffffffffffffffffffffffff1681565b6103cb610515366004612fb4565b610ab4565b34801561052657600080fd5b50609f546102509073ffffffffffffffffffffffffffffffffffffffff1681565b34801561055357600080fd5b50609a546102509073ffffffffffffffffffffffffffffffffffffffff1681565b34801561058057600080fd5b506099546102509073ffffffffffffffffffffffffffffffffffffffff1681565b3480156105ad57600080fd5b50609b5473ffffffffffffffffffffffffffffffffffffffff16610250565b6103cb6105da36600461301b565b610b72565b3480156105eb57600080fd5b50609c546102509073ffffffffffffffffffffffffffffffffffffffff1681565b34801561061857600080fd5b506103cb610627366004612f21565b610c5b565b34801561063857600080fd5b5061029a61064736600461306c565b610de4565b34801561065857600080fd5b5061029a610667366004612efd565b61122a565b34801561067857600080fd5b5061029a610687366004612efd565b6112ee565b34801561069857600080fd5b506103cb61232881565b3480156106ae57600080fd5b506103cb600281565b6106bf6113a5565b73ffffffffffffffffffffffffffffffffffffffff811661070c576040517f9fabe1c100000000000000000000000000000000000000000000000000000000815260040160405180910390fd5b609b80547fffffffffffffffffffffffff00000000000000000000000000000000000000001673ffffffffffffffffffffffffffffffffffffffff83169081179091556040517fce3a680d01747abb9461a3d05f1da77c9cfb9a5b7a6cc1828c733dc52b15479790600090a250565b6107836113a5565b73ffffffffffffffffffffffffffffffffffffffff81166107d0576040517f9fabe1c100000000000000000000000000000000000000000000000000000000815260040160405180910390fd5b609c80547fffffffffffffffffffffffff00000000000000000000000000000000000000001673ffffffffffffffffffffffffffffffffffffffff83169081179091556040517fb266add5f3044b17d27db796af992cecbe413921b4e8aaaee03c719e16b9806a90600090a250565b6108476113a5565b61084f611426565b565b6108596113a5565b61086382826114a3565b5050565b61086f6113a5565b73ffffffffffffffffffffffffffffffffffffffff81166108bc576040517f9fabe1c100000000000000000000000000000000000000000000000000000000815260040160405180910390fd5b609d80547fffffffffffffffffffffffff00000000000000000000000000000000000000001673ffffffffffffffffffffffffffffffffffffffff92909216919091179055565b609a546040517f35ea6a7500000000000000000000000000000000000000000000000000000000815273ffffffffffffffffffffffffffffffffffffffff838116600483015260009283929116906335ea6a759060240161018060405180830381865afa158015610978573d6000803e3d6000fd5b505050506040513d601f19601f8201168201806040525081019061099c9190613239565b61012001519392505050565b6109b06113a5565b73ffffffffffffffffffffffffffffffffffffffff81166109fd576040517f9fabe1c100000000000000000000000000000000000000000000000000000000815260040160405180910390fd5b609980547fffffffffffffffffffffffff00000000000000000000000000000000000000001673ffffffffffffffffffffffffffffffffffffffff83169081179091556040517fdee3317c3fa3792a879d5a8f63b6fcfa425fae71a9cccaba4ebaa7d279c99ce690600090a250565b610a746113a5565b61084f600061155c565b6000610a886115d3565b610a9987878787333389338a611640565b979650505050505050565b610aac6113a5565b61084f611fda565b6000610abe6115d3565b6099546040517f2e88caa100000000000000000000000000000000000000000000000000000000815273ffffffffffffffffffffffffffffffffffffffff85811660048301526000921690632e88caa190602401602060405180830381865afa158015610b2f573d6000803e3d6000fd5b505050506040513d601f19601f82011682018060405250810190610b539190613326565b9050610b66888888883389878b8b611640565b98975050505050505050565b6000610b7c6115d3565b82610bb3576040517f1d18e2c100000000000000000000000000000000000000000000000000000000815260040160405180910390fd5b6099546040517f2843b01900000000000000000000000000000000000000000000000000000000815233600482015260009173ffffffffffffffffffffffffffffffffffffffff1690632843b019906024016020604051808303816000875af1158015610c24573d6000803e3d6000fd5b505050506040513d601f19601f82011682018060405250810190610c489190613326565b9050610a998787878430338a338b611640565b60975460009073ffffffffffffffffffffffffffffffffffffffff9081169084168114610d4757609b546040517ffd7060620000000000000000000000000000000000000000000000000000000081526004810185905260009173ffffffffffffffffffffffffffffffffffffffff169063fd70606290602401602060405180830381865afa158015610cf2573d6000803e3d6000fd5b505050506040513d601f19601f82011682018060405250810190610d169190613326565b609f54909150610d3e9073ffffffffffffffffffffffffffffffffffffffff16868484612035565b92505050610dde565b609b546040517ffd7060620000000000000000000000000000000000000000000000000000000081526004810185905273ffffffffffffffffffffffffffffffffffffffff9091169063fd70606290602401602060405180830381865afa158015610db6573d6000803e3d6000fd5b505050506040513d601f19601f82011682018060405250810190610dda9190613326565b9150505b92915050565b600054610100900460ff1615808015610e045750600054600160ff909116105b80610e1e5750303b158015610e1e575060005460ff166001145b610eaf576040517f08c379a000000000000000000000000000000000000000000000000000000000815260206004820152602e60248201527f496e697469616c697a61626c653a20636f6e747261637420697320616c72656160448201527f647920696e697469616c697a656400000000000000000000000000000000000060648201526084015b60405180910390fd5b600080547fffffffffffffffffffffffffffffffffffffffffffffffffffffffffffffff001660011790558015610f0d57600080547fffffffffffffffffffffffffffffffffffffffffffffffffffffffffffff00ff166101001790555b73ffffffffffffffffffffffffffffffffffffffff8816610f5a576040517f9fabe1c100000000000000000000000000000000000000000000000000000000815260040160405180910390fd5b73ffffffffffffffffffffffffffffffffffffffff8716610fa7576040517f9fabe1c100000000000000000000000000000000000000000000000000000000815260040160405180910390fd5b73ffffffffffffffffffffffffffffffffffffffff8616610ff4576040517f9fabe1c100000000000000000000000000000000000000000000000000000000815260040160405180910390fd5b73ffffffffffffffffffffffffffffffffffffffff8516611041576040517f9fabe1c100000000000000000000000000000000000000000000000000000000815260040160405180910390fd5b73ffffffffffffffffffffffffffffffffffffffff841661108e576040517f9fabe1c100000000000000000000000000000000000000000000000000000000815260040160405180910390fd5b82158061109d57506127108310155b156110d4576040517f648564d300000000000000000000000000000000000000000000000000000000815260040160405180910390fd5b73ffffffffffffffffffffffffffffffffffffffff8216611121576040517f9fabe1c100000000000000000000000000000000000000000000000000000000815260040160405180910390fd5b6111296121a8565b611131612247565b609a80547fffffffffffffffffffffffff000000000000000000000000000000000000000090811673ffffffffffffffffffffffffffffffffffffffff89811691909117909255609b805482168b8416179055609f805482168a8416179055609780548216888416179055609880548216878416179055609e859055609d8054909116918416919091179055801561122057600080547fffffffffffffffffffffffffffffffffffffffffffffffffffffffffffff00ff169055604051600181527f7f26b83ff96e1f2b6a682f133852f6798a09c465da95921460cefb38474024989060200160405180910390a15b5050505050505050565b6112326113a5565b73ffffffffffffffffffffffffffffffffffffffff811661127f576040517f9fabe1c100000000000000000000000000000000000000000000000000000000815260040160405180910390fd5b609f80547fffffffffffffffffffffffff00000000000000000000000000000000000000001673ffffffffffffffffffffffffffffffffffffffff83169081179091556040517f7189a0ba279a96a44871ae8306133ff5ccdb353b75897c09c47e34610cac5fc290600090a250565b6112f66113a5565b73ffffffffffffffffffffffffffffffffffffffff8116611399576040517f08c379a000000000000000000000000000000000000000000000000000000000815260206004820152602660248201527f4f776e61626c653a206e6577206f776e657220697320746865207a65726f206160448201527f64647265737300000000000000000000000000000000000000000000000000006064820152608401610ea6565b6113a28161155c565b50565b60335473ffffffffffffffffffffffffffffffffffffffff16331461084f576040517f08c379a000000000000000000000000000000000000000000000000000000000815260206004820181905260248201527f4f776e61626c653a2063616c6c6572206973206e6f7420746865206f776e65726044820152606401610ea6565b61142e6122e6565b606580547fffffffffffffffffffffffffffffffffffffffffffffffffffffffffffffff001690557f5db9ee0a495bf2e6ff9c91a7834c1ba4fdd244a5e8aa4e537bd38aeae4b073aa335b60405173ffffffffffffffffffffffffffffffffffffffff909116815260200160405180910390a1565b6040805160008082526020820190925273ffffffffffffffffffffffffffffffffffffffff84169083906040516114da919061336b565b60006040518083038185875af1925050503d8060008114611517576040519150601f19603f3d011682016040523d82523d6000602084013e61151c565b606091505b5050905080611557576040517fb12d13eb00000000000000000000000000000000000000000000000000000000815260040160405180910390fd5b505050565b6033805473ffffffffffffffffffffffffffffffffffffffff8381167fffffffffffffffffffffffff0000000000000000000000000000000000000000831681179093556040519116919082907f8be0079c531659141344cd1fd0a4f28419497f9722a3daafe3b4186f6b6457e090600090a35050565b60655460ff161561084f576040517f08c379a000000000000000000000000000000000000000000000000000000000815260206004820152601060248201527f5061757361626c653a20706175736564000000000000000000000000000000006044820152606401610ea6565b60975460009073ffffffffffffffffffffffffffffffffffffffff908116908a16611669578099505b826116785761232892506116c0565b826123281180611689575061271083115b156116c0576040517fc82bafc900000000000000000000000000000000000000000000000000000000815260040160405180910390fd5b73ffffffffffffffffffffffffffffffffffffffff8a81169082161434156117b65780611719576040517f7fef56e900000000000000000000000000000000000000000000000000000000815260040160405180910390fd5b8b15611751576040517fd3555def00000000000000000000000000000000000000000000000000000000815260040160405180910390fd5b3499508173ffffffffffffffffffffffffffffffffffffffff1663d0e30db08b6040518263ffffffff1660e01b81526004016000604051808303818588803b15801561179c57600080fd5b505af11580156117b0573d6000803e3d6000fd5b50505050505b896117ed576040517fcbca5aa200000000000000000000000000000000000000000000000000000000815260040160405180910390fd5b60008b73ffffffffffffffffffffffffffffffffffffffff1663313ce5676040518163ffffffff1660e01b8152600401602060405180830381865afa15801561183a573d6000803e3d6000fd5b505050506040513d601f19601f8201168201806040525081019061185e9190613387565b61186990600a6134f1565b609d546040517fb3596f0700000000000000000000000000000000000000000000000000000000815273ffffffffffffffffffffffffffffffffffffffff8f811660048301529091169063b3596f0790602401602060405180830381865afa1580156118d9573d6000803e3d6000fd5b505050506040513d601f19601f820116820180604052508101906118fd9190613326565b611907908d613500565b611911919061353d565b90508c156119eb57609a546040517fa415bcad00000000000000000000000000000000000000000000000000000000815273ffffffffffffffffffffffffffffffffffffffff8e81166004830152602482018e905260026044830152600060648301523360848301529091169063a415bcad9060a401600060405180830381600087803b1580156119a157600080fd5b505af11580156119b5573d6000803e3d6000fd5b50505050816119e657609f546119e39073ffffffffffffffffffffffffffffffffffffffff168d858e612352565b9a505b611a3f565b34611a3f57611a1273ffffffffffffffffffffffffffffffffffffffff8d1633308e6124db565b81611a3f57609f54611a3c9073ffffffffffffffffffffffffffffffffffffffff168d858e612352565b9a505b609b546040517f095ea7b300000000000000000000000000000000000000000000000000000000815273ffffffffffffffffffffffffffffffffffffffff9182166004820152602481018d90529084169063095ea7b3906044016020604051808303816000875af1158015611ab8573d6000803e3d6000fd5b505050506040513d601f19601f82011682018060405250810190611adc9190613578565b508915611cda57609b546040517ffd706062000000000000000000000000000000000000000000000000000000008152600481018c905273ffffffffffffffffffffffffffffffffffffffff9091169063fd70606290602401602060405180830381865afa158015611b52573d6000803e3d6000fd5b505050506040513d601f19601f82011682018060405250810190611b769190613326565b8b1015611baf576040517f6a12f10400000000000000000000000000000000000000000000000000000000815260040160405180910390fd5b73ffffffffffffffffffffffffffffffffffffffff89163014611bf157609854611bf19073ffffffffffffffffffffffffffffffffffffffff1633308d6124db565b609b54609854611c1b9173ffffffffffffffffffffffffffffffffffffffff91821691168c6125bd565b609b546040517f753983d6000000000000000000000000000000000000000000000000000000008152600481018d9052602481018c905273ffffffffffffffffffffffffffffffffffffffff9091169063753983d6906044016020604051808303816000875af1158015611c93573d6000803e3d6000fd5b505050506040513d601f19601f82011682018060405250810190611cb79190613326565b609e54909450611cc961271083613500565b611cd3919061353d565b9050611d72565b609b546040517fc829bfda000000000000000000000000000000000000000000000000000000008152600481018d905273ffffffffffffffffffffffffffffffffffffffff9091169063c829bfda906024016020604051808303816000875af1158015611d4b573d6000803e3d6000fd5b505050506040513d601f19601f82011682018060405250810190611d6f9190613326565b93505b609c5473ffffffffffffffffffffffffffffffffffffffff1615611dd35784611d9b82866126ad565b1015611dd3576040517f850c6f7600000000000000000000000000000000000000000000000000000000815260040160405180910390fd5b609954609b54604080517f439e50160000000000000000000000000000000000000000000000000000000081529051611e909373ffffffffffffffffffffffffffffffffffffffff90811693899391169163439e5016916004808201926020929091908290030181865afa158015611e4f573d6000803e3d6000fd5b505050506040513d601f19601f82011682018060405250810190611e739190613595565b73ffffffffffffffffffffffffffffffffffffffff1691906125bd565b6099546040517f6e9c931c0000000000000000000000000000000000000000000000000000000081526004810186905273ffffffffffffffffffffffffffffffffffffffff8a81166024830152604482018a905290911690636e9c931c90606401600060405180830381600087803b158015611f0b57600080fd5b505af1158015611f1f573d6000803e3d6000fd5b505050508773ffffffffffffffffffffffffffffffffffffffff168973ffffffffffffffffffffffffffffffffffffffff167f185f471aee8e22c0f6772d9076b984cb8394859d474a9799c1421f440262d5818f8e8e8c604051611f9e9493929190931515845260208401929092526040830152606082015260800190565b60405180910390a3609854611fca9073ffffffffffffffffffffffffffffffffffffffff168d886127f9565b5050509998505050505050505050565b611fe26115d3565b606580547fffffffffffffffffffffffffffffffffffffffffffffffffffffffffffffff001660011790557f62e78cea01bee320cd4e420270b5ea74000d11b0c9f74754ebdbfc544b05a2586114793390565b60408051600280825260608201835260009283929190602083019080368337019050509050848160008151811061206e5761206e6135b2565b602002602001019073ffffffffffffffffffffffffffffffffffffffff16908173ffffffffffffffffffffffffffffffffffffffff168152505083816001815181106120bc576120bc6135b2565b73ffffffffffffffffffffffffffffffffffffffff92831660209182029290920101526040517f1f00ca7400000000000000000000000000000000000000000000000000000000815290871690631f00ca749061211f9086908590600401613632565b600060405180830381865afa15801561213c573d6000803e3d6000fd5b505050506040513d6000823e601f3d9081017fffffffffffffffffffffffffffffffffffffffffffffffffffffffffffffffe0168201604052612182919081019061364b565b600081518110612194576121946135b2565b60200260200101519150505b949350505050565b600054610100900460ff1661223f576040517f08c379a000000000000000000000000000000000000000000000000000000000815260206004820152602b60248201527f496e697469616c697a61626c653a20636f6e7472616374206973206e6f74206960448201527f6e697469616c697a696e670000000000000000000000000000000000000000006064820152608401610ea6565b61084f6129f6565b600054610100900460ff166122de576040517f08c379a000000000000000000000000000000000000000000000000000000000815260206004820152602b60248201527f496e697469616c697a61626c653a20636f6e7472616374206973206e6f74206960448201527f6e697469616c697a696e670000000000000000000000000000000000000000006064820152608401610ea6565b61084f612a96565b60655460ff1661084f576040517f08c379a000000000000000000000000000000000000000000000000000000000815260206004820152601460248201527f5061757361626c653a206e6f74207061757365640000000000000000000000006044820152606401610ea6565b60408051600280825260608201835260009283929190602083019080368337019050509050848160008151811061238b5761238b6135b2565b602002602001019073ffffffffffffffffffffffffffffffffffffffff16908173ffffffffffffffffffffffffffffffffffffffff168152505083816001815181106123d9576123d96135b2565b73ffffffffffffffffffffffffffffffffffffffff928316602091820292909201015261240990861687856125bd565b6040517f38ed173900000000000000000000000000000000000000000000000000000000815273ffffffffffffffffffffffffffffffffffffffff8716906338ed1739906124649086906000908690309042906004016136e5565b6000604051808303816000875af1158015612483573d6000803e3d6000fd5b505050506040513d6000823e601f3d9081017fffffffffffffffffffffffffffffffffffffffffffffffffffffffffffffffe01682016040526124c9919081019061364b565b600181518110612194576121946135b2565b60405173ffffffffffffffffffffffffffffffffffffffff808516602483015283166044820152606481018290526125b79085907f23b872dd00000000000000000000000000000000000000000000000000000000906084015b604080517fffffffffffffffffffffffffffffffffffffffffffffffffffffffffffffffe08184030181529190526020810180517bffffffffffffffffffffffffffffffffffffffffffffffffffffffff167fffffffff0000000000000000000000000000000000000000000000000000000090931692909217909152612b57565b50505050565b6040805173ffffffffffffffffffffffffffffffffffffffff8416602482015260448082018490528251808303909101815260649091019091526020810180517bffffffffffffffffffffffffffffffffffffffffffffffffffffffff167f095ea7b3000000000000000000000000000000000000000000000000000000001790526126498482612c66565b6125b75760405173ffffffffffffffffffffffffffffffffffffffff84166024820152600060448201526126a39085907f095ea7b30000000000000000000000000000000000000000000000000000000090606401612535565b6125b78482612b57565b609c54604080517fa2e62045000000000000000000000000000000000000000000000000000000008152905160009273ffffffffffffffffffffffffffffffffffffffff169163a2e62045916004808301928692919082900301818387803b15801561271857600080fd5b505af115801561272c573d6000803e3d6000fd5b505050506000670de0b6b3a7640000609c60009054906101000a900473ffffffffffffffffffffffffffffffffffffffff1673ffffffffffffffffffffffffffffffffffffffff16636e9a05c56040518163ffffffff1660e01b8152600401602060405180830381865afa1580156127a8573d6000803e3d6000fd5b505050506040513d601f19601f820116820180604052508101906127cc9190613326565b6127d69085613500565b6127e0919061353d565b9050836127ef61271083613500565b610dda919061353d565b6040517f70a082310000000000000000000000000000000000000000000000000000000081523060048201528390839060009073ffffffffffffffffffffffffffffffffffffffff8316906370a08231906024016020604051808303816000875af115801561286c573d6000803e3d6000fd5b505050506040513d601f19601f820116820180604052508101906128909190613326565b90508015612933576040517fa9059cbb00000000000000000000000000000000000000000000000000000000815273ffffffffffffffffffffffffffffffffffffffff85811660048301526024820183905283169063a9059cbb906044016020604051808303816000875af115801561290d573d6000803e3d6000fd5b505050506040513d601f19601f820116820180604052508101906129319190613578565b505b6040517f70a0823100000000000000000000000000000000000000000000000000000000815230600482015260009073ffffffffffffffffffffffffffffffffffffffff8516906370a0823190602401602060405180830381865afa1580156129a0573d6000803e3d6000fd5b505050506040513d601f19601f820116820180604052508101906129c49190613326565b905080156129ed576129ed73ffffffffffffffffffffffffffffffffffffffff85168683612d27565b50505050505050565b600054610100900460ff16612a8d576040517f08c379a000000000000000000000000000000000000000000000000000000000815260206004820152602b60248201527f496e697469616c697a61626c653a20636f6e7472616374206973206e6f74206960448201527f6e697469616c697a696e670000000000000000000000000000000000000000006064820152608401610ea6565b61084f3361155c565b600054610100900460ff16612b2d576040517f08c379a000000000000000000000000000000000000000000000000000000000815260206004820152602b60248201527f496e697469616c697a61626c653a20636f6e7472616374206973206e6f74206960448201527f6e697469616c697a696e670000000000000000000000000000000000000000006064820152608401610ea6565b606580547fffffffffffffffffffffffffffffffffffffffffffffffffffffffffffffff00169055565b6000612bb9826040518060400160405280602081526020017f5361666545524332303a206c6f772d6c6576656c2063616c6c206661696c65648152508573ffffffffffffffffffffffffffffffffffffffff16612d7d9092919063ffffffff16565b9050805160001480612bda575080806020019051810190612bda9190613578565b611557576040517f08c379a000000000000000000000000000000000000000000000000000000000815260206004820152602a60248201527f5361666545524332303a204552433230206f7065726174696f6e20646964206e60448201527f6f742073756363656564000000000000000000000000000000000000000000006064820152608401610ea6565b60008060008473ffffffffffffffffffffffffffffffffffffffff1684604051612c90919061336b565b6000604051808303816000865af19150503d8060008114612ccd576040519150601f19603f3d011682016040523d82523d6000602084013e612cd2565b606091505b5091509150818015612cfc575080511580612cfc575080806020019051810190612cfc9190613578565b8015612d1e575073ffffffffffffffffffffffffffffffffffffffff85163b15155b95945050505050565b60405173ffffffffffffffffffffffffffffffffffffffff83166024820152604481018290526115579084907fa9059cbb0000000000000000000000000000000000000000000000000000000090606401612535565b60606121a08484600085856000808673ffffffffffffffffffffffffffffffffffffffff168587604051612db1919061336b565b60006040518083038185875af1925050503d8060008114612dee576040519150601f19603f3d011682016040523d82523d6000602084013e612df3565b606091505b5091509150610a998783838760608315612e92578251612e8b5773ffffffffffffffffffffffffffffffffffffffff85163b612e8b576040517f08c379a000000000000000000000000000000000000000000000000000000000815260206004820152601d60248201527f416464726573733a2063616c6c20746f206e6f6e2d636f6e74726163740000006044820152606401610ea6565b50816121a0565b6121a08383815115612ea75781518083602001fd5b806040517f08c379a0000000000000000000000000000000000000000000000000000000008152600401610ea6919061372e565b73ffffffffffffffffffffffffffffffffffffffff811681146113a257600080fd5b600060208284031215612f0f57600080fd5b8135612f1a81612edb565b9392505050565b60008060408385031215612f3457600080fd5b8235612f3f81612edb565b946020939093013593505050565b80151581146113a257600080fd5b60008060008060008060c08789031215612f7457600080fd5b8635612f7f81612f4d565b95506020870135612f8f81612edb565b95989597505050506040840135936060810135936080820135935060a0909101359150565b60008060008060008060c08789031215612fcd57600080fd5b8635612fd881612f4d565b95506020870135612fe881612edb565b94506040870135935060608701359250608087013561300681612edb565b8092505060a087013590509295509295509295565b600080600080600060a0868803121561303357600080fd5b853561303e81612f4d565b9450602086013561304e81612edb565b94979496505050506040830135926060810135926080909101359150565b600080600080600080600060e0888a03121561308757600080fd5b873561309281612edb565b965060208801356130a281612edb565b955060408801356130b281612edb565b945060608801356130c281612edb565b935060808801356130d281612edb565b925060a0880135915060c08801356130e981612edb565b8091505092959891949750929550565b7f4e487b7100000000000000000000000000000000000000000000000000000000600052604160045260246000fd5b604051610180810167ffffffffffffffff8111828210171561314c5761314c6130f9565b60405290565b604051601f82017fffffffffffffffffffffffffffffffffffffffffffffffffffffffffffffffe016810167ffffffffffffffff81118282101715613199576131996130f9565b604052919050565b6000602082840312156131b357600080fd5b6040516020810181811067ffffffffffffffff821117156131d6576131d66130f9565b6040529151825250919050565b80516fffffffffffffffffffffffffffffffff8116811461320357600080fd5b919050565b805164ffffffffff8116811461320357600080fd5b805161320381612edb565b805160ff8116811461320357600080fd5b6000610180828403121561324c57600080fd5b613254613128565b61325e84846131a1565b815261326c602084016131e3565b602082015261327d604084016131e3565b604082015261328e606084016131e3565b606082015261329f608084016131e3565b60808201526132b060a084016131e3565b60a08201526132c160c08401613208565b60c08201526132d260e0840161321d565b60e08201526101006132e581850161321d565b908201526101206132f784820161321d565b9082015261014061330984820161321d565b9082015261016061331b848201613228565b908201529392505050565b60006020828403121561333857600080fd5b5051919050565b60005b8381101561335a578181015183820152602001613342565b838111156125b75750506000910152565b6000825161337d81846020870161333f565b9190910192915050565b60006020828403121561339957600080fd5b612f1a82613228565b7f4e487b7100000000000000000000000000000000000000000000000000000000600052601160045260246000fd5b600181815b8085111561342a57817fffffffffffffffffffffffffffffffffffffffffffffffffffffffffffffffff04821115613410576134106133a2565b8085161561341d57918102915b93841c93908002906133d6565b509250929050565b60008261344157506001610dde565b8161344e57506000610dde565b8160018114613464576002811461346e5761348a565b6001915050610dde565b60ff84111561347f5761347f6133a2565b50506001821b610dde565b5060208310610133831016604e8410600b84101617156134ad575081810a610dde565b6134b783836133d1565b807fffffffffffffffffffffffffffffffffffffffffffffffffffffffffffffffff048211156134e9576134e96133a2565b029392505050565b6000612f1a60ff841683613432565b6000817fffffffffffffffffffffffffffffffffffffffffffffffffffffffffffffffff0483118215151615613538576135386133a2565b500290565b600082613573577f4e487b7100000000000000000000000000000000000000000000000000000000600052601260045260246000fd5b500490565b60006020828403121561358a57600080fd5b8151612f1a81612f4d565b6000602082840312156135a757600080fd5b8151612f1a81612edb565b7f4e487b7100000000000000000000000000000000000000000000000000000000600052603260045260246000fd5b600081518084526020808501945080840160005b8381101561362757815173ffffffffffffffffffffffffffffffffffffffff16875295820195908201906001016135f5565b509495945050505050565b8281526040602082015260006121a060408301846135e1565b6000602080838503121561365e57600080fd5b825167ffffffffffffffff8082111561367657600080fd5b818501915085601f83011261368a57600080fd5b81518181111561369c5761369c6130f9565b8060051b91506136ad848301613152565b81815291830184019184810190888411156136c757600080fd5b938501935b83851015610b66578451825293850193908501906136cc565b85815284602082015260a06040820152600061370460a08301866135e1565b73ffffffffffffffffffffffffffffffffffffffff94909416606083015250608001529392505050565b602081526000825180602084015261374d81604085016020870161333f565b601f017fffffffffffffffffffffffffffffffffffffffffffffffffffffffffffffffe016919091016040019291505056fea26469706673582212202cdafcb923319670b3fbe3bc95c0208d62fca3b63847619f7a8ceccf98210a9b64736f6c634300080c0033",
  "linkReferences": {},
  "deployedLinkReferences": {}
}