{
  "_format": "hh-sol-artifact-1",
  "contractName": "MultiFeeDistribution",
  "sourceName": "contracts/radiant/staking/MultiFeeDistribution.sol",
  "abi": [
    {
      "inputs": [],
      "stateMutability": "nonpayable",
      "type": "constructor"
    },
    {
      "inputs": [],
      "name": "ActiveReward",
      "type": "error"
    },
    {
      "inputs": [],
      "name": "AddressZero",
      "type": "error"
    },
    {
      "inputs": [],
      "name": "AlreadyAdded",
      "type": "error"
    },
    {
      "inputs": [],
      "name": "AlreadySet",
      "type": "error"
    },
    {
      "inputs": [],
      "name": "AmountZero",
      "type": "error"
    },
    {
      "inputs": [],
      "name": "InsufficientPermission",
      "type": "error"
    },
    {
      "inputs": [],
      "name": "InvalidAction",
      "type": "error"
    },
    {
      "inputs": [],
      "name": "InvalidAddress",
      "type": "error"
    },
    {
      "inputs": [],
      "name": "InvalidAmount",
      "type": "error"
    },
    {
      "inputs": [],
      "name": "InvalidBurn",
      "type": "error"
    },
    {
      "inputs": [],
      "name": "InvalidEarned",
      "type": "error"
    },
    {
      "inputs": [],
      "name": "InvalidLockPeriod",
      "type": "error"
    },
    {
      "inputs": [],
      "name": "InvalidLookback",
      "type": "error"
    },
    {
      "inputs": [],
      "name": "InvalidPeriod",
      "type": "error"
    },
    {
      "inputs": [],
      "name": "InvalidTime",
      "type": "error"
    },
    {
      "inputs": [],
      "name": "InvalidType",
      "type": "error"
    },
    {
      "inputs": [],
      "name": "MintersSet",
      "type": "error"
    },
    {
      "inputs": [],
      "name": "UnlockTimeNotFound",
      "type": "error"
    },
    {
      "anonymous": false,
      "inputs": [
        {
          "indexed": false,
          "internalType": "contract IChefIncentivesController",
          "name": "_controller",
          "type": "address"
        },
        {
          "indexed": false,
          "internalType": "contract IMiddleFeeDistribution",
          "name": "_middleFeeDistribution",
          "type": "address"
        },
        {
          "indexed": true,
          "internalType": "address",
          "name": "_treasury",
          "type": "address"
        }
      ],
      "name": "AddressesUpdated",
      "type": "event"
    },
    {
      "anonymous": false,
      "inputs": [
        {
          "indexed": true,
          "internalType": "address",
          "name": "_bounty",
          "type": "address"
        }
      ],
      "name": "BountyManagerUpdated",
      "type": "event"
    },
    {
      "anonymous": false,
      "inputs": [
        {
          "indexed": false,
          "internalType": "uint8",
          "name": "version",
          "type": "uint8"
        }
      ],
      "name": "Initialized",
      "type": "event"
    },
    {
      "anonymous": false,
      "inputs": [
        {
          "indexed": true,
          "internalType": "address",
          "name": "_stakingToken",
          "type": "address"
        }
      ],
      "name": "LPTokenUpdated",
      "type": "event"
    },
    {
      "anonymous": false,
      "inputs": [
        {
          "indexed": false,
          "internalType": "uint256[]",
          "name": "lockPeriod",
          "type": "uint256[]"
        },
        {
          "indexed": false,
          "internalType": "uint256[]",
          "name": "rewardMultipliers",
          "type": "uint256[]"
        }
      ],
      "name": "LockTypeInfoUpdated",
      "type": "event"
    },
    {
      "anonymous": false,
      "inputs": [
        {
          "indexed": true,
          "internalType": "address",
          "name": "user",
          "type": "address"
        },
        {
          "indexed": false,
          "internalType": "uint256",
          "name": "amount",
          "type": "uint256"
        },
        {
          "indexed": false,
          "internalType": "uint256",
          "name": "lockedBalance",
          "type": "uint256"
        },
        {
          "indexed": true,
          "internalType": "uint256",
          "name": "lockLength",
          "type": "uint256"
        },
        {
          "indexed": false,
          "internalType": "bool",
          "name": "isLP",
          "type": "bool"
        }
      ],
      "name": "Locked",
      "type": "event"
    },
    {
      "anonymous": false,
      "inputs": [
        {
          "indexed": true,
          "internalType": "address",
          "name": "locker",
          "type": "address"
        }
      ],
      "name": "LockerAdded",
      "type": "event"
    },
    {
      "anonymous": false,
      "inputs": [
        {
          "indexed": true,
          "internalType": "address",
          "name": "locker",
          "type": "address"
        }
      ],
      "name": "LockerRemoved",
      "type": "event"
    },
    {
      "anonymous": false,
      "inputs": [
        {
          "indexed": true,
          "internalType": "address",
          "name": "previousOwner",
          "type": "address"
        },
        {
          "indexed": true,
          "internalType": "address",
          "name": "newOwner",
          "type": "address"
        }
      ],
      "name": "OwnershipTransferred",
      "type": "event"
    },
    {
      "anonymous": false,
      "inputs": [
        {
          "indexed": false,
          "internalType": "address",
          "name": "account",
          "type": "address"
        }
      ],
      "name": "Paused",
      "type": "event"
    },
    {
      "anonymous": false,
      "inputs": [
        {
          "indexed": true,
          "internalType": "address",
          "name": "token",
          "type": "address"
        },
        {
          "indexed": false,
          "internalType": "uint256",
          "name": "amount",
          "type": "uint256"
        }
      ],
      "name": "Recovered",
      "type": "event"
    },
    {
      "anonymous": false,
      "inputs": [
        {
          "indexed": true,
          "internalType": "address",
          "name": "user",
          "type": "address"
        },
        {
          "indexed": false,
          "internalType": "uint256",
          "name": "amount",
          "type": "uint256"
        },
        {
          "indexed": false,
          "internalType": "uint256",
          "name": "lockIndex",
          "type": "uint256"
        }
      ],
      "name": "Relocked",
      "type": "event"
    },
    {
      "anonymous": false,
      "inputs": [
        {
          "indexed": true,
          "internalType": "address",
          "name": "_rewardToken",
          "type": "address"
        }
      ],
      "name": "RewardAdded",
      "type": "event"
    },
    {
      "anonymous": false,
      "inputs": [
        {
          "indexed": true,
          "internalType": "address",
          "name": "_rewardConverter",
          "type": "address"
        }
      ],
      "name": "RewardConverterUpdated",
      "type": "event"
    },
    {
      "anonymous": false,
      "inputs": [
        {
          "indexed": true,
          "internalType": "address",
          "name": "user",
          "type": "address"
        },
        {
          "indexed": true,
          "internalType": "address",
          "name": "rewardToken",
          "type": "address"
        },
        {
          "indexed": false,
          "internalType": "uint256",
          "name": "reward",
          "type": "uint256"
        }
      ],
      "name": "RewardPaid",
      "type": "event"
    },
    {
      "anonymous": false,
      "inputs": [
        {
          "indexed": false,
          "internalType": "address",
          "name": "account",
          "type": "address"
        }
      ],
      "name": "Unpaused",
      "type": "event"
    },
    {
      "anonymous": false,
      "inputs": [
        {
          "indexed": true,
          "internalType": "address",
          "name": "user",
          "type": "address"
        },
        {
          "indexed": false,
          "internalType": "uint256",
          "name": "receivedAmount",
          "type": "uint256"
        },
        {
          "indexed": false,
          "internalType": "uint256",
          "name": "lockedBalance",
          "type": "uint256"
        },
        {
          "indexed": false,
          "internalType": "uint256",
          "name": "penalty",
          "type": "uint256"
        },
        {
          "indexed": false,
          "internalType": "uint256",
          "name": "burn",
          "type": "uint256"
        },
        {
          "indexed": false,
          "internalType": "bool",
          "name": "isLP",
          "type": "bool"
        }
      ],
      "name": "Withdrawn",
      "type": "event"
    },
    {
      "inputs": [],
      "name": "AGGREGATION_EPOCH",
      "outputs": [
        {
          "internalType": "uint256",
          "name": "",
          "type": "uint256"
        }
      ],
      "stateMutability": "view",
      "type": "function"
    },
    {
      "inputs": [],
      "name": "DEFAULT_LOCK_INDEX",
      "outputs": [
        {
          "internalType": "uint256",
          "name": "",
          "type": "uint256"
        }
      ],
      "stateMutability": "view",
      "type": "function"
    },
    {
      "inputs": [],
      "name": "HALF",
      "outputs": [
        {
          "internalType": "uint256",
          "name": "",
          "type": "uint256"
        }
      ],
      "stateMutability": "view",
      "type": "function"
    },
    {
      "inputs": [],
      "name": "MAX_SLIPPAGE",
      "outputs": [
        {
          "internalType": "uint256",
          "name": "",
          "type": "uint256"
        }
      ],
      "stateMutability": "view",
      "type": "function"
    },
    {
      "inputs": [],
      "name": "PERCENT_DIVISOR",
      "outputs": [
        {
          "internalType": "uint256",
          "name": "",
          "type": "uint256"
        }
      ],
      "stateMutability": "view",
      "type": "function"
    },
    {
      "inputs": [],
      "name": "QUART",
      "outputs": [
        {
          "internalType": "uint256",
          "name": "",
          "type": "uint256"
        }
      ],
      "stateMutability": "view",
      "type": "function"
    },
    {
      "inputs": [],
      "name": "WHOLE",
      "outputs": [
        {
          "internalType": "uint256",
          "name": "",
          "type": "uint256"
        }
      ],
      "stateMutability": "view",
      "type": "function"
    },
    {
      "inputs": [
        {
          "internalType": "address",
          "name": "rewardToken",
          "type": "address"
        }
      ],
      "name": "addReward",
      "outputs": [],
      "stateMutability": "nonpayable",
      "type": "function"
    },
    {
      "inputs": [
        {
          "internalType": "address",
          "name": "rewardConverter_",
          "type": "address"
        }
      ],
      "name": "addRewardConverter",
      "outputs": [],
      "stateMutability": "nonpayable",
      "type": "function"
    },
    {
      "inputs": [
        {
          "internalType": "address",
          "name": "",
          "type": "address"
        }
      ],
      "name": "autoRelockDisabled",
      "outputs": [
        {
          "internalType": "bool",
          "name": "",
          "type": "bool"
        }
      ],
      "stateMutability": "view",
      "type": "function"
    },
    {
      "inputs": [
        {
          "internalType": "address",
          "name": "",
          "type": "address"
        }
      ],
      "name": "autocompoundEnabled",
      "outputs": [
        {
          "internalType": "bool",
          "name": "",
          "type": "bool"
        }
      ],
      "stateMutability": "view",
      "type": "function"
    },
    {
      "inputs": [],
      "name": "bountyManager",
      "outputs": [
        {
          "internalType": "address",
          "name": "",
          "type": "address"
        }
      ],
      "stateMutability": "view",
      "type": "function"
    },
    {
      "inputs": [],
      "name": "burn",
      "outputs": [
        {
          "internalType": "uint256",
          "name": "",
          "type": "uint256"
        }
      ],
      "stateMutability": "view",
      "type": "function"
    },
    {
      "inputs": [
        {
          "internalType": "address",
          "name": "user",
          "type": "address"
        },
        {
          "internalType": "bool",
          "name": "execute",
          "type": "bool"
        }
      ],
      "name": "claimBounty",
      "outputs": [
        {
          "internalType": "bool",
          "name": "issueBaseBounty",
          "type": "bool"
        }
      ],
      "stateMutability": "nonpayable",
      "type": "function"
    },
    {
      "inputs": [
        {
          "internalType": "address",
          "name": "onBehalf",
          "type": "address"
        }
      ],
      "name": "claimFromConverter",
      "outputs": [],
      "stateMutability": "nonpayable",
      "type": "function"
    },
    {
      "inputs": [
        {
          "internalType": "address",
          "name": "account",
          "type": "address"
        }
      ],
      "name": "claimableRewards",
      "outputs": [
        {
          "components": [
            {
              "internalType": "address",
              "name": "token",
              "type": "address"
            },
            {
              "internalType": "uint256",
              "name": "amount",
              "type": "uint256"
            }
          ],
          "internalType": "struct IFeeDistribution.RewardData[]",
          "name": "rewardsData",
          "type": "tuple[]"
        }
      ],
      "stateMutability": "view",
      "type": "function"
    },
    {
      "inputs": [],
      "name": "daoTreasury",
      "outputs": [
        {
          "internalType": "address",
          "name": "",
          "type": "address"
        }
      ],
      "stateMutability": "view",
      "type": "function"
    },
    {
      "inputs": [],
      "name": "defaultLockDuration",
      "outputs": [
        {
          "internalType": "uint256",
          "name": "",
          "type": "uint256"
        }
      ],
      "stateMutability": "view",
      "type": "function"
    },
    {
      "inputs": [
        {
          "internalType": "address",
          "name": "",
          "type": "address"
        }
      ],
      "name": "defaultLockIndex",
      "outputs": [
        {
          "internalType": "uint256",
          "name": "",
          "type": "uint256"
        }
      ],
      "stateMutability": "view",
      "type": "function"
    },
    {
      "inputs": [
        {
          "internalType": "address",
          "name": "user",
          "type": "address"
        }
      ],
      "name": "earnedBalances",
      "outputs": [
        {
          "internalType": "uint256",
          "name": "totalVesting",
          "type": "uint256"
        },
        {
          "internalType": "uint256",
          "name": "unlocked",
          "type": "uint256"
        },
        {
          "components": [
            {
              "internalType": "uint256",
              "name": "amount",
              "type": "uint256"
            },
            {
              "internalType": "uint256",
              "name": "unlockTime",
              "type": "uint256"
            },
            {
              "internalType": "uint256",
              "name": "penalty",
              "type": "uint256"
            }
          ],
          "internalType": "struct EarnedBalance[]",
          "name": "earningsData",
          "type": "tuple[]"
        }
      ],
      "stateMutability": "view",
      "type": "function"
    },
    {
      "inputs": [
        {
          "internalType": "bool",
          "name": "claimRewards",
          "type": "bool"
        }
      ],
      "name": "exit",
      "outputs": [],
      "stateMutability": "nonpayable",
      "type": "function"
    },
    {
      "inputs": [],
      "name": "getAllRewards",
      "outputs": [],
      "stateMutability": "nonpayable",
      "type": "function"
    },
    {
      "inputs": [
        {
          "internalType": "address",
          "name": "user",
          "type": "address"
        }
      ],
      "name": "getBalances",
      "outputs": [
        {
          "components": [
            {
              "internalType": "uint256",
              "name": "total",
              "type": "uint256"
            },
            {
              "internalType": "uint256",
              "name": "unlocked",
              "type": "uint256"
            },
            {
              "internalType": "uint256",
              "name": "locked",
              "type": "uint256"
            },
            {
              "internalType": "uint256",
              "name": "lockedWithMultiplier",
              "type": "uint256"
            },
            {
              "internalType": "uint256",
              "name": "earned",
              "type": "uint256"
            }
          ],
          "internalType": "struct Balances",
          "name": "",
          "type": "tuple"
        }
      ],
      "stateMutability": "view",
      "type": "function"
    },
    {
      "inputs": [],
      "name": "getLockDurations",
      "outputs": [
        {
          "internalType": "uint256[]",
          "name": "",
          "type": "uint256[]"
        }
      ],
      "stateMutability": "view",
      "type": "function"
    },
    {
      "inputs": [],
      "name": "getLockMultipliers",
      "outputs": [
        {
          "internalType": "uint256[]",
          "name": "",
          "type": "uint256[]"
        }
      ],
      "stateMutability": "view",
      "type": "function"
    },
    {
      "inputs": [],
      "name": "getPriceProvider",
      "outputs": [
        {
          "internalType": "address",
          "name": "",
          "type": "address"
        }
      ],
      "stateMutability": "view",
      "type": "function"
    },
    {
      "inputs": [
        {
          "internalType": "address[]",
          "name": "rewardTokens_",
          "type": "address[]"
        }
      ],
      "name": "getReward",
      "outputs": [],
      "stateMutability": "nonpayable",
      "type": "function"
    },
    {
      "inputs": [
        {
          "internalType": "address",
          "name": "rewardToken",
          "type": "address"
        }
      ],
      "name": "getRewardForDuration",
      "outputs": [
        {
          "internalType": "uint256",
          "name": "",
          "type": "uint256"
        }
      ],
      "stateMutability": "view",
      "type": "function"
    },
    {
      "inputs": [],
      "name": "incentivesController",
      "outputs": [
        {
          "internalType": "contract IChefIncentivesController",
          "name": "",
          "type": "address"
        }
      ],
      "stateMutability": "view",
      "type": "function"
    },
    {
      "inputs": [
        {
          "internalType": "bool",
          "name": "claimRewards",
          "type": "bool"
        },
        {
          "internalType": "uint256",
          "name": "unlockTime",
          "type": "uint256"
        }
      ],
      "name": "individualEarlyExit",
      "outputs": [],
      "stateMutability": "nonpayable",
      "type": "function"
    },
    {
      "inputs": [
        {
          "internalType": "address",
          "name": "rdntToken_",
          "type": "address"
        },
        {
          "internalType": "address",
          "name": "lockZap_",
          "type": "address"
        },
        {
          "internalType": "address",
          "name": "dao_",
          "type": "address"
        },
        {
          "internalType": "address",
          "name": "priceProvider_",
          "type": "address"
        },
        {
          "internalType": "uint256",
          "name": "rewardsDuration_",
          "type": "uint256"
        },
        {
          "internalType": "uint256",
          "name": "rewardsLookback_",
          "type": "uint256"
        },
        {
          "internalType": "uint256",
          "name": "lockDuration_",
          "type": "uint256"
        },
        {
          "internalType": "uint256",
          "name": "burnRatio_",
          "type": "uint256"
        },
        {
          "internalType": "uint256",
          "name": "vestDuration_",
          "type": "uint256"
        }
      ],
      "name": "initialize",
      "outputs": [],
      "stateMutability": "nonpayable",
      "type": "function"
    },
    {
      "inputs": [
        {
          "internalType": "address",
          "name": "",
          "type": "address"
        }
      ],
      "name": "lastAutocompound",
      "outputs": [
        {
          "internalType": "uint256",
          "name": "",
          "type": "uint256"
        }
      ],
      "stateMutability": "view",
      "type": "function"
    },
    {
      "inputs": [
        {
          "internalType": "address",
          "name": "",
          "type": "address"
        }
      ],
      "name": "lastClaimTime",
      "outputs": [
        {
          "internalType": "uint256",
          "name": "",
          "type": "uint256"
        }
      ],
      "stateMutability": "view",
      "type": "function"
    },
    {
      "inputs": [
        {
          "internalType": "address",
          "name": "rewardToken",
          "type": "address"
        }
      ],
      "name": "lastTimeRewardApplicable",
      "outputs": [
        {
          "internalType": "uint256",
          "name": "",
          "type": "uint256"
        }
      ],
      "stateMutability": "view",
      "type": "function"
    },
    {
      "inputs": [
        {
          "internalType": "address",
          "name": "user",
          "type": "address"
        }
      ],
      "name": "lockInfo",
      "outputs": [
        {
          "components": [
            {
              "internalType": "uint256",
              "name": "amount",
              "type": "uint256"
            },
            {
              "internalType": "uint256",
              "name": "unlockTime",
              "type": "uint256"
            },
            {
              "internalType": "uint256",
              "name": "multiplier",
              "type": "uint256"
            },
            {
              "internalType": "uint256",
              "name": "duration",
              "type": "uint256"
            }
          ],
          "internalType": "struct LockedBalance[]",
          "name": "",
          "type": "tuple[]"
        }
      ],
      "stateMutability": "view",
      "type": "function"
    },
    {
      "inputs": [
        {
          "internalType": "address",
          "name": "user",
          "type": "address"
        }
      ],
      "name": "lockedBalance",
      "outputs": [
        {
          "internalType": "uint256",
          "name": "locked",
          "type": "uint256"
        }
      ],
      "stateMutability": "view",
      "type": "function"
    },
    {
      "inputs": [
        {
          "internalType": "address",
          "name": "user",
          "type": "address"
        }
      ],
      "name": "lockedBalances",
      "outputs": [
        {
          "internalType": "uint256",
          "name": "total",
          "type": "uint256"
        },
        {
          "internalType": "uint256",
          "name": "unlockable",
          "type": "uint256"
        },
        {
          "internalType": "uint256",
          "name": "locked",
          "type": "uint256"
        },
        {
          "internalType": "uint256",
          "name": "lockedWithMultiplier",
          "type": "uint256"
        },
        {
          "components": [
            {
              "internalType": "uint256",
              "name": "amount",
              "type": "uint256"
            },
            {
              "internalType": "uint256",
              "name": "unlockTime",
              "type": "uint256"
            },
            {
              "internalType": "uint256",
              "name": "multiplier",
              "type": "uint256"
            },
            {
              "internalType": "uint256",
              "name": "duration",
              "type": "uint256"
            }
          ],
          "internalType": "struct LockedBalance[]",
          "name": "lockData",
          "type": "tuple[]"
        }
      ],
      "stateMutability": "view",
      "type": "function"
    },
    {
      "inputs": [],
      "name": "lockedSupply",
      "outputs": [
        {
          "internalType": "uint256",
          "name": "",
          "type": "uint256"
        }
      ],
      "stateMutability": "view",
      "type": "function"
    },
    {
      "inputs": [],
      "name": "lockedSupplyWithMultiplier",
      "outputs": [
        {
          "internalType": "uint256",
          "name": "",
          "type": "uint256"
        }
      ],
      "stateMutability": "view",
      "type": "function"
    },
    {
      "inputs": [],
      "name": "middleFeeDistribution",
      "outputs": [
        {
          "internalType": "contract IMiddleFeeDistribution",
          "name": "",
          "type": "address"
        }
      ],
      "stateMutability": "view",
      "type": "function"
    },
    {
      "inputs": [
        {
          "internalType": "address",
          "name": "",
          "type": "address"
        }
      ],
      "name": "minters",
      "outputs": [
        {
          "internalType": "bool",
          "name": "",
          "type": "bool"
        }
      ],
      "stateMutability": "view",
      "type": "function"
    },
    {
      "inputs": [],
      "name": "mintersAreSet",
      "outputs": [
        {
          "internalType": "bool",
          "name": "",
          "type": "bool"
        }
      ],
      "stateMutability": "view",
      "type": "function"
    },
    {
      "inputs": [],
      "name": "owner",
      "outputs": [
        {
          "internalType": "address",
          "name": "",
          "type": "address"
        }
      ],
      "stateMutability": "view",
      "type": "function"
    },
    {
      "inputs": [],
      "name": "pause",
      "outputs": [],
      "stateMutability": "nonpayable",
      "type": "function"
    },
    {
      "inputs": [],
      "name": "paused",
      "outputs": [
        {
          "internalType": "bool",
          "name": "",
          "type": "bool"
        }
      ],
      "stateMutability": "view",
      "type": "function"
    },
    {
      "inputs": [],
      "name": "rdntToken",
      "outputs": [
        {
          "internalType": "contract IMintableToken",
          "name": "",
          "type": "address"
        }
      ],
      "stateMutability": "view",
      "type": "function"
    },
    {
      "inputs": [
        {
          "internalType": "address",
          "name": "tokenAddress",
          "type": "address"
        },
        {
          "internalType": "uint256",
          "name": "tokenAmount",
          "type": "uint256"
        }
      ],
      "name": "recoverERC20",
      "outputs": [],
      "stateMutability": "nonpayable",
      "type": "function"
    },
    {
      "inputs": [],
      "name": "relock",
      "outputs": [],
      "stateMutability": "nonpayable",
      "type": "function"
    },
    {
      "inputs": [
        {
          "internalType": "address",
          "name": "_rewardToken",
          "type": "address"
        }
      ],
      "name": "removeReward",
      "outputs": [],
      "stateMutability": "nonpayable",
      "type": "function"
    },
    {
      "inputs": [],
      "name": "renounceOwnership",
      "outputs": [],
      "stateMutability": "nonpayable",
      "type": "function"
    },
    {
      "inputs": [],
      "name": "requalify",
      "outputs": [],
      "stateMutability": "nonpayable",
      "type": "function"
    },
    {
      "inputs": [
        {
          "internalType": "address",
          "name": "user",
          "type": "address"
        }
      ],
      "name": "requalifyFor",
      "outputs": [],
      "stateMutability": "nonpayable",
      "type": "function"
    },
    {
      "inputs": [],
      "name": "rewardConverter",
      "outputs": [
        {
          "internalType": "address",
          "name": "",
          "type": "address"
        }
      ],
      "stateMutability": "view",
      "type": "function"
    },
    {
      "inputs": [
        {
          "internalType": "address",
          "name": "",
          "type": "address"
        }
      ],
      "name": "rewardData",
      "outputs": [
        {
          "internalType": "uint256",
          "name": "periodFinish",
          "type": "uint256"
        },
        {
          "internalType": "uint256",
          "name": "rewardPerSecond",
          "type": "uint256"
        },
        {
          "internalType": "uint256",
          "name": "lastUpdateTime",
          "type": "uint256"
        },
        {
          "internalType": "uint256",
          "name": "rewardPerTokenStored",
          "type": "uint256"
        },
        {
          "internalType": "uint256",
          "name": "balance",
          "type": "uint256"
        }
      ],
      "stateMutability": "view",
      "type": "function"
    },
    {
      "inputs": [
        {
          "internalType": "address",
          "name": "rewardToken",
          "type": "address"
        }
      ],
      "name": "rewardPerToken",
      "outputs": [
        {
          "internalType": "uint256",
          "name": "rptStored",
          "type": "uint256"
        }
      ],
      "stateMutability": "view",
      "type": "function"
    },
    {
      "inputs": [
        {
          "internalType": "uint256",
          "name": "",
          "type": "uint256"
        }
      ],
      "name": "rewardTokens",
      "outputs": [
        {
          "internalType": "address",
          "name": "",
          "type": "address"
        }
      ],
      "stateMutability": "view",
      "type": "function"
    },
    {
      "inputs": [
        {
          "internalType": "address",
          "name": "",
          "type": "address"
        },
        {
          "internalType": "address",
          "name": "",
          "type": "address"
        }
      ],
      "name": "rewards",
      "outputs": [
        {
          "internalType": "uint256",
          "name": "",
          "type": "uint256"
        }
      ],
      "stateMutability": "view",
      "type": "function"
    },
    {
      "inputs": [],
      "name": "rewardsDuration",
      "outputs": [
        {
          "internalType": "uint256",
          "name": "",
          "type": "uint256"
        }
      ],
      "stateMutability": "view",
      "type": "function"
    },
    {
      "inputs": [],
      "name": "rewardsLookback",
      "outputs": [
        {
          "internalType": "uint256",
          "name": "",
          "type": "uint256"
        }
      ],
      "stateMutability": "view",
      "type": "function"
    },
    {
      "inputs": [
        {
          "internalType": "contract IChefIncentivesController",
          "name": "controller_",
          "type": "address"
        },
        {
          "internalType": "contract IMiddleFeeDistribution",
          "name": "middleFeeDistribution_",
          "type": "address"
        },
        {
          "internalType": "address",
          "name": "treasury_",
          "type": "address"
        }
      ],
      "name": "setAddresses",
      "outputs": [],
      "stateMutability": "nonpayable",
      "type": "function"
    },
    {
      "inputs": [
        {
          "internalType": "bool",
          "name": "status",
          "type": "bool"
        },
        {
          "internalType": "uint256",
          "name": "slippage",
          "type": "uint256"
        }
      ],
      "name": "setAutocompound",
      "outputs": [],
      "stateMutability": "nonpayable",
      "type": "function"
    },
    {
      "inputs": [
        {
          "internalType": "address",
          "name": "bounty",
          "type": "address"
        }
      ],
      "name": "setBountyManager",
      "outputs": [],
      "stateMutability": "nonpayable",
      "type": "function"
    },
    {
      "inputs": [
        {
          "internalType": "uint256",
          "name": "index",
          "type": "uint256"
        }
      ],
      "name": "setDefaultRelockTypeIndex",
      "outputs": [],
      "stateMutability": "nonpayable",
      "type": "function"
    },
    {
      "inputs": [
        {
          "internalType": "address",
          "name": "stakingToken_",
          "type": "address"
        }
      ],
      "name": "setLPToken",
      "outputs": [],
      "stateMutability": "nonpayable",
      "type": "function"
    },
    {
      "inputs": [
        {
          "internalType": "uint256[]",
          "name": "lockPeriod_",
          "type": "uint256[]"
        },
        {
          "internalType": "uint256[]",
          "name": "rewardMultipliers_",
          "type": "uint256[]"
        }
      ],
      "name": "setLockTypeInfo",
      "outputs": [],
      "stateMutability": "nonpayable",
      "type": "function"
    },
    {
      "inputs": [
        {
          "internalType": "uint256",
          "name": "lookback",
          "type": "uint256"
        }
      ],
      "name": "setLookback",
      "outputs": [],
      "stateMutability": "nonpayable",
      "type": "function"
    },
    {
      "inputs": [
        {
          "internalType": "address[]",
          "name": "minters_",
          "type": "address[]"
        }
      ],
      "name": "setMinters",
      "outputs": [],
      "stateMutability": "nonpayable",
      "type": "function"
    },
    {
      "inputs": [
        {
          "internalType": "bool",
          "name": "status",
          "type": "bool"
        }
      ],
      "name": "setRelock",
      "outputs": [],
      "stateMutability": "nonpayable",
      "type": "function"
    },
    {
      "inputs": [
        {
          "internalType": "uint256",
          "name": "slippage",
          "type": "uint256"
        }
      ],
      "name": "setUserSlippage",
      "outputs": [],
      "stateMutability": "nonpayable",
      "type": "function"
    },
    {
      "inputs": [
        {
          "internalType": "uint256",
          "name": "amount",
          "type": "uint256"
        },
        {
          "internalType": "address",
          "name": "onBehalfOf",
          "type": "address"
        },
        {
          "internalType": "uint256",
          "name": "typeIndex",
          "type": "uint256"
        }
      ],
      "name": "stake",
      "outputs": [],
      "stateMutability": "nonpayable",
      "type": "function"
    },
    {
      "inputs": [],
      "name": "stakingToken",
      "outputs": [
        {
          "internalType": "address",
          "name": "",
          "type": "address"
        }
      ],
      "stateMutability": "view",
      "type": "function"
    },
    {
      "inputs": [],
      "name": "starfleetTreasury",
      "outputs": [
        {
          "internalType": "address",
          "name": "",
          "type": "address"
        }
      ],
      "stateMutability": "view",
      "type": "function"
    },
    {
      "inputs": [],
      "name": "toggleAutocompound",
      "outputs": [],
      "stateMutability": "nonpayable",
      "type": "function"
    },
    {
      "inputs": [
        {
          "internalType": "address",
          "name": "user",
          "type": "address"
        }
      ],
      "name": "totalBalance",
      "outputs": [
        {
          "internalType": "uint256",
          "name": "",
          "type": "uint256"
        }
      ],
      "stateMutability": "view",
      "type": "function"
    },
    {
      "inputs": [
        {
          "internalType": "address",
          "name": "newOwner",
          "type": "address"
        }
      ],
      "name": "transferOwnership",
      "outputs": [],
      "stateMutability": "nonpayable",
      "type": "function"
    },
    {
      "inputs": [],
      "name": "unpause",
      "outputs": [],
      "stateMutability": "nonpayable",
      "type": "function"
    },
    {
      "inputs": [
        {
          "internalType": "address",
          "name": "",
          "type": "address"
        },
        {
          "internalType": "address",
          "name": "",
          "type": "address"
        }
      ],
      "name": "userRewardPerTokenPaid",
      "outputs": [
        {
          "internalType": "uint256",
          "name": "",
          "type": "uint256"
        }
      ],
      "stateMutability": "view",
      "type": "function"
    },
    {
      "inputs": [
        {
          "internalType": "address",
          "name": "",
          "type": "address"
        }
      ],
      "name": "userSlippage",
      "outputs": [
        {
          "internalType": "uint256",
          "name": "",
          "type": "uint256"
        }
      ],
      "stateMutability": "view",
      "type": "function"
    },
    {
      "inputs": [],
      "name": "userlist",
      "outputs": [
        {
          "internalType": "address",
          "name": "",
          "type": "address"
        }
      ],
      "stateMutability": "view",
      "type": "function"
    },
    {
      "inputs": [],
      "name": "vestDuration",
      "outputs": [
        {
          "internalType": "uint256",
          "name": "",
          "type": "uint256"
        }
      ],
      "stateMutability": "view",
      "type": "function"
    },
    {
      "inputs": [
        {
          "internalType": "address",
          "name": "user",
          "type": "address"
        },
        {
          "internalType": "uint256",
          "name": "amount",
          "type": "uint256"
        },
        {
          "internalType": "bool",
          "name": "withPenalty",
          "type": "bool"
        }
      ],
      "name": "vestTokens",
      "outputs": [],
      "stateMutability": "nonpayable",
      "type": "function"
    },
    {
      "inputs": [
        {
          "internalType": "uint256",
          "name": "amount",
          "type": "uint256"
        }
      ],
      "name": "withdraw",
      "outputs": [],
      "stateMutability": "nonpayable",
      "type": "function"
    },
    {
      "inputs": [
        {
          "internalType": "address",
          "name": "address_",
          "type": "address"
        },
        {
          "internalType": "uint256",
          "name": "limit_",
          "type": "uint256"
        },
        {
          "internalType": "bool",
          "name": "isRelockAction_",
          "type": "bool"
        }
      ],
      "name": "withdrawExpiredLocksForWithOptions",
      "outputs": [
        {
          "internalType": "uint256",
          "name": "",
          "type": "uint256"
        }
      ],
      "stateMutability": "nonpayable",
      "type": "function"
    },
    {
      "inputs": [
        {
          "internalType": "address",
          "name": "user",
          "type": "address"
        }
      ],
      "name": "withdrawableBalance",
      "outputs": [
        {
          "internalType": "uint256",
          "name": "amount",
          "type": "uint256"
        },
        {
          "internalType": "uint256",
          "name": "penaltyAmount",
          "type": "uint256"
        },
        {
          "internalType": "uint256",
          "name": "burnAmount",
          "type": "uint256"
        }
      ],
      "stateMutability": "view",
      "type": "function"
    },
    {
      "inputs": [
        {
          "internalType": "address",
          "name": "user",
          "type": "address"
        }
      ],
      "name": "zapVestingToLp",
      "outputs": [
        {
          "internalType": "uint256",
          "name": "zapped",
          "type": "uint256"
        }
      ],
      "stateMutability": "nonpayable",
      "type": "function"
    }
  ],
  "bytecode": "0x60806040523480156200001157600080fd5b506200001c62000022565b620000e3565b600054610100900460ff16156200008f5760405162461bcd60e51b815260206004820152602760248201527f496e697469616c697a61626c653a20636f6e747261637420697320696e697469604482015266616c697a696e6760c81b606482015260840160405180910390fd5b60005460ff90811614620000e1576000805460ff191660ff9081179091556040519081527f7f26b83ff96e1f2b6a682f133852f6798a09c465da95921460cefb38474024989060200160405180910390a15b565b615d7280620000f36000396000f3fe608060405234801561001057600080fd5b50600436106105b65760003560e01c80637bb7bed1116102f8578063b36b9ffd1161019c578063e6c91a15116100ee578063f4252d59116100a2578063f7ad36011161007c578063f7ad360114610cbb578063f975951814610ce8578063ff66a30514610cf157600080fd5b8063f4252d5914610c61578063f46eccc414610c74578063f787ad0514610c9757600080fd5b8063e8999f43116100d3578063e8999f4314610c32578063f122977714610c3b578063f2fde38b14610c4e57600080fd5b8063e6c91a1514610bf4578063e70b9e2714610c0757600080fd5b8063c53b573d11610150578063dc01f60d1161012a578063dc01f60d14610b9f578063df37987614610bbf578063e6af230d14610be157600080fd5b8063c53b573d14610b39578063c84aae1714610b41578063ca5c7b9114610b9657600080fd5b8063bba63ae411610181578063bba63ae414610b00578063bcd1101414610b13578063beb3e38214610b2657600080fd5b8063b36b9ffd14610acd578063b77cf9c614610ae057600080fd5b806391cdb982116102555780639c9b2e2111610209578063ada71bc2116101e3578063ada71bc214610a84578063af1df25514610aa7578063b2d6e66d14610aba57600080fd5b80639c9b2e2114610a4b5780639fe6386214610a5e578063a4d5e67c14610a7157600080fd5b806398387a8d1161023a57806398387a8d14610a0c5780639ae697bf14610a2f5780639bd4ef5014610a4257600080fd5b806391cdb982146109f057806394761e2a14610a0357600080fd5b80638d4a73ef116102ac5780638f40aab1116102915780638f40aab1146109bd5780638fd9f2ca146109d0578063914f6e6d146109dd57600080fd5b80638d4a73ef146109a25780638da5cb5b146109ac57600080fd5b80638232e5f7116102dd5780638232e5f71461097e5780638456cb59146109875780638980f11f1461098f57600080fd5b80637bb7bed1146109585780637fd7d0621461096b57600080fd5b806345b35f561161045f5780636e9c931c116103bc57806372f702f3116103705780637654b1b91161034a5780637654b1b91461092a57806379022a9f146109325780637ab8955d1461094557600080fd5b806372f702f3146108f7578063757c4d221461090a57806376520c6d1461092257600080fd5b80636fa75e6d116103a15780636fa75e6d146108b15780637035ab98146108c4578063715018a6146108ef57600080fd5b80636e9c931c1461088b5780636eacd3981461089e57600080fd5b8063547d009611610413578063638634ee116103f8578063638634ee146108455780636a678a9c146108585780636bd3b87c1461086b57600080fd5b8063547d00961461081b5780635c975abb1461082e57600080fd5b806348e5d9f81161044457806348e5d9f8146107835780634c6f7131146107e8578063525abb2b146107fb57600080fd5b806345b35f56146107725780634870dd9a1461077a57600080fd5b806321cc01c911610518578063363bf964116104cc5780633b26664f116104a65780633b26664f1461074e5780633f4ba83a1461076157806344df8e701461076957600080fd5b8063363bf9641461071f5780633824c76a14610732578063386a95251461074557600080fd5b80632e1a7d4d116104fd5780632e1a7d4d146106e35780632e88caa1146106f657806332c991b51461071657600080fd5b806321cc01c9146106bd5780632843b019146106d057600080fd5b80630f63107f1161056f5780631285deee116105545780631285deee1461068257806317053a7e1461068a57806320212eaa146106aa57600080fd5b80630f63107f146106645780630fd6699b1461067957600080fd5b80630483a7f6116105a05780630483a7f61461060357806309eba343146106275780630a065fb61461063f57600080fd5b8062a4173a146105bb57806302b62938146105d0575b600080fd5b6105ce6105c936600461548b565b610d04565b005b6105e36105de3660046154cd565b610f4b565b604080519384526020840192909252908201526060015b60405180910390f35b6106166106113660046154cd565b6110c6565b6040516105fa959493929190615545565b610631620186a081565b6040519081526020016105fa565b6097546001600160a01b03165b6040516001600160a01b0390911681526020016105fa565b61066c611320565b6040516105fa9190615570565b610631609b5481565b610631600181565b6106316106983660046154cd565b60a76020526000908152604090205481565b6105ce6106b83660046154cd565b611378565b609e5461064c906001600160a01b031681565b6106316106de3660046154cd565b6113fe565b6105ce6106f13660046155b4565b6115f1565b6106316107043660046154cd565b60b46020526000908152604090205481565b61063161fde881565b6105ce61072d3660046155cd565b611a20565b609d5461064c906001600160a01b031681565b61063160995481565b6105ce61075c366004615659565b611b02565b6105ce611c20565b61063160985481565b6105ce611c32565b61063161271081565b6107c06107913660046154cd565b60ad60205260009081526040902080546001820154600283015460038401546004909401549293919290919085565b604080519586526020860194909452928401919091526060830152608082015260a0016105fa565b60a05461064c906001600160a01b031681565b6106316108093660046154cd565b60b86020526000908152604090205481565b6105ce6108293660046156c5565b611c95565b60335460ff165b60405190151581526020016105fa565b6106316108533660046154cd565b611da7565b6105ce6108663660046154cd565b611dd6565b61087e6108793660046154cd565b611e9f565b6040516105fa9190615707565b6105ce61089936600461571a565b611f3c565b6106316108ac3660046154cd565b611f49565b6105ce6108bf3660046155b4565b611fa0565b6106316108d2366004615752565b60ae60209081526000928352604080842090915290825290205481565b6105ce611fed565b60a15461064c906001600160a01b031681565b60b55461064c9061010090046001600160a01b031681565b61066c611fff565b6105ce612055565b60b05461064c906001600160a01b031681565b61083561095336600461578b565b61205e565b61064c6109663660046155b4565b6120f6565b6105ce6109793660046157e8565b612120565b610631609a5481565b6105ce612197565b6105ce61099d3660046158ad565b6121a7565b6106316207e90081565b6065546001600160a01b031661064c565b6106316109cb36600461548b565b6121bd565b60b5546108359060ff1681565b6105ce6109eb3660046158d9565b6121f5565b6105ce6109fe3660046155b4565b6123e5565b610631609c5481565b610835610a1a3660046154cd565b60b36020526000908152604090205460ff1681565b610631610a3d3660046154cd565b612440565b6106316161a881565b6105ce610a593660046154cd565b6124d3565b6105ce610a6c3660046154cd565b612618565b6105ce610a7f3660046154cd565b612678565b610835610a923660046154cd565b60a66020526000908152604090205460ff1681565b609f5461064c906001600160a01b031681565b6105ce610ac83660046154cd565b612851565b60b75461064c906001600160a01b031681565b610631610aee3660046154cd565b60b66020526000908152604090205481565b6105ce610b0e3660046158d9565b612ae8565b610631610b213660046154cd565b612b5f565b6105ce610b343660046158f7565b612b9b565b6105ce612fb4565b610b54610b4f3660046154cd565b613024565b6040516105fa9190600060a082019050825182526020830151602083015260408301516040830152606083015160608301526080830151608083015292915050565b61063160a85481565b610bb2610bad3660046154cd565b6130ae565b6040516105fa9190615981565b610bd2610bcd3660046154cd565b61323f565b6040516105fa939291906159d9565b6105ce610bef3660046155b4565b613492565b6105ce610c02366004615a42565b613512565b610631610c15366004615752565b60af60209081526000928352604080842090915290825290205481565b61063160a95481565b610631610c493660046154cd565b6135a7565b6105ce610c5c3660046154cd565b61363c565b60b15461064c906001600160a01b031681565b610835610c823660046154cd565b60b26020526000908152604090205460ff1681565b6105ce33600090815260a660205260409020805460ff19811660ff90911615179055565b6105ce610cc9366004615a42565b33600090815260b360205260409020805460ff19169115919091179055565b61063161251c81565b6105ce610cff3660046154cd565b6136cc565b610d0c613768565b33600090815260b2602052604090205460ff16610d3c57604051630deda90360e41b815260040160405180910390fd5b81610d4657505050565b6001600160a01b038316301415610d725760a054610d6d906001600160a01b0316836137bb565b505050565b6001600160a01b038316600090815260a3602052604090208054610d97908490615a8e565b81558115610f2f57828160040154610daf9190615a8e565b60048201556001600160a01b038416600090815260a56020526040812090610dda6201518042615aa6565b8254909150600090610ded576000610dfb565b8254610dfb90600190615ae1565b9050600062015180609c54610e109190615aa6565b845490915015801590610e5c5750610e288184615a8e565b62015180858481548110610e3e57610e3e615af8565b906000526020600020906004020160010154610e5a9190615aa6565b145b15610eb85786848381548110610e7457610e74615af8565b906000526020600020906004020160000154610e909190615a8e565b848381548110610ea257610ea2615af8565b6000918252602090912060049091020155610f26565b6000609c5442610ec89190615a8e565b604080516080810182528a815260208082019384526001928201838152609c54606084019081528a548086018c5560008c81529390932093516004909302909301918255935192810192909255915160028201559051600390910155505b50505050610f45565b828160010154610f3f9190615a8e565b60018201555b50505050565b6001600160a01b038116600090815260a36020526040812060040154819081908015611089576001600160a01b038516600090815260a56020526040812054905b81811015611086576001600160a01b038716600090815260a560205260408120805483908110610fbe57610fbe615af8565b90600052602060002090600402016000015490508060001415610fe15750610f8c565b6001600160a01b038816600090815260a56020526040812080548291611057918690811061101157611011615af8565b9060005260206000209060040201604051806080016040529081600082015481526020016001820154815260200160028201548152602001600382015481525050613896565b93509350505081886110699190615a8e565b97506110758188615a8e565b96505060019092019150610f8c9050565b50505b6001600160a01b038516600090815260a3602052604090206001015483906110b2908390615a8e565b6110bc9190615ae1565b9350509193909250565b6001600160a01b038116600090815260a46020526040812080548291829182916060918390815b818110156112f6574284828154811061110857611108615af8565b90600052602060002090600402016001015411156112bc57826111aa578354611132908290615ae1565b67ffffffffffffffff81111561114a5761114a6157b9565b6040519080825280602002602001820160405280156111a657816020015b6111936040518060800160405280600081526020016000815260200160008152602001600081525090565b8152602001906001900390816111685790505b5094505b8381815481106111bc576111bc615af8565b906000526020600020906004020160405180608001604052908160008201548152602001600182015481526020016002820154815260200160038201548152505085848151811061120f5761120f615af8565b6020026020010181905250828061122590615b27565b93505083818154811061123a5761123a615af8565b906000526020600020906004020160000154876112579190615a8e565b965083818154811061126b5761126b615af8565b90600052602060002090600402016002015484828154811061128f5761128f615af8565b9060005260206000209060040201600001546112ab9190615b42565b6112b59087615a8e565b95506112ee565b8381815481106112ce576112ce615af8565b906000526020600020906004020160000154886112eb9190615a8e565b97505b6001016110ed565b5050506001600160a01b03909616600090815260a360205260409020600201549693955091935091565b606060ab80548060200260200160405190810160405280929190818152602001828054801561136e57602002820191906000526020600020905b81548152602001906001019080831161135a575b5050505050905090565b611380613936565b6001600160a01b0381166113a757604051639fabe1c160e01b815260040160405180910390fd5b609d805473ffffffffffffffffffffffffffffffffffffffff19166001600160a01b0383169081179091556040517fe3b68397b3e7baa0682f1ed87243f231cbc0e0a383587123479edb959ddf6b8890600090a250565b60a2546000906001600160a01b0316331461142c57604051630deda90360e41b815260040160405180910390fd5b61143582613990565b6001600160a01b038216600090815260a56020526040902080544291905b8015611518578282611466600184615ae1565b8154811061147657611476615af8565b906000526020600020906004020160010154111561150a578161149a600183615ae1565b815481106114aa576114aa615af8565b906000526020600020906004020160000154846114c79190615a8e565b9350818054806114d9576114d9615b61565b600082815260208120600460001990930192830201818155600181018290556002810182905560030155905561150f565b611518565b60001901611453565b5060a25460a054611536916001600160a01b03918216911685613a86565b6001600160a01b038416600090815260a360205260409020600481015461155e908590615ae1565b60048201558054611570908590615ae1565b8155609754604080517fa2e6204500000000000000000000000000000000000000000000000000000000815290516001600160a01b039092169163a2e620459160048082019260009290919082900301818387803b1580156115d157600080fd5b505af11580156115e5573d6000803e3d6000fd5b50505050505050919050565b3381611629576040517fcbca5aa200000000000000000000000000000000000000000000000000000000815260040160405180910390fd5b6001600160a01b038116600090815260a360205260408120600181015482919085116116695784816001015461165f9190615ae1565b60018201556119f0565b600081600101548661167b9190615ae1565b905080826004015410156116bb576040517f1c243dc100000000000000000000000000000000000000000000000000000000815260040160405180910390fd5b6000600183018190556004830154905b6001600160a01b038716600090815260a5602052604081208054839081106116f5576116f5615af8565b9060005260206000209060040201600001549050806000141561171857506116cb565b6001600160a01b038816600090815260a560205260408120805482918291829161174c918890811061101157611011615af8565b929650909450925090508484891061178257611768858a615ae1565b98508861177d578661177981615b27565b9750505b61182a565b61178f84620186a0615ae1565b61179c620186a08b615b42565b6117a69190615aa6565b90506117b28187615ae1565b6001600160a01b038e16600090815260a5602052604090208054899081106117dc576117dc615af8565b600091825260208220600490910201919091559850620186a06117ff8583615b42565b6118099190615aa6565b9250620186a06098548461181d9190615b42565b6118279190615aa6565b91505b6118348189615ae1565b9750611840838d615a8e565b9b5061184c828c615a8e565b9a508861185e575050505050506118a7565b87611895576040517f1c243dc100000000000000000000000000000000000000000000000000000000815260040160405180910390fd5b5050600190940193506116cb92505050565b80156119e8576001600160a01b038716600090815260a56020526040902054815b8181101561197a576001600160a01b038916600090815260a5602052604090208054829081106118fa576118fa615af8565b600091825260208083206001600160a01b038d16845260a5909152604090922060049091029091019061192d8584615ae1565b8154811061193d5761193d615af8565b60009182526020909120825460049092020190815560018083015481830155600280840154908301556003928301549290910191909155016118c8565b5060005b828110156119e5576001600160a01b038916600090815260a5602052604090208054806119ad576119ad615b61565b60008281526020812060046000199093019283020181815560018181018390556002820183905560039091019190915591550161197e565b50505b506004830155505b805483906119ff908790615ae1565b611a099190615ae1565b8155611a19848685856000613b2f565b5050505050565b611a28613936565b6001600160a01b038316611a4f57604051639fabe1c160e01b815260040160405180910390fd5b6001600160a01b038216611a7657604051639fabe1c160e01b815260040160405180910390fd5b609f805473ffffffffffffffffffffffffffffffffffffffff199081166001600160a01b03868116918217909355609e8054831686851690811790915560b180549093169385169384179092556040805191825260208201929092527f97a48c4be738bdf3e84e8f3927df6d4e52ccc94c58e96a666faca603e456d490910160405180910390a2505050565b611b0a613936565b828114611b43576040517f2a82a34f00000000000000000000000000000000000000000000000000000000815260040160405180910390fd5b611b4f60aa60006153dc565b611b5b60ab60006153dc565b8260005b81811015611bdb5760aa868683818110611b7b57611b7b615af8565b8354600181018555600094855260209485902091909402929092013591909201555060ab848483818110611bb157611bb1615af8565b83546001808201865560009586526020958690209290950293909301359201919091555001611b5f565b507f3dd1633e862937bc1494dac711b194b9438e3d57bc5ea37f2821484aecadc65a85858585604051611c119493929190615bdf565b60405180910390a15050505050565b611c28613936565b611c30613d2c565b565b611c3060ac805480602002602001604051908101604052809291908181526020018280548015611c8b57602002820191906000526020600020905b81546001600160a01b03168152600190910190602001808311611c6d575b5050505050612120565b611c9d613936565b60b55460ff1615611cda576040517f4cd4ee5300000000000000000000000000000000000000000000000000000000815260040160405180910390fd5b8060005b81811015611d94576000848483818110611cfa57611cfa615af8565b9050602002016020810190611d0f91906154cd565b6001600160a01b03161415611d3757604051639fabe1c160e01b815260040160405180910390fd5b600160b26000868685818110611d4f57611d4f615af8565b9050602002016020810190611d6491906154cd565b6001600160a01b031681526020810191909152604001600020805460ff1916911515919091179055600101611cde565b505060b5805460ff191660011790555050565b6001600160a01b038116600090815260ad6020526040812054428111611dcd5780611dcf565b425b9392505050565b611dde613936565b6001600160a01b038116611e0557604051639fabe1c160e01b815260040160405180910390fd5b60a1546001600160a01b031615611e48576040517fa741a04500000000000000000000000000000000000000000000000000000000815260040160405180910390fd5b60a1805473ffffffffffffffffffffffffffffffffffffffff19166001600160a01b0383169081179091556040517ff9d1c90c609623055381582a51735b38df3243eb09629a9170b15c2ab6bc073990600090a250565b6001600160a01b038116600090815260a460209081526040808320805482518185028101850190935280835260609492939192909184015b82821015611f31578382906000526020600020906004020160405180608001604052908160008201548152602001600182015481526020016002820154815260200160038201548152505081526020019060010190611ed7565b505050509050919050565b610d6d8383836000613d7e565b60a05460a1546000916001600160a01b0391821691161415611f8157506001600160a01b0316600090815260a3602052604090205490565b506001600160a01b0316600090815260a3602052604090206002015490565b60aa548110611fdb576040517fb968846100000000000000000000000000000000000000000000000000000000815260040160405180910390fd5b33600090815260b46020526040902055565b611ff5613936565b611c30600061436a565b606060aa80548060200260200160405190810160405280929190818152602001828054801561136e576020028201919060005260206000209081548152602001906001019080831161135a575050505050905090565b611c3033612618565b6000612068613768565b60b7546001600160a01b0316331461209357604051630deda90360e41b815260040160405180910390fd5b600061209e846110c6565b50505091505080600014156120b75760009150506120f0565b60019150826120c657506120f0565b6001600160a01b038416600090815260a460205260408120546120ed9186916001906143c9565b50505b92915050565b60ac818154811061210657600080fd5b6000918252602090912001546001600160a01b0316905081565b61212933613990565b6121333382614666565b609760009054906101000a90046001600160a01b03166001600160a01b031663a2e620456040518163ffffffff1660e01b8152600401600060405180830381600087803b15801561218357600080fd5b505af1158015611a19573d6000803e3d6000fd5b61219f613936565b611c30614995565b6121af613936565b6121b982826149d2565b5050565b6000826121e0576001600160a01b038416600090815260a4602052604090205492505b6121ed84836001866143c9565b949350505050565b3342821161222f576040517f6f7eac2600000000000000000000000000000000000000000000000000000000815260040160405180910390fd5b60008060008061223f8587614a2d565b6001600160a01b038916600090815260a56020526040812054949850929650909450925061226e836001615a8e565b90505b81811015612324576001600160a01b038716600090815260a5602052604090208054829081106122a3576122a3615af8565b600091825260208083206001600160a01b038b16845260a590915260409092206004909102909101906122d7600184615ae1565b815481106122e7576122e7615af8565b6000918252602090912082546004909202019081556001808301548183015560028084015490830155600392830154929091019190915501612271565b506001600160a01b038616600090815260a56020526040902080548061234c5761234c615b61565b600082815260208082206004600019909401938402018281556001810183905560028101839055600301829055919092556001600160a01b038816825260a3905260409020805485906123a0908890615ae1565b6123aa9190615ae1565b8155600481015485906123be908890615ae1565b6123c89190615ae1565b60048201556123da878787878d613b2f565b505050505050505050565b61251c8110806123f757506127108110155b1561242e576040517f2c5211c600000000000000000000000000000000000000000000000000000000815260040160405180910390fd5b33600090815260b86020526040902055565b6001600160a01b038116600090815260a460205260408120805442835b828110156124ca578184828154811061247857612478615af8565b90600052602060002090600402016001015411156124c2578381815481106124a2576124a2615af8565b906000526020600020906004020160000154856124bf9190615a8e565b94505b60010161245d565b50505050919050565b6001600160a01b0381166124fa57604051639fabe1c160e01b815260040160405180910390fd5b33600090815260b2602052604090205460ff1661252a57604051630deda90360e41b815260040160405180910390fd5b6001600160a01b038116600090815260ad60205260409020600201541561257d576040517ff411c32700000000000000000000000000000000000000000000000000000000815260040160405180910390fd5b60ac8054600181019091557f0a0a1bcadd9f6a5539376fa82276e043ae3cb4499daaaf8136572ecb1f9f0d6001805473ffffffffffffffffffffffffffffffffffffffff19166001600160a01b038316908117909155600081815260ad60205260408082204260028201819055815590519092917fb13fd610fe4e1b384966826794a9b2f6100ad031f352cc5ec6f22667f607498091a25050565b609f546040517f3adcdfc80000000000000000000000000000000000000000000000000000000081526001600160a01b03838116600483015290911690633adcdfc890602401600060405180830381600087803b15801561218357600080fd5b33600090815260b2602052604090205460ff166126a857604051630deda90360e41b815260040160405180910390fd5b60ac546000908190815b8181101561271057846001600160a01b031660ac82815481106126d7576126d7615af8565b6000918252602090912001546001600160a01b031614156126fe5760019350809250612710565b8061270881615b27565b9150506126b2565b5082612748576040517fe6c4247b00000000000000000000000000000000000000000000000000000000815260040160405180910390fd5b612753600182615ae1565b8210156127d25760ac612767600183615ae1565b8154811061277757612777615af8565b60009182526020909120015460ac80546001600160a01b0390921691849081106127a3576127a3615af8565b9060005260206000200160006101000a8154816001600160a01b0302191690836001600160a01b031602179055505b60ac8054806127e3576127e3615b61565b600082815260208082208301600019908101805473ffffffffffffffffffffffffffffffffffffffff191690559092019092556001600160a01b0395909516815260ad9094525050604082206002810183905582815560048101839055600181018390556003019190915550565b612859613768565b609d546001600160a01b0316331461288457604051630deda90360e41b815260040160405180910390fd5b61288d81613990565b609e546040517f08c51c650000000000000000000000000000000000000000000000000000000081526001600160a01b03909116906308c51c65906128d79060ac90600401615c06565b600060405180830381600087803b1580156128f157600080fd5b505af1158015612905573d6000803e3d6000fd5b505060ac549150600090505b81811015612a6057600060ac828154811061292e5761292e615af8565b60009182526020909120015460a0546001600160a01b039182169250168114612a575761295a81614b1f565b6001600160a01b03808516600090815260af602090815260408083209385168352929052908120546129929064e8d4a5100090615aa6565b90508015612a55576001600160a01b03808616600090815260af60209081526040808320938616835292815282822082905560ad905220600401546129d8908290615ae1565b6001600160a01b03808416600081815260ad6020526040902060040192909255609d54612a0792911683613a86565b816001600160a01b0316856001600160a01b03167f540798df468d7b23d11f156fdb954cb19ad414d150722a7b6d55ba369dea792e83604051612a4c91815260200190565b60405180910390a35b505b50600101612911565b50609760009054906101000a90046001600160a01b03166001600160a01b031663a2e620456040518163ffffffff1660e01b8152600401600060405180830381600087803b158015612ab157600080fd5b505af1158015612ac5573d6000803e3d6000fd5b5050506001600160a01b03909216600090815260b6602052604090204290555050565b33600090815260a660205260409020805460ff191683151517905561251c811080612b1557506127108110155b15612b4c576040517f2c5211c600000000000000000000000000000000000000000000000000000000815260040160405180910390fd5b33600090815260b8602052604090205550565b6099546001600160a01b038216600090815260ad6020526040812060010154909164e8d4a5100091612b919190615b42565b6120f09190615aa6565b600054610100900460ff1615808015612bbb5750600054600160ff909116105b80612bd55750303b158015612bd5575060005460ff166001145b612c4c5760405162461bcd60e51b815260206004820152602e60248201527f496e697469616c697a61626c653a20636f6e747261637420697320616c72656160448201527f647920696e697469616c697a656400000000000000000000000000000000000060648201526084015b60405180910390fd5b6000805460ff191660011790558015612c8c57600080547fffffffffffffffffffffffffffffffffffffffffffffffffffffffffffff00ff166101001790555b6001600160a01b038a16612cb357604051639fabe1c160e01b815260040160405180910390fd5b6001600160a01b038916612cda57604051639fabe1c160e01b815260040160405180910390fd5b6001600160a01b038816612d0157604051639fabe1c160e01b815260040160405180910390fd5b6001600160a01b038716612d2857604051639fabe1c160e01b815260040160405180910390fd5b85612d5f576040517fcbca5aa200000000000000000000000000000000000000000000000000000000815260040160405180910390fd5b84612d96576040517fcbca5aa200000000000000000000000000000000000000000000000000000000815260040160405180910390fd5b83612dcd576040517fcbca5aa200000000000000000000000000000000000000000000000000000000815260040160405180910390fd5b81612e04576040517fcbca5aa200000000000000000000000000000000000000000000000000000000815260040160405180910390fd5b620186a0831115612e41576040517feeddf6ab00000000000000000000000000000000000000000000000000000000815260040160405180910390fd5b85851115612e7b576040517f70f9f3ca00000000000000000000000000000000000000000000000000000000815260040160405180910390fd5b612e83614c79565b612e8b614cfe565b60a0805473ffffffffffffffffffffffffffffffffffffffff199081166001600160a01b038d811691821790935560a2805483168d851617905560b0805483168c8516179055609780548316938b169390931790925560ac8054600181019091557f0a0a1bcadd9f6a5539376fa82276e043ae3cb4499daaaf8136572ecb1f9f0d6001805490911682179055600090815260ad60205260409020426002909101556099869055609a859055609b8490556098839055609c8290558015612fa857600080547fffffffffffffffffffffffffffffffffffffffffffffffffffffffffffff00ff169055604051600181527f7f26b83ff96e1f2b6a682f133852f6798a09c465da95921460cefb38474024989060200160405180910390a15b50505050505050505050565b33600081815260a460205260408120549091612fd49160019081906143c9565b33600081815260b460209081526040918290205482518581529182015292935090917f4c46641520b3fedde433247f82a421df0d7a83ce24df3f229e9df96f386c8b0c910160405180910390a250565b6130566040518060a0016040528060008152602001600081526020016000815260200160008152602001600081525090565b506001600160a01b0316600090815260a36020908152604091829020825160a0810184528154815260018201549281019290925260028101549282019290925260038201546060820152600490910154608082015290565b60ac5460609067ffffffffffffffff8111156130cc576130cc6157b9565b60405190808252806020026020018201604052801561311157816020015b60408051808201909152600080825260208201528152602001906001900390816130ea5790505b5060ac5490915060005b818110156132385760ac818154811061313657613136615af8565b9060005260206000200160009054906101000a90046001600160a01b031683828151811061316657613166615af8565b6020026020010151600001906001600160a01b031690816001600160a01b03168152505064e8d4a51000613206858584815181106131a6576131a6615af8565b60200260200101516000015160a36000896001600160a01b03166001600160a01b03168152602001908152602001600020600301546132018887815181106131f0576131f0615af8565b6020026020010151600001516135a7565b614d83565b6132109190615aa6565b83828151811061322257613222615af8565b602090810291909101810151015260010161311b565b5050919050565b6001600160a01b038116600090815260a3602090815260408083206001015460a59092528220805460609190849042825b82811015613486578185828154811061328b5761328b615af8565b906000526020600020906004020160010154111561344c57836133265784546132b5908290615ae1565b67ffffffffffffffff8111156132cd576132cd6157b9565b60405190808252806020026020018201604052801561332257816020015b61330f60405180606001604052806000815260200160008152602001600081525090565b8152602001906001900390816132eb5790505b5095505b60006133558a87848154811061333e5761333e615af8565b906000526020600020906004020160010154614a2d565b505091505085828154811061336c5761336c615af8565b90600052602060002090600402016000015487868151811061339057613390615af8565b602002602001015160000181815250508582815481106133b2576133b2615af8565b9060005260206000209060040201600101548786815181106133d6576133d6615af8565b60200260200101516020018181525050808786815181106133f9576133f9615af8565b6020908102919091010151604001528461341281615b27565b95505085828154811061342757613427615af8565b906000526020600020906004020160000154896134449190615a8e565b98505061347e565b84818154811061345e5761345e615af8565b9060005260206000209060040201600001548761347b9190615a8e565b96505b600101613270565b50505050509193909250565b61349a613936565b806134d1576040517fcbca5aa200000000000000000000000000000000000000000000000000000000815260040160405180910390fd5b60995481111561350d576040517f70f9f3ca00000000000000000000000000000000000000000000000000000000815260040160405180910390fd5b609a55565b336000808061352084610f4b565b6001600160a01b038716600090815260a560205260408120939650919450925061354a91906153fa565b6001600160a01b038416600090815260a3602052604090206004810154600182015482546135789190615ae1565b6135829190615ae1565b8155600060018201819055600482015561359f858585858a613b2f565b505050505050565b6001600160a01b038116600090815260ad602052604090206003015460a95415613637576001600160a01b038216600090815260ad6020526040812060018101546002909101546135f785611da7565b6136019190615ae1565b61360b9190615b42565b60a95490915061362382670de0b6b3a7640000615b42565b61362d9190615aa6565b611dcf9083615a8e565b919050565b613644613936565b6001600160a01b0381166136c05760405162461bcd60e51b815260206004820152602660248201527f4f776e61626c653a206e6577206f776e657220697320746865207a65726f206160448201527f64647265737300000000000000000000000000000000000000000000000000006064820152608401612c43565b6136c98161436a565b50565b6136d4613936565b6001600160a01b0381166136fb57604051639fabe1c160e01b815260040160405180910390fd5b60b7805473ffffffffffffffffffffffffffffffffffffffff19166001600160a01b038316908117909155600081815260b26020526040808220805460ff19166001179055517f399c0ee7188568b38d4bbb76666ae7a03da799c64e2a69ece47a0543021fa8d39190a250565b60335460ff1615611c305760405162461bcd60e51b815260206004820152601060248201527f5061757361626c653a20706175736564000000000000000000000000000000006044820152606401612c43565b6001600160a01b038216600090815260ad6020526040902080544210613801576099546137ed8364e8d4a51000615b42565b6137f79190615aa6565b6001820155613866565b8054600090613811904290615ae1565b9050600064e8d4a5100083600101548361382b9190615b42565b6138359190615aa6565b6099549091506138458286615a8e565b6138549064e8d4a51000615b42565b61385e9190615aa6565b600184015550505b426002820181905560995461387a91615a8e565b8155600481015461388c908390615a8e565b6004909101555050565b6000806000804285602001511115613920576161a8609c5461fde84288602001516138c19190615ae1565b6138cb9190615b42565b6138d59190615aa6565b6138df9190615a8e565b9250620186a08386600001516138f59190615b42565b6138ff9190615aa6565b9150620186a0609854836139139190615b42565b61391d9190615aa6565b90505b845161392d908390615ae1565b93509193509193565b6065546001600160a01b03163314611c305760405162461bcd60e51b815260206004820181905260248201527f4f776e61626c653a2063616c6c6572206973206e6f7420746865206f776e65726044820152606401612c43565b6001600160a01b038116600090815260a3602052604081206003015460ac5490915b81811015610f4557600060ac82815481106139cf576139cf615af8565b60009182526020822001546001600160a01b031691506139ee826135a7565b6001600160a01b038316600090815260ad6020526040902060038101829055909150613a1983611da7565b60028201556001600160a01b0387163014613a7b57613a3a87848885614d83565b6001600160a01b03808916600081815260af602090815260408083209489168084529482528083209590955591815260ae8252838120928152919052208290555b5050506001016139b2565b6040516001600160a01b038316602482015260448101829052610d6d9084907fa9059cbb00000000000000000000000000000000000000000000000000000000906064015b60408051601f198184030181529190526020810180517bffffffffffffffffffffffffffffffffffffffffffffffffffffffff167fffffffff0000000000000000000000000000000000000000000000000000000090931692909217909152614e00565b6001600160a01b0385163314613b5857604051630deda90360e41b815260040160405180910390fd5b613b6185613990565b60a054613b78906001600160a01b03168686613a86565b8215613bce578115613ba15760b15460a054613ba1916001600160a01b03918216911684613a86565b60b054613bce906001600160a01b0316613bbb8486615ae1565b60a0546001600160a01b03169190613a86565b8015613c5457613c388560ac805480602002602001604051908101604052809291908181526020018280548015613c2e57602002820191906000526020600020905b81546001600160a01b03168152600190910190602001808311613c10575b5050505050614666565b6001600160a01b038516600090815260b6602052604090204290555b609760009054906101000a90046001600160a01b03166001600160a01b031663a2e620456040518163ffffffff1660e01b8152600401600060405180830381600087803b158015613ca457600080fd5b505af1158015613cb8573d6000803e3d6000fd5b505050506001600160a01b038516600081815260a3602090815260408083206002015481518981529283015281018690526060810185905260808101919091527fa236f2dcd2b940fd86168787a5f820805cdbd85131f7192d9d9c418556876fca9060a00160405180910390a25050505050565b613d34614ee8565b6033805460ff191690557f5db9ee0a495bf2e6ff9c91a7834c1ba4fdd244a5e8aa4e537bd38aeae4b073aa335b6040516001600160a01b03909116815260200160405180910390a1565b613d86613768565b83613d9057610f45565b60b7546001600160a01b031615613e515760b760009054906101000a90046001600160a01b03166001600160a01b031663d9cdd5136040518163ffffffff1660e01b8152600401602060405180830381865afa158015613df4573d6000803e3d6000fd5b505050506040513d601f19601f82011682018060405250810190613e189190615c4a565b841015613e51576040517f2c5211c600000000000000000000000000000000000000000000000000000000815260040160405180910390fd5b60aa548210613e8c576040517fb968846100000000000000000000000000000000000000000000000000000000815260040160405180910390fd5b613e9583613990565b6001600160a01b038316600090815260a46020908152604080832080548251818502810185019093528083529192909190849084015b82821015613f25578382906000526020600020906004020160405180608001604052908160008201548152602001600182015481526020016002820154815260200160038201548152505081526020019060010190613ecb565b505082516001600160a01b038816600090815260a36020526040902080549495509093909250613f5791508890615a8e565b81556002810154613f69908890615a8e565b600282015560a854613f7c908890615a8e565b60a881905550600060ab8681548110613f9757613f97615af8565b906000526020600020015490508088613fb09190615b42565b8260030154613fbf9190615a8e565b6003830155613fce8189615b42565b60a954613fdb9190615a8e565b60a98190555060006207e9008060aa8981548110613ffb57613ffb615af8565b90600052602060002001546140109190615aa6565b61401a9190615b42565b6140249042615a8e565b905060006140356207e90083615aa6565b90506000805b8681101561411357826207e90089838151811061405a5761405a615af8565b6020026020010151602001516140709190615aa6565b14801561409957508488828151811061408b5761408b615af8565b602002602001015160400151145b1561410b578b8882815181106140b1576140b1615af8565b6020026020010151600001516140c79190615a8e565b6001600160a01b038c16600090815260a4602052604090208054839081106140f1576140f1615af8565b600091825260209091206004909102015560019150614113565b60010161403b565b50806141eb5760a460008b6001600160a01b03166001600160a01b0316815260200190815260200160002060405180608001604052808d815260200185815260200186815260200160aa8c8154811061416e5761416e615af8565b6000918252602080832090910154909252835460018181018655948252828220845160049092020190815591830151938201939093556040808301516002830155606090920151600390910155516001600160a01b038c16917f7c5af8d36d8be103bc583da8e01d3e98f15216cc7ef38832c7550b34e8feb43a91a25b876142085760a154614208906001600160a01b031633308e614f3a565b609f546040517f3adcdfc80000000000000000000000000000000000000000000000000000000081526001600160a01b038c8116600483015290911690633adcdfc890602401600060405180830381600087803b15801561426857600080fd5b505af115801561427c573d6000803e3d6000fd5b5050505060aa898154811061429357614293615af8565b90600052602060002001548a6001600160a01b03167f913e1ccde4cbddce589104382f519cff2be9fa901ece8f615cee557d1a5efd698d60a360008f6001600160a01b03166001600160a01b031681526020019081526020016000206002015460a060009054906101000a90046001600160a01b03166001600160a01b031660a160009054906101000a90046001600160a01b03166001600160a01b031614156040516143559392919092835260208301919091521515604082015260600190565b60405180910390a35050505050505050505050565b606580546001600160a01b0383811673ffffffffffffffffffffffffffffffffffffffff19831681179093556040519116919082907f8be0079c531659141344cd1fd0a4f28419497f9722a3daafe3b4186f6b6457e090600090a35050565b60006143d3613768565b8380156143e957506001600160a01b0385163314155b8015614400575060a2546001600160a01b03163314155b1561441e57604051630deda90360e41b815260040160405180910390fd5b61442785613990565b6001600160a01b038516600090815260a3602052604081206144498785614f8b565b6002830154919450925061445e908490615ae1565b60028201556003810154614473908390615ae1565b60038201558054614485908490615ae1565b815560a854614495908490615ae1565b60a85560a9546144a6908390615ae1565b60a95585806144e257506001600160a01b03871633148015906144e257506001600160a01b038716600090815260b3602052604090205460ff16155b15614514576001600160a01b038716600090815260b4602052604090205461450f90849089906001613d7e565b61465c565b841561462a5760a154614531906001600160a01b03168885613a86565b609f546040517f3adcdfc80000000000000000000000000000000000000000000000000000000081526001600160a01b03898116600483015290911690633adcdfc890602401600060405180830381600087803b15801561459157600080fd5b505af11580156145a5573d6000803e3d6000fd5b505050506001600160a01b03878116600081815260a3602090815260408083206002015460a0805460a15484518c8152958601939093529284018590526060840194909452851694169390931415608084015290917fa236f2dcd2b940fd86168787a5f820805cdbd85131f7192d9d9c418556876fca910160405180910390a261465c565b6040517f4a7f394f00000000000000000000000000000000000000000000000000000000815260040160405180910390fd5b5050949350505050565b61466e613768565b609e546040517f08c51c650000000000000000000000000000000000000000000000000000000081526001600160a01b03909116906308c51c65906146b7908490600401615c63565b600060405180830381600087803b1580156146d157600080fd5b505af11580156146e5573d6000803e3d6000fd5b50508251609f546040517f5d8e5d490000000000000000000000000000000000000000000000000000000081526001600160a01b03878116600483015260016024830152929450911691508190635d8e5d4990604401600060405180830381600087803b15801561475557600080fd5b505af1158015614769573d6000803e3d6000fd5b5050505060005b8281101561489f57600084828151811061478c5761478c615af8565b6020026020010151905061479f81614b1f565b6001600160a01b03808716600090815260af602090815260408083209385168352929052908120546147d79064e8d4a5100090615aa6565b90508015614895576001600160a01b03808816600090815260af60209081526040808320938616835292815282822082905560ad9052206004015461481d908290615ae1565b6001600160a01b038316600081815260ad6020526040902060040191909155614847908883613a86565b816001600160a01b0316876001600160a01b03167f540798df468d7b23d11f156fdb954cb19ad414d150722a7b6d55ba369dea792e8360405161488c91815260200190565b60405180910390a35b5050600101614770565b506040517f5d8e5d490000000000000000000000000000000000000000000000000000000081526001600160a01b03858116600483015260006024830152821690635d8e5d4990604401600060405180830381600087803b15801561490357600080fd5b505af1158015614917573d6000803e3d6000fd5b50506040517f3adcdfc80000000000000000000000000000000000000000000000000000000081526001600160a01b03878116600483015284169250633adcdfc89150602401600060405180830381600087803b15801561497757600080fd5b505af115801561498b573d6000803e3d6000fd5b5050505050505050565b61499d613768565b6033805460ff191660011790557f62e78cea01bee320cd4e420270b5ea74000d11b0c9f74754ebdbfc544b05a258613d613390565b6149e66001600160a01b0383163383613a86565b816001600160a01b03167f8c1256b8896378cd5044f80c202f9772b9d77dc85c8a6eb51967210b09bfaa2882604051614a2191815260200190565b60405180910390a25050565b6001600160a01b038216600090815260a560205260408120548190819081905b80821015614ae4576001600160a01b038716600090815260a560205260409020805487919084908110614a8257614a82615af8565b9060005260206000209060040201600101541415614ad9576001600160a01b038716600090815260a5602052604090208054614ac991908490811061101157611011615af8565b9297509550909350614b16915050565b600190910190614a4d565b6040517f5a8cb77900000000000000000000000000000000000000000000000000000000815260040160405180910390fd5b92959194509250565b6001600160a01b038116614b4657604051639fabe1c160e01b815260040160405180910390fd5b60a0546001600160a01b0382811691161415614b5f5750565b6001600160a01b038116600090815260ad60205260409020805480614bb0576040517f17479ac800000000000000000000000000000000000000000000000000000000815260040160405180910390fd5b609a54609954614bc09042615a8e565b614bca9190615ae1565b811015610d6d576004828101546040517f70a0823100000000000000000000000000000000000000000000000000000000815230928101929092526000916001600160a01b038616906370a0823190602401602060405180830381865afa158015614c39573d6000803e3d6000fd5b505050506040513d601f19601f82011682018060405250810190614c5d9190615c4a565b614c679190615ae1565b90508015610f4557610f4584826137bb565b600054610100900460ff16614cf65760405162461bcd60e51b815260206004820152602b60248201527f496e697469616c697a61626c653a20636f6e7472616374206973206e6f74206960448201527f6e697469616c697a696e670000000000000000000000000000000000000000006064820152608401612c43565b611c306151ad565b600054610100900460ff16614d7b5760405162461bcd60e51b815260206004820152602b60248201527f496e697469616c697a61626c653a20636f6e7472616374206973206e6f74206960448201527f6e697469616c697a696e670000000000000000000000000000000000000000006064820152608401612c43565b611c30615236565b6001600160a01b03808516600081815260af602090815260408083209488168084529482528083205493835260ae825280832094835293905291822054909190614dcd9084615ae1565b9050670de0b6b3a7640000614de28286615b42565b614dec9190615aa6565b614df69083615a8e565b9695505050505050565b6000614e55826040518060400160405280602081526020017f5361666545524332303a206c6f772d6c6576656c2063616c6c206661696c6564815250856001600160a01b03166152bc9092919063ffffffff16565b9050805160001480614e76575080806020019051810190614e769190615ca4565b610d6d5760405162461bcd60e51b815260206004820152602a60248201527f5361666545524332303a204552433230206f7065726174696f6e20646964206e60448201527f6f742073756363656564000000000000000000000000000000000000000000006064820152608401612c43565b60335460ff16611c305760405162461bcd60e51b815260206004820152601460248201527f5061757361626c653a206e6f74207061757365640000000000000000000000006044820152606401612c43565b6040516001600160a01b0380851660248301528316604482015260648101829052610f459085907f23b872dd0000000000000000000000000000000000000000000000000000000090608401613acb565b6001600160a01b038216600090815260a4602052604081208054829190156151a5578054600090851015614fbf5784614fc2565b81545b905060005b818110156151675742838281548110614fe257614fe2615af8565b906000526020600020906004020160010154116151555782818154811061500b5761500b615af8565b906000526020600020906004020160000154856150289190615a8e565b945082818154811061503c5761503c615af8565b90600052602060002090600402016002015483828154811061506057615060615af8565b90600052602060002090600402016000015461507c9190615b42565b6150869085615a8e565b8354909450839061509990600190615ae1565b815481106150a9576150a9615af8565b90600052602060002090600402018382815481106150c9576150c9615af8565b9060005260206000209060040201600082015481600001556001820154816001015560028201548160020155600382015481600301559050508280548061511257615112615b61565b600082815260208120600460001990930192830201818155600181810183905560028201839055600390910191909155915561514e9083615ae1565b9150614fc7565b615160816001615a8e565b9050614fc7565b5081546151a3576040516001600160a01b038716907f95266445d018e5b30f957c915e91b04bb4a19bf0f8f21020a08dad9be7931df490600090a25b505b509250929050565b600054610100900460ff1661522a5760405162461bcd60e51b815260206004820152602b60248201527f496e697469616c697a61626c653a20636f6e7472616374206973206e6f74206960448201527f6e697469616c697a696e670000000000000000000000000000000000000000006064820152608401612c43565b6033805460ff19169055565b600054610100900460ff166152b35760405162461bcd60e51b815260206004820152602b60248201527f496e697469616c697a61626c653a20636f6e7472616374206973206e6f74206960448201527f6e697469616c697a696e670000000000000000000000000000000000000000006064820152608401612c43565b611c303361436a565b60606121ed848460008585600080866001600160a01b031685876040516152e39190615ced565b60006040518083038185875af1925050503d8060008114615320576040519150601f19603f3d011682016040523d82523d6000602084013e615325565b606091505b509150915061533687838387615341565b979650505050505050565b606083156153ad5782516153a6576001600160a01b0385163b6153a65760405162461bcd60e51b815260206004820152601d60248201527f416464726573733a2063616c6c20746f206e6f6e2d636f6e74726163740000006044820152606401612c43565b50816121ed565b6121ed83838151156153c25781518083602001fd5b8060405162461bcd60e51b8152600401612c439190615d09565b50805460008255906000526020600020908101906136c9919061541b565b50805460008255600402906000526020600020908101906136c99190615434565b5b80821115615430576000815560010161541c565b5090565b5b8082111561543057600080825560018201819055600282018190556003820155600401615435565b6001600160a01b03811681146136c957600080fd5b80356136378161545d565b80151581146136c957600080fd5b6000806000606084860312156154a057600080fd5b83356154ab8161545d565b92506020840135915060408401356154c28161547d565b809150509250925092565b6000602082840312156154df57600080fd5b8135611dcf8161545d565b600081518084526020808501945080840160005b8381101561553a5781518051885283810151848901526040808201519089015260609081015190880152608090960195908201906001016154fe565b509495945050505050565b85815284602082015283604082015282606082015260a06080820152600061533660a08301846154ea565b6020808252825182820181905260009190848201906040850190845b818110156155a85783518352928401929184019160010161558c565b50909695505050505050565b6000602082840312156155c657600080fd5b5035919050565b6000806000606084860312156155e257600080fd5b83356155ed8161545d565b925060208401356155fd8161545d565b915060408401356154c28161545d565b60008083601f84011261561f57600080fd5b50813567ffffffffffffffff81111561563757600080fd5b6020830191508360208260051b850101111561565257600080fd5b9250929050565b6000806000806040858703121561566f57600080fd5b843567ffffffffffffffff8082111561568757600080fd5b6156938883890161560d565b909650945060208701359150808211156156ac57600080fd5b506156b98782880161560d565b95989497509550505050565b600080602083850312156156d857600080fd5b823567ffffffffffffffff8111156156ef57600080fd5b6156fb8582860161560d565b90969095509350505050565b602081526000611dcf60208301846154ea565b60008060006060848603121561572f57600080fd5b8335925060208401356157418161545d565b929592945050506040919091013590565b6000806040838503121561576557600080fd5b82356157708161545d565b915060208301356157808161545d565b809150509250929050565b6000806040838503121561579e57600080fd5b82356157a98161545d565b915060208301356157808161547d565b7f4e487b7100000000000000000000000000000000000000000000000000000000600052604160045260246000fd5b600060208083850312156157fb57600080fd5b823567ffffffffffffffff8082111561581357600080fd5b818501915085601f83011261582757600080fd5b813581811115615839576158396157b9565b8060051b604051601f19603f8301168101818110858211171561585e5761585e6157b9565b60405291825284820192508381018501918883111561587c57600080fd5b938501935b828510156158a15761589285615472565b84529385019392850192615881565b98975050505050505050565b600080604083850312156158c057600080fd5b82356158cb8161545d565b946020939093013593505050565b600080604083850312156158ec57600080fd5b82356158cb8161547d565b60008060008060008060008060006101208a8c03121561591657600080fd5b89356159218161545d565b985060208a01356159318161545d565b975060408a01356159418161545d565b965060608a01356159518161545d565b989b979a50959860808101359760a0820135975060c0820135965060e08201359550610100909101359350915050565b602080825282518282018190526000919060409081850190868401855b828110156159cc57815180516001600160a01b0316855286015186850152928401929085019060010161599e565b5091979650505050505050565b600060608083018684526020868186015260408381870152828751808552608088019150838901945060005b81811015615a32578551805184528581015186850152840151848401529484019491860191600101615a05565b50909a9950505050505050505050565b600060208284031215615a5457600080fd5b8135611dcf8161547d565b7f4e487b7100000000000000000000000000000000000000000000000000000000600052601160045260246000fd5b60008219821115615aa157615aa1615a5f565b500190565b600082615adc577f4e487b7100000000000000000000000000000000000000000000000000000000600052601260045260246000fd5b500490565b600082821015615af357615af3615a5f565b500390565b7f4e487b7100000000000000000000000000000000000000000000000000000000600052603260045260246000fd5b6000600019821415615b3b57615b3b615a5f565b5060010190565b6000816000190483118215151615615b5c57615b5c615a5f565b500290565b7f4e487b7100000000000000000000000000000000000000000000000000000000600052603160045260246000fd5b81835260007f07ffffffffffffffffffffffffffffffffffffffffffffffffffffffffffffff831115615bc257600080fd5b8260051b8083602087013760009401602001938452509192915050565b604081526000615bf3604083018688615b90565b8281036020840152615336818587615b90565b6020808252825482820181905260008481528281209092916040850190845b818110156155a85783546001600160a01b031683526001938401939285019201615c25565b600060208284031215615c5c57600080fd5b5051919050565b6020808252825182820181905260009190848201906040850190845b818110156155a85783516001600160a01b031683529284019291840191600101615c7f565b600060208284031215615cb657600080fd5b8151611dcf8161547d565b60005b83811015615cdc578181015183820152602001615cc4565b83811115610f455750506000910152565b60008251615cff818460208701615cc1565b9190910192915050565b6020815260008251806020840152615d28816040850160208701615cc1565b601f01601f1916919091016040019291505056fea264697066735822122099f3173796096b0aa5082881a52a8cf23bed412b929d9fd02e3a475bb3a6cbf264736f6c634300080c0033",
  "linkReferences": {},
  "deployedLinkReferences": {}
}